{
	"Contract-In-Dept/Struct-Types.sol": {
		"Funding": {
			"abi": [
				{
					"inputs": [
						{
							"internalType": "uint256",
							"name": "campaignID",
							"type": "uint256"
						}
					],
					"name": "contribute",
					"outputs": [],
					"stateMutability": "payable",
					"type": "function"
				},
				{
					"inputs": [
						{
							"internalType": "address payable",
							"name": "beneficiary",
							"type": "address"
						},
						{
							"internalType": "uint256",
							"name": "goal",
							"type": "uint256"
						}
					],
					"name": "newCampaign",
					"outputs": [
						{
							"internalType": "uint256",
							"name": "campaignID",
							"type": "uint256"
						}
					],
					"stateMutability": "nonpayable",
					"type": "function"
				}
			],
			"devdoc": {
				"kind": "dev",
				"methods": {},
				"version": 1
			},
			"evm": {
				"assembly": "    /* \"Contract-In-Dept/Struct-Types.sol\":191:1208  contract Funding{\r... */\n  mstore(0x40, 0x80)\n  callvalue\n  dup1\n  iszero\n  tag_1\n  jumpi\n  0x00\n  dup1\n  revert\ntag_1:\n  pop\n  dataSize(sub_0)\n  dup1\n  dataOffset(sub_0)\n  0x00\n  codecopy\n  0x00\n  return\nstop\n\nsub_0: assembly {\n        /* \"Contract-In-Dept/Struct-Types.sol\":191:1208  contract Funding{\r... */\n      mstore(0x40, 0x80)\n      jumpi(tag_1, lt(calldatasize, 0x04))\n      shr(0xe0, calldataload(0x00))\n      dup1\n      0xc1cbbca7\n      eq\n      tag_2\n      jumpi\n      dup1\n      0xf7572cf3\n      eq\n      tag_3\n      jumpi\n    tag_1:\n      0x00\n      dup1\n      revert\n        /* \"Contract-In-Dept/Struct-Types.sol\":901:1205  function contribute(uint256 campaignID) public payable{\r... */\n    tag_2:\n      tag_4\n      0x04\n      dup1\n      calldatasize\n      sub\n      dup2\n      add\n      swap1\n      tag_5\n      swap2\n      swap1\n      tag_6\n      jump\t// in\n    tag_5:\n      tag_7\n      jump\t// in\n    tag_4:\n      stop\n        /* \"Contract-In-Dept/Struct-Types.sol\":573:895  function newCampaign(address payable beneficiary, uint256 goal) public returns(uint256 campaignID){\r... */\n    tag_3:\n      callvalue\n      dup1\n      iszero\n      tag_8\n      jumpi\n      0x00\n      dup1\n      revert\n    tag_8:\n      pop\n      tag_9\n      0x04\n      dup1\n      calldatasize\n      sub\n      dup2\n      add\n      swap1\n      tag_10\n      swap2\n      swap1\n      tag_11\n      jump\t// in\n    tag_10:\n      tag_12\n      jump\t// in\n    tag_9:\n      mload(0x40)\n      tag_13\n      swap2\n      swap1\n      tag_14\n      jump\t// in\n    tag_13:\n      mload(0x40)\n      dup1\n      swap2\n      sub\n      swap1\n      return\n        /* \"Contract-In-Dept/Struct-Types.sol\":901:1205  function contribute(uint256 campaignID) public payable{\r... */\n    tag_7:\n        /* \"Contract-In-Dept/Struct-Types.sol\":1042:1060  Campaign storage c */\n      0x00\n        /* \"Contract-In-Dept/Struct-Types.sol\":1063:1072  campaigns */\n      0x01\n        /* \"Contract-In-Dept/Struct-Types.sol\":1063:1084  campaigns[campaignID] */\n      0x00\n        /* \"Contract-In-Dept/Struct-Types.sol\":1073:1083  campaignID */\n      dup4\n        /* \"Contract-In-Dept/Struct-Types.sol\":1063:1084  campaigns[campaignID] */\n      dup2\n      mstore\n      0x20\n      add\n      swap1\n      dup2\n      mstore\n      0x20\n      add\n      0x00\n      keccak256\n        /* \"Contract-In-Dept/Struct-Types.sol\":1042:1084  Campaign storage c = campaigns[campaignID] */\n      swap1\n      pop\n        /* \"Contract-In-Dept/Struct-Types.sol\":1122:1165  Owner({addr: msg.sender, amount:msg.value}) */\n      mload(0x40)\n      dup1\n      0x40\n      add\n      0x40\n      mstore\n      dup1\n        /* \"Contract-In-Dept/Struct-Types.sol\":1135:1145  msg.sender */\n      caller\n        /* \"Contract-In-Dept/Struct-Types.sol\":1122:1165  Owner({addr: msg.sender, amount:msg.value}) */\n      0xffffffffffffffffffffffffffffffffffffffff\n      and\n      dup2\n      mstore\n      0x20\n      add\n        /* \"Contract-In-Dept/Struct-Types.sol\":1154:1163  msg.value */\n      callvalue\n        /* \"Contract-In-Dept/Struct-Types.sol\":1122:1165  Owner({addr: msg.sender, amount:msg.value}) */\n      dup2\n      mstore\n      pop\n        /* \"Contract-In-Dept/Struct-Types.sol\":1095:1096  c */\n      dup2\n        /* \"Contract-In-Dept/Struct-Types.sol\":1095:1103  c.owners */\n      0x04\n      add\n        /* \"Contract-In-Dept/Struct-Types.sol\":1095:1119  c.owners[c.numFunders++] */\n      0x00\n        /* \"Contract-In-Dept/Struct-Types.sol\":1104:1105  c */\n      dup4\n        /* \"Contract-In-Dept/Struct-Types.sol\":1104:1116  c.numFunders */\n      0x02\n      add\n      0x00\n        /* \"Contract-In-Dept/Struct-Types.sol\":1104:1118  c.numFunders++ */\n      dup2\n      sload\n      dup1\n      swap3\n      swap2\n      swap1\n      tag_16\n      swap1\n      tag_17\n      jump\t// in\n    tag_16:\n      swap2\n      swap1\n      pop\n      sstore\n        /* \"Contract-In-Dept/Struct-Types.sol\":1095:1119  c.owners[c.numFunders++] */\n      dup2\n      mstore\n      0x20\n      add\n      swap1\n      dup2\n      mstore\n      0x20\n      add\n      0x00\n      keccak256\n        /* \"Contract-In-Dept/Struct-Types.sol\":1095:1165  c.owners[c.numFunders++] = Owner({addr: msg.sender, amount:msg.value}) */\n      0x00\n      dup3\n      add\n      mload\n      dup2\n      0x00\n      add\n      exp(0x0100, 0x00)\n      dup2\n      sload\n      dup2\n      0xffffffffffffffffffffffffffffffffffffffff\n      mul\n      not\n      and\n      swap1\n      dup4\n      0xffffffffffffffffffffffffffffffffffffffff\n      and\n      mul\n      or\n      swap1\n      sstore\n      pop\n      0x20\n      dup3\n      add\n      mload\n      dup2\n      0x01\n      add\n      sstore\n      swap1\n      pop\n      pop\n        /* \"Contract-In-Dept/Struct-Types.sol\":1188:1197  msg.value */\n      callvalue\n        /* \"Contract-In-Dept/Struct-Types.sol\":1176:1177  c */\n      dup2\n        /* \"Contract-In-Dept/Struct-Types.sol\":1176:1184  c.amount */\n      0x03\n      add\n      0x00\n        /* \"Contract-In-Dept/Struct-Types.sol\":1176:1197  c.amount += msg.value */\n      dup3\n      dup3\n      sload\n      tag_18\n      swap2\n      swap1\n      tag_19\n      jump\t// in\n    tag_18:\n      swap3\n      pop\n      pop\n      dup2\n      swap1\n      sstore\n      pop\n        /* \"Contract-In-Dept/Struct-Types.sol\":955:1205  {\r... */\n      pop\n        /* \"Contract-In-Dept/Struct-Types.sol\":901:1205  function contribute(uint256 campaignID) public payable{\r... */\n      pop\n      jump\t// out\n        /* \"Contract-In-Dept/Struct-Types.sol\":573:895  function newCampaign(address payable beneficiary, uint256 goal) public returns(uint256 campaignID){\r... */\n    tag_12:\n        /* \"Contract-In-Dept/Struct-Types.sol\":652:670  uint256 campaignID */\n      0x00\n        /* \"Contract-In-Dept/Struct-Types.sol\":695:706  numCampaign */\n      dup1\n      0x00\n        /* \"Contract-In-Dept/Struct-Types.sol\":695:708  numCampaign++ */\n      dup2\n      sload\n      dup1\n      swap3\n      swap2\n      swap1\n      tag_21\n      swap1\n      tag_17\n      jump\t// in\n    tag_21:\n      swap2\n      swap1\n      pop\n      sstore\n        /* \"Contract-In-Dept/Struct-Types.sol\":682:708  campaignID = numCampaign++ */\n      swap1\n      pop\n        /* \"Contract-In-Dept/Struct-Types.sol\":743:761  Campaign storage c */\n      0x00\n        /* \"Contract-In-Dept/Struct-Types.sol\":764:773  campaigns */\n      0x01\n        /* \"Contract-In-Dept/Struct-Types.sol\":764:785  campaigns[campaignID] */\n      0x00\n        /* \"Contract-In-Dept/Struct-Types.sol\":774:784  campaignID */\n      dup4\n        /* \"Contract-In-Dept/Struct-Types.sol\":764:785  campaigns[campaignID] */\n      dup2\n      mstore\n      0x20\n      add\n      swap1\n      dup2\n      mstore\n      0x20\n      add\n      0x00\n      keccak256\n        /* \"Contract-In-Dept/Struct-Types.sol\":743:785  Campaign storage c = campaigns[campaignID] */\n      swap1\n      pop\n        /* \"Contract-In-Dept/Struct-Types.sol\":848:859  beneficiary */\n      dup4\n        /* \"Contract-In-Dept/Struct-Types.sol\":832:833  c */\n      dup2\n        /* \"Contract-In-Dept/Struct-Types.sol\":832:845  c.beneficiary */\n      0x00\n      add\n      0x00\n        /* \"Contract-In-Dept/Struct-Types.sol\":832:859  c.beneficiary = beneficiary */\n      0x0100\n      exp\n      dup2\n      sload\n      dup2\n      0xffffffffffffffffffffffffffffffffffffffff\n      mul\n      not\n      and\n      swap1\n      dup4\n      0xffffffffffffffffffffffffffffffffffffffff\n      and\n      mul\n      or\n      swap1\n      sstore\n      pop\n        /* \"Contract-In-Dept/Struct-Types.sol\":883:887  goal */\n      dup3\n        /* \"Contract-In-Dept/Struct-Types.sol\":870:871  c */\n      dup2\n        /* \"Contract-In-Dept/Struct-Types.sol\":870:880  c.fundGoal */\n      0x01\n      add\n        /* \"Contract-In-Dept/Struct-Types.sol\":870:887  c.fundGoal = goal */\n      dup2\n      swap1\n      sstore\n      pop\n        /* \"Contract-In-Dept/Struct-Types.sol\":671:895  {\r... */\n      pop\n        /* \"Contract-In-Dept/Struct-Types.sol\":573:895  function newCampaign(address payable beneficiary, uint256 goal) public returns(uint256 campaignID){\r... */\n      swap3\n      swap2\n      pop\n      pop\n      jump\t// out\n        /* \"#utility.yul\":7:162   */\n    tag_23:\n        /* \"#utility.yul\":61:66   */\n      0x00\n        /* \"#utility.yul\":99:105   */\n      dup2\n        /* \"#utility.yul\":86:106   */\n      calldataload\n        /* \"#utility.yul\":77:106   */\n      swap1\n      pop\n        /* \"#utility.yul\":115:156   */\n      tag_25\n        /* \"#utility.yul\":150:155   */\n      dup2\n        /* \"#utility.yul\":115:156   */\n      tag_26\n      jump\t// in\n    tag_25:\n        /* \"#utility.yul\":7:162   */\n      swap3\n      swap2\n      pop\n      pop\n      jump\t// out\n        /* \"#utility.yul\":168:307   */\n    tag_27:\n        /* \"#utility.yul\":214:219   */\n      0x00\n        /* \"#utility.yul\":252:258   */\n      dup2\n        /* \"#utility.yul\":239:259   */\n      calldataload\n        /* \"#utility.yul\":230:259   */\n      swap1\n      pop\n        /* \"#utility.yul\":268:301   */\n      tag_29\n        /* \"#utility.yul\":295:300   */\n      dup2\n        /* \"#utility.yul\":268:301   */\n      tag_30\n      jump\t// in\n    tag_29:\n        /* \"#utility.yul\":168:307   */\n      swap3\n      swap2\n      pop\n      pop\n      jump\t// out\n        /* \"#utility.yul\":313:803   */\n    tag_11:\n        /* \"#utility.yul\":389:395   */\n      0x00\n        /* \"#utility.yul\":397:403   */\n      dup1\n        /* \"#utility.yul\":446:448   */\n      0x40\n        /* \"#utility.yul\":434:443   */\n      dup4\n        /* \"#utility.yul\":425:432   */\n      dup6\n        /* \"#utility.yul\":421:444   */\n      sub\n        /* \"#utility.yul\":417:449   */\n      slt\n        /* \"#utility.yul\":414:533   */\n      iszero\n      tag_32\n      jumpi\n        /* \"#utility.yul\":452:531   */\n      tag_33\n      tag_34\n      jump\t// in\n    tag_33:\n        /* \"#utility.yul\":414:533   */\n    tag_32:\n        /* \"#utility.yul\":572:573   */\n      0x00\n        /* \"#utility.yul\":597:658   */\n      tag_35\n        /* \"#utility.yul\":650:657   */\n      dup6\n        /* \"#utility.yul\":641:647   */\n      dup3\n        /* \"#utility.yul\":630:639   */\n      dup7\n        /* \"#utility.yul\":626:648   */\n      add\n        /* \"#utility.yul\":597:658   */\n      tag_23\n      jump\t// in\n    tag_35:\n        /* \"#utility.yul\":587:658   */\n      swap3\n      pop\n        /* \"#utility.yul\":543:668   */\n      pop\n        /* \"#utility.yul\":707:709   */\n      0x20\n        /* \"#utility.yul\":733:786   */\n      tag_36\n        /* \"#utility.yul\":778:785   */\n      dup6\n        /* \"#utility.yul\":769:775   */\n      dup3\n        /* \"#utility.yul\":758:767   */\n      dup7\n        /* \"#utility.yul\":754:776   */\n      add\n        /* \"#utility.yul\":733:786   */\n      tag_27\n      jump\t// in\n    tag_36:\n        /* \"#utility.yul\":723:786   */\n      swap2\n      pop\n        /* \"#utility.yul\":678:796   */\n      pop\n        /* \"#utility.yul\":313:803   */\n      swap3\n      pop\n      swap3\n      swap1\n      pop\n      jump\t// out\n        /* \"#utility.yul\":809:1138   */\n    tag_6:\n        /* \"#utility.yul\":868:874   */\n      0x00\n        /* \"#utility.yul\":917:919   */\n      0x20\n        /* \"#utility.yul\":905:914   */\n      dup3\n        /* \"#utility.yul\":896:903   */\n      dup5\n        /* \"#utility.yul\":892:915   */\n      sub\n        /* \"#utility.yul\":888:920   */\n      slt\n        /* \"#utility.yul\":885:1004   */\n      iszero\n      tag_38\n      jumpi\n        /* \"#utility.yul\":923:1002   */\n      tag_39\n      tag_34\n      jump\t// in\n    tag_39:\n        /* \"#utility.yul\":885:1004   */\n    tag_38:\n        /* \"#utility.yul\":1043:1044   */\n      0x00\n        /* \"#utility.yul\":1068:1121   */\n      tag_40\n        /* \"#utility.yul\":1113:1120   */\n      dup5\n        /* \"#utility.yul\":1104:1110   */\n      dup3\n        /* \"#utility.yul\":1093:1102   */\n      dup6\n        /* \"#utility.yul\":1089:1111   */\n      add\n        /* \"#utility.yul\":1068:1121   */\n      tag_27\n      jump\t// in\n    tag_40:\n        /* \"#utility.yul\":1058:1121   */\n      swap2\n      pop\n        /* \"#utility.yul\":1014:1131   */\n      pop\n        /* \"#utility.yul\":809:1138   */\n      swap3\n      swap2\n      pop\n      pop\n      jump\t// out\n        /* \"#utility.yul\":1144:1262   */\n    tag_41:\n        /* \"#utility.yul\":1231:1255   */\n      tag_43\n        /* \"#utility.yul\":1249:1254   */\n      dup2\n        /* \"#utility.yul\":1231:1255   */\n      tag_44\n      jump\t// in\n    tag_43:\n        /* \"#utility.yul\":1226:1229   */\n      dup3\n        /* \"#utility.yul\":1219:1256   */\n      mstore\n        /* \"#utility.yul\":1144:1262   */\n      pop\n      pop\n      jump\t// out\n        /* \"#utility.yul\":1268:1490   */\n    tag_14:\n        /* \"#utility.yul\":1361:1365   */\n      0x00\n        /* \"#utility.yul\":1399:1401   */\n      0x20\n        /* \"#utility.yul\":1388:1397   */\n      dup3\n        /* \"#utility.yul\":1384:1402   */\n      add\n        /* \"#utility.yul\":1376:1402   */\n      swap1\n      pop\n        /* \"#utility.yul\":1412:1483   */\n      tag_46\n        /* \"#utility.yul\":1480:1481   */\n      0x00\n        /* \"#utility.yul\":1469:1478   */\n      dup4\n        /* \"#utility.yul\":1465:1482   */\n      add\n        /* \"#utility.yul\":1456:1462   */\n      dup5\n        /* \"#utility.yul\":1412:1483   */\n      tag_41\n      jump\t// in\n    tag_46:\n        /* \"#utility.yul\":1268:1490   */\n      swap3\n      swap2\n      pop\n      pop\n      jump\t// out\n        /* \"#utility.yul\":1577:1882   */\n    tag_19:\n        /* \"#utility.yul\":1617:1620   */\n      0x00\n        /* \"#utility.yul\":1636:1656   */\n      tag_50\n        /* \"#utility.yul\":1654:1655   */\n      dup3\n        /* \"#utility.yul\":1636:1656   */\n      tag_44\n      jump\t// in\n    tag_50:\n        /* \"#utility.yul\":1631:1656   */\n      swap2\n      pop\n        /* \"#utility.yul\":1670:1690   */\n      tag_51\n        /* \"#utility.yul\":1688:1689   */\n      dup4\n        /* \"#utility.yul\":1670:1690   */\n      tag_44\n      jump\t// in\n    tag_51:\n        /* \"#utility.yul\":1665:1690   */\n      swap3\n      pop\n        /* \"#utility.yul\":1824:1825   */\n      dup3\n        /* \"#utility.yul\":1756:1822   */\n      0xffffffffffffffffffffffffffffffffffffffffffffffffffffffffffffffff\n        /* \"#utility.yul\":1752:1826   */\n      sub\n        /* \"#utility.yul\":1749:1750   */\n      dup3\n        /* \"#utility.yul\":1746:1827   */\n      gt\n        /* \"#utility.yul\":1743:1850   */\n      iszero\n      tag_52\n      jumpi\n        /* \"#utility.yul\":1830:1848   */\n      tag_53\n      tag_54\n      jump\t// in\n    tag_53:\n        /* \"#utility.yul\":1743:1850   */\n    tag_52:\n        /* \"#utility.yul\":1874:1875   */\n      dup3\n        /* \"#utility.yul\":1871:1872   */\n      dup3\n        /* \"#utility.yul\":1867:1876   */\n      add\n        /* \"#utility.yul\":1860:1876   */\n      swap1\n      pop\n        /* \"#utility.yul\":1577:1882   */\n      swap3\n      swap2\n      pop\n      pop\n      jump\t// out\n        /* \"#utility.yul\":1888:1992   */\n    tag_55:\n        /* \"#utility.yul\":1933:1940   */\n      0x00\n        /* \"#utility.yul\":1962:1986   */\n      tag_57\n        /* \"#utility.yul\":1980:1985   */\n      dup3\n        /* \"#utility.yul\":1962:1986   */\n      tag_58\n      jump\t// in\n    tag_57:\n        /* \"#utility.yul\":1951:1986   */\n      swap1\n      pop\n        /* \"#utility.yul\":1888:1992   */\n      swap2\n      swap1\n      pop\n      jump\t// out\n        /* \"#utility.yul\":1998:2124   */\n    tag_58:\n        /* \"#utility.yul\":2035:2042   */\n      0x00\n        /* \"#utility.yul\":2075:2117   */\n      0xffffffffffffffffffffffffffffffffffffffff\n        /* \"#utility.yul\":2068:2073   */\n      dup3\n        /* \"#utility.yul\":2064:2118   */\n      and\n        /* \"#utility.yul\":2053:2118   */\n      swap1\n      pop\n        /* \"#utility.yul\":1998:2124   */\n      swap2\n      swap1\n      pop\n      jump\t// out\n        /* \"#utility.yul\":2130:2207   */\n    tag_44:\n        /* \"#utility.yul\":2167:2174   */\n      0x00\n        /* \"#utility.yul\":2196:2201   */\n      dup2\n        /* \"#utility.yul\":2185:2201   */\n      swap1\n      pop\n        /* \"#utility.yul\":2130:2207   */\n      swap2\n      swap1\n      pop\n      jump\t// out\n        /* \"#utility.yul\":2213:2446   */\n    tag_17:\n        /* \"#utility.yul\":2252:2255   */\n      0x00\n        /* \"#utility.yul\":2275:2299   */\n      tag_62\n        /* \"#utility.yul\":2293:2298   */\n      dup3\n        /* \"#utility.yul\":2275:2299   */\n      tag_44\n      jump\t// in\n    tag_62:\n        /* \"#utility.yul\":2266:2299   */\n      swap2\n      pop\n        /* \"#utility.yul\":2321:2387   */\n      0xffffffffffffffffffffffffffffffffffffffffffffffffffffffffffffffff\n        /* \"#utility.yul\":2314:2319   */\n      dup3\n        /* \"#utility.yul\":2311:2388   */\n      eq\n        /* \"#utility.yul\":2308:2411   */\n      iszero\n      tag_63\n      jumpi\n        /* \"#utility.yul\":2391:2409   */\n      tag_64\n      tag_54\n      jump\t// in\n    tag_64:\n        /* \"#utility.yul\":2308:2411   */\n    tag_63:\n        /* \"#utility.yul\":2438:2439   */\n      0x01\n        /* \"#utility.yul\":2431:2436   */\n      dup3\n        /* \"#utility.yul\":2427:2440   */\n      add\n        /* \"#utility.yul\":2420:2440   */\n      swap1\n      pop\n        /* \"#utility.yul\":2213:2446   */\n      swap2\n      swap1\n      pop\n      jump\t// out\n        /* \"#utility.yul\":2452:2632   */\n    tag_54:\n        /* \"#utility.yul\":2500:2577   */\n      0x4e487b7100000000000000000000000000000000000000000000000000000000\n        /* \"#utility.yul\":2497:2498   */\n      0x00\n        /* \"#utility.yul\":2490:2578   */\n      mstore\n        /* \"#utility.yul\":2597:2601   */\n      0x11\n        /* \"#utility.yul\":2594:2595   */\n      0x04\n        /* \"#utility.yul\":2587:2602   */\n      mstore\n        /* \"#utility.yul\":2621:2625   */\n      0x24\n        /* \"#utility.yul\":2618:2619   */\n      0x00\n        /* \"#utility.yul\":2611:2626   */\n      revert\n        /* \"#utility.yul\":2761:2878   */\n    tag_34:\n        /* \"#utility.yul\":2870:2871   */\n      0x00\n        /* \"#utility.yul\":2867:2868   */\n      dup1\n        /* \"#utility.yul\":2860:2872   */\n      revert\n        /* \"#utility.yul\":2884:3022   */\n    tag_26:\n        /* \"#utility.yul\":2965:2997   */\n      tag_70\n        /* \"#utility.yul\":2991:2996   */\n      dup2\n        /* \"#utility.yul\":2965:2997   */\n      tag_55\n      jump\t// in\n    tag_70:\n        /* \"#utility.yul\":2958:2963   */\n      dup2\n        /* \"#utility.yul\":2955:2998   */\n      eq\n        /* \"#utility.yul\":2945:3016   */\n      tag_71\n      jumpi\n        /* \"#utility.yul\":3012:3013   */\n      0x00\n        /* \"#utility.yul\":3009:3010   */\n      dup1\n        /* \"#utility.yul\":3002:3014   */\n      revert\n        /* \"#utility.yul\":2945:3016   */\n    tag_71:\n        /* \"#utility.yul\":2884:3022   */\n      pop\n      jump\t// out\n        /* \"#utility.yul\":3028:3150   */\n    tag_30:\n        /* \"#utility.yul\":3101:3125   */\n      tag_73\n        /* \"#utility.yul\":3119:3124   */\n      dup2\n        /* \"#utility.yul\":3101:3125   */\n      tag_44\n      jump\t// in\n    tag_73:\n        /* \"#utility.yul\":3094:3099   */\n      dup2\n        /* \"#utility.yul\":3091:3126   */\n      eq\n        /* \"#utility.yul\":3081:3144   */\n      tag_74\n      jumpi\n        /* \"#utility.yul\":3140:3141   */\n      0x00\n        /* \"#utility.yul\":3137:3138   */\n      dup1\n        /* \"#utility.yul\":3130:3142   */\n      revert\n        /* \"#utility.yul\":3081:3144   */\n    tag_74:\n        /* \"#utility.yul\":3028:3150   */\n      pop\n      jump\t// out\n\n    auxdata: 0xa2646970667358221220ed960ee2ab8adbbd23ae1baf8f4ff9a9e9b995f23ce2ee3a992c1bf8bb28343b64736f6c63430008070033\n}\n",
				"bytecode": {
					"linkReferences": {},
					"object": "608060405234801561001057600080fd5b50610421806100206000396000f3fe6080604052600436106100295760003560e01c8063c1cbbca71461002e578063f7572cf31461004a575b600080fd5b61004860048036038101906100439190610257565b610087565b005b34801561005657600080fd5b50610071600480360381019061006c9190610217565b610169565b60405161007e9190610293565b60405180910390f35b600060016000838152602001908152602001600020905060405180604001604052803373ffffffffffffffffffffffffffffffffffffffff168152602001348152508160040160008360020160008154809291906100e490610340565b91905055815260200190815260200160002060008201518160000160006101000a81548173ffffffffffffffffffffffffffffffffffffffff021916908373ffffffffffffffffffffffffffffffffffffffff160217905550602082015181600101559050503481600301600082825461015e91906102ae565b925050819055505050565b600080600081548092919061017d90610340565b9190505590506000600160008381526020019081526020016000209050838160000160006101000a81548173ffffffffffffffffffffffffffffffffffffffff021916908373ffffffffffffffffffffffffffffffffffffffff1602179055508281600101819055505092915050565b6000813590506101fc816103bd565b92915050565b600081359050610211816103d4565b92915050565b6000806040838503121561022e5761022d6103b8565b5b600061023c858286016101ed565b925050602061024d85828601610202565b9150509250929050565b60006020828403121561026d5761026c6103b8565b5b600061027b84828501610202565b91505092915050565b61028d81610336565b82525050565b60006020820190506102a86000830184610284565b92915050565b60006102b982610336565b91506102c483610336565b9250827fffffffffffffffffffffffffffffffffffffffffffffffffffffffffffffffff038211156102f9576102f8610389565b5b828201905092915050565b600061030f82610316565b9050919050565b600073ffffffffffffffffffffffffffffffffffffffff82169050919050565b6000819050919050565b600061034b82610336565b91507fffffffffffffffffffffffffffffffffffffffffffffffffffffffffffffffff82141561037e5761037d610389565b5b600182019050919050565b7f4e487b7100000000000000000000000000000000000000000000000000000000600052601160045260246000fd5b600080fd5b6103c681610304565b81146103d157600080fd5b50565b6103dd81610336565b81146103e857600080fd5b5056fea2646970667358221220ed960ee2ab8adbbd23ae1baf8f4ff9a9e9b995f23ce2ee3a992c1bf8bb28343b64736f6c63430008070033",
					"opcodes": "PUSH1 0x80 PUSH1 0x40 MSTORE CALLVALUE DUP1 ISZERO PUSH2 0x10 JUMPI PUSH1 0x0 DUP1 REVERT JUMPDEST POP PUSH2 0x421 DUP1 PUSH2 0x20 PUSH1 0x0 CODECOPY PUSH1 0x0 RETURN INVALID PUSH1 0x80 PUSH1 0x40 MSTORE PUSH1 0x4 CALLDATASIZE LT PUSH2 0x29 JUMPI PUSH1 0x0 CALLDATALOAD PUSH1 0xE0 SHR DUP1 PUSH4 0xC1CBBCA7 EQ PUSH2 0x2E JUMPI DUP1 PUSH4 0xF7572CF3 EQ PUSH2 0x4A JUMPI JUMPDEST PUSH1 0x0 DUP1 REVERT JUMPDEST PUSH2 0x48 PUSH1 0x4 DUP1 CALLDATASIZE SUB DUP2 ADD SWAP1 PUSH2 0x43 SWAP2 SWAP1 PUSH2 0x257 JUMP JUMPDEST PUSH2 0x87 JUMP JUMPDEST STOP JUMPDEST CALLVALUE DUP1 ISZERO PUSH2 0x56 JUMPI PUSH1 0x0 DUP1 REVERT JUMPDEST POP PUSH2 0x71 PUSH1 0x4 DUP1 CALLDATASIZE SUB DUP2 ADD SWAP1 PUSH2 0x6C SWAP2 SWAP1 PUSH2 0x217 JUMP JUMPDEST PUSH2 0x169 JUMP JUMPDEST PUSH1 0x40 MLOAD PUSH2 0x7E SWAP2 SWAP1 PUSH2 0x293 JUMP JUMPDEST PUSH1 0x40 MLOAD DUP1 SWAP2 SUB SWAP1 RETURN JUMPDEST PUSH1 0x0 PUSH1 0x1 PUSH1 0x0 DUP4 DUP2 MSTORE PUSH1 0x20 ADD SWAP1 DUP2 MSTORE PUSH1 0x20 ADD PUSH1 0x0 KECCAK256 SWAP1 POP PUSH1 0x40 MLOAD DUP1 PUSH1 0x40 ADD PUSH1 0x40 MSTORE DUP1 CALLER PUSH20 0xFFFFFFFFFFFFFFFFFFFFFFFFFFFFFFFFFFFFFFFF AND DUP2 MSTORE PUSH1 0x20 ADD CALLVALUE DUP2 MSTORE POP DUP2 PUSH1 0x4 ADD PUSH1 0x0 DUP4 PUSH1 0x2 ADD PUSH1 0x0 DUP2 SLOAD DUP1 SWAP3 SWAP2 SWAP1 PUSH2 0xE4 SWAP1 PUSH2 0x340 JUMP JUMPDEST SWAP2 SWAP1 POP SSTORE DUP2 MSTORE PUSH1 0x20 ADD SWAP1 DUP2 MSTORE PUSH1 0x20 ADD PUSH1 0x0 KECCAK256 PUSH1 0x0 DUP3 ADD MLOAD DUP2 PUSH1 0x0 ADD PUSH1 0x0 PUSH2 0x100 EXP DUP2 SLOAD DUP2 PUSH20 0xFFFFFFFFFFFFFFFFFFFFFFFFFFFFFFFFFFFFFFFF MUL NOT AND SWAP1 DUP4 PUSH20 0xFFFFFFFFFFFFFFFFFFFFFFFFFFFFFFFFFFFFFFFF AND MUL OR SWAP1 SSTORE POP PUSH1 0x20 DUP3 ADD MLOAD DUP2 PUSH1 0x1 ADD SSTORE SWAP1 POP POP CALLVALUE DUP2 PUSH1 0x3 ADD PUSH1 0x0 DUP3 DUP3 SLOAD PUSH2 0x15E SWAP2 SWAP1 PUSH2 0x2AE JUMP JUMPDEST SWAP3 POP POP DUP2 SWAP1 SSTORE POP POP POP JUMP JUMPDEST PUSH1 0x0 DUP1 PUSH1 0x0 DUP2 SLOAD DUP1 SWAP3 SWAP2 SWAP1 PUSH2 0x17D SWAP1 PUSH2 0x340 JUMP JUMPDEST SWAP2 SWAP1 POP SSTORE SWAP1 POP PUSH1 0x0 PUSH1 0x1 PUSH1 0x0 DUP4 DUP2 MSTORE PUSH1 0x20 ADD SWAP1 DUP2 MSTORE PUSH1 0x20 ADD PUSH1 0x0 KECCAK256 SWAP1 POP DUP4 DUP2 PUSH1 0x0 ADD PUSH1 0x0 PUSH2 0x100 EXP DUP2 SLOAD DUP2 PUSH20 0xFFFFFFFFFFFFFFFFFFFFFFFFFFFFFFFFFFFFFFFF MUL NOT AND SWAP1 DUP4 PUSH20 0xFFFFFFFFFFFFFFFFFFFFFFFFFFFFFFFFFFFFFFFF AND MUL OR SWAP1 SSTORE POP DUP3 DUP2 PUSH1 0x1 ADD DUP2 SWAP1 SSTORE POP POP SWAP3 SWAP2 POP POP JUMP JUMPDEST PUSH1 0x0 DUP2 CALLDATALOAD SWAP1 POP PUSH2 0x1FC DUP2 PUSH2 0x3BD JUMP JUMPDEST SWAP3 SWAP2 POP POP JUMP JUMPDEST PUSH1 0x0 DUP2 CALLDATALOAD SWAP1 POP PUSH2 0x211 DUP2 PUSH2 0x3D4 JUMP JUMPDEST SWAP3 SWAP2 POP POP JUMP JUMPDEST PUSH1 0x0 DUP1 PUSH1 0x40 DUP4 DUP6 SUB SLT ISZERO PUSH2 0x22E JUMPI PUSH2 0x22D PUSH2 0x3B8 JUMP JUMPDEST JUMPDEST PUSH1 0x0 PUSH2 0x23C DUP6 DUP3 DUP7 ADD PUSH2 0x1ED JUMP JUMPDEST SWAP3 POP POP PUSH1 0x20 PUSH2 0x24D DUP6 DUP3 DUP7 ADD PUSH2 0x202 JUMP JUMPDEST SWAP2 POP POP SWAP3 POP SWAP3 SWAP1 POP JUMP JUMPDEST PUSH1 0x0 PUSH1 0x20 DUP3 DUP5 SUB SLT ISZERO PUSH2 0x26D JUMPI PUSH2 0x26C PUSH2 0x3B8 JUMP JUMPDEST JUMPDEST PUSH1 0x0 PUSH2 0x27B DUP5 DUP3 DUP6 ADD PUSH2 0x202 JUMP JUMPDEST SWAP2 POP POP SWAP3 SWAP2 POP POP JUMP JUMPDEST PUSH2 0x28D DUP2 PUSH2 0x336 JUMP JUMPDEST DUP3 MSTORE POP POP JUMP JUMPDEST PUSH1 0x0 PUSH1 0x20 DUP3 ADD SWAP1 POP PUSH2 0x2A8 PUSH1 0x0 DUP4 ADD DUP5 PUSH2 0x284 JUMP JUMPDEST SWAP3 SWAP2 POP POP JUMP JUMPDEST PUSH1 0x0 PUSH2 0x2B9 DUP3 PUSH2 0x336 JUMP JUMPDEST SWAP2 POP PUSH2 0x2C4 DUP4 PUSH2 0x336 JUMP JUMPDEST SWAP3 POP DUP3 PUSH32 0xFFFFFFFFFFFFFFFFFFFFFFFFFFFFFFFFFFFFFFFFFFFFFFFFFFFFFFFFFFFFFFFF SUB DUP3 GT ISZERO PUSH2 0x2F9 JUMPI PUSH2 0x2F8 PUSH2 0x389 JUMP JUMPDEST JUMPDEST DUP3 DUP3 ADD SWAP1 POP SWAP3 SWAP2 POP POP JUMP JUMPDEST PUSH1 0x0 PUSH2 0x30F DUP3 PUSH2 0x316 JUMP JUMPDEST SWAP1 POP SWAP2 SWAP1 POP JUMP JUMPDEST PUSH1 0x0 PUSH20 0xFFFFFFFFFFFFFFFFFFFFFFFFFFFFFFFFFFFFFFFF DUP3 AND SWAP1 POP SWAP2 SWAP1 POP JUMP JUMPDEST PUSH1 0x0 DUP2 SWAP1 POP SWAP2 SWAP1 POP JUMP JUMPDEST PUSH1 0x0 PUSH2 0x34B DUP3 PUSH2 0x336 JUMP JUMPDEST SWAP2 POP PUSH32 0xFFFFFFFFFFFFFFFFFFFFFFFFFFFFFFFFFFFFFFFFFFFFFFFFFFFFFFFFFFFFFFFF DUP3 EQ ISZERO PUSH2 0x37E JUMPI PUSH2 0x37D PUSH2 0x389 JUMP JUMPDEST JUMPDEST PUSH1 0x1 DUP3 ADD SWAP1 POP SWAP2 SWAP1 POP JUMP JUMPDEST PUSH32 0x4E487B7100000000000000000000000000000000000000000000000000000000 PUSH1 0x0 MSTORE PUSH1 0x11 PUSH1 0x4 MSTORE PUSH1 0x24 PUSH1 0x0 REVERT JUMPDEST PUSH1 0x0 DUP1 REVERT JUMPDEST PUSH2 0x3C6 DUP2 PUSH2 0x304 JUMP JUMPDEST DUP2 EQ PUSH2 0x3D1 JUMPI PUSH1 0x0 DUP1 REVERT JUMPDEST POP JUMP JUMPDEST PUSH2 0x3DD DUP2 PUSH2 0x336 JUMP JUMPDEST DUP2 EQ PUSH2 0x3E8 JUMPI PUSH1 0x0 DUP1 REVERT JUMPDEST POP JUMP INVALID LOG2 PUSH5 0x6970667358 0x22 SLT KECCAK256 0xED SWAP7 0xE 0xE2 0xAB DUP11 0xDB 0xBD 0x23 0xAE SHL 0xAF DUP16 0x4F 0xF9 0xA9 0xE9 0xB9 SWAP6 CALLCODE EXTCODECOPY 0xE2 0xEE GASPRICE SWAP10 0x2C SHL 0xF8 0xBB 0x28 CALLVALUE EXTCODESIZE PUSH5 0x736F6C6343 STOP ADDMOD SMOD STOP CALLER "
				},
				"gasEstimates": {
					"creation": {
						"codeDepositCost": "211400",
						"executionCost": "257",
						"totalCost": "211657"
					},
					"external": {
						"contribute(uint256)": "infinite",
						"newCampaign(address,uint256)": "infinite"
					}
				},
				"methodIdentifiers": {
					"contribute(uint256)": "c1cbbca7",
					"newCampaign(address,uint256)": "f7572cf3"
				}
			},
			"storageLayout": {
				"storage": [
					{
						"astId": 22,
						"contract": "Contract-In-Dept/Struct-Types.sol:Funding",
						"label": "numCampaign",
						"offset": 0,
						"slot": "0",
						"type": "t_uint256"
					},
					{
						"astId": 27,
						"contract": "Contract-In-Dept/Struct-Types.sol:Funding",
						"label": "campaigns",
						"offset": 0,
						"slot": "1",
						"type": "t_mapping(t_uint256,t_struct(Campaign)20_storage)"
					}
				],
				"types": {
					"t_address": {
						"encoding": "inplace",
						"label": "address",
						"numberOfBytes": "20"
					},
					"t_address_payable": {
						"encoding": "inplace",
						"label": "address payable",
						"numberOfBytes": "20"
					},
					"t_mapping(t_uint256,t_struct(Campaign)20_storage)": {
						"encoding": "mapping",
						"key": "t_uint256",
						"label": "mapping(uint256 => struct Funding.Campaign)",
						"numberOfBytes": "32",
						"value": "t_struct(Campaign)20_storage"
					},
					"t_mapping(t_uint256,t_struct(Owner)6_storage)": {
						"encoding": "mapping",
						"key": "t_uint256",
						"label": "mapping(uint256 => struct Owner)",
						"numberOfBytes": "32",
						"value": "t_struct(Owner)6_storage"
					},
					"t_struct(Campaign)20_storage": {
						"encoding": "inplace",
						"label": "struct Funding.Campaign",
						"members": [
							{
								"astId": 8,
								"contract": "Contract-In-Dept/Struct-Types.sol:Funding",
								"label": "beneficiary",
								"offset": 0,
								"slot": "0",
								"type": "t_address_payable"
							},
							{
								"astId": 10,
								"contract": "Contract-In-Dept/Struct-Types.sol:Funding",
								"label": "fundGoal",
								"offset": 0,
								"slot": "1",
								"type": "t_uint256"
							},
							{
								"astId": 12,
								"contract": "Contract-In-Dept/Struct-Types.sol:Funding",
								"label": "numFunders",
								"offset": 0,
								"slot": "2",
								"type": "t_uint256"
							},
							{
								"astId": 14,
								"contract": "Contract-In-Dept/Struct-Types.sol:Funding",
								"label": "amount",
								"offset": 0,
								"slot": "3",
								"type": "t_uint256"
							},
							{
								"astId": 19,
								"contract": "Contract-In-Dept/Struct-Types.sol:Funding",
								"label": "owners",
								"offset": 0,
								"slot": "4",
								"type": "t_mapping(t_uint256,t_struct(Owner)6_storage)"
							}
						],
						"numberOfBytes": "160"
					},
					"t_struct(Owner)6_storage": {
						"encoding": "inplace",
						"label": "struct Owner",
						"members": [
							{
								"astId": 3,
								"contract": "Contract-In-Dept/Struct-Types.sol:Funding",
								"label": "addr",
								"offset": 0,
								"slot": "0",
								"type": "t_address"
							},
							{
								"astId": 5,
								"contract": "Contract-In-Dept/Struct-Types.sol:Funding",
								"label": "amount",
								"offset": 0,
								"slot": "1",
								"type": "t_uint256"
							}
						],
						"numberOfBytes": "64"
					},
					"t_uint256": {
						"encoding": "inplace",
						"label": "uint256",
						"numberOfBytes": "32"
					}
				}
			},
			"userdoc": {
				"kind": "user",
				"methods": {},
				"version": 1
			}
		}
	}
}