{
	"Contract-In-Dept/Enum-Types.sol": {
		"Enum": {
			"abi": [
				{
					"inputs": [],
					"name": "setmoveForward",
					"outputs": [],
					"stateMutability": "nonpayable",
					"type": "function"
				}
			],
			"devdoc": {
				"kind": "dev",
				"methods": {},
				"version": 1
			},
			"evm": {
				"assembly": "    /* \"Contract-In-Dept/Enum-Types.sol\":72:471  contract Enum {\r... */\n  mstore(0x40, 0x80)\n  callvalue\n  dup1\n  iszero\n  tag_1\n  jumpi\n  0x00\n  dup1\n  revert\ntag_1:\n  pop\n  dataSize(sub_0)\n  dup1\n  dataOffset(sub_0)\n  0x00\n  codecopy\n  0x00\n  return\nstop\n\nsub_0: assembly {\n        /* \"Contract-In-Dept/Enum-Types.sol\":72:471  contract Enum {\r... */\n      mstore(0x40, 0x80)\n      callvalue\n      dup1\n      iszero\n      tag_1\n      jumpi\n      0x00\n      dup1\n      revert\n    tag_1:\n      pop\n      jumpi(tag_2, lt(calldatasize, 0x04))\n      shr(0xe0, calldataload(0x00))\n      dup1\n      0x65aafc4b\n      eq\n      tag_3\n      jumpi\n    tag_2:\n      0x00\n      dup1\n      revert\n        /* \"Contract-In-Dept/Enum-Types.sol\":392:468  function setmoveForward() public{\r... */\n    tag_3:\n      tag_4\n      tag_5\n      jump\t// in\n    tag_4:\n      stop\n    tag_5:\n        /* \"Contract-In-Dept/Enum-Types.sol\":442:460  MoveMe.moveForward */\n      0x03\n        /* \"Contract-In-Dept/Enum-Types.sol\":435:439  walk */\n      0x00\n      dup1\n        /* \"Contract-In-Dept/Enum-Types.sol\":435:460  walk = MoveMe.moveForward */\n      0x0100\n      exp\n      dup2\n      sload\n      dup2\n      0xff\n      mul\n      not\n      and\n      swap1\n      dup4\n      0x04\n      dup2\n      gt\n      iszero\n      tag_7\n      jumpi\n      tag_8\n      tag_9\n      jump\t// in\n    tag_8:\n    tag_7:\n      mul\n      or\n      swap1\n      sstore\n      pop\n        /* \"Contract-In-Dept/Enum-Types.sol\":392:468  function setmoveForward() public{\r... */\n      jump\t// out\n        /* \"#utility.yul\":7:187   */\n    tag_9:\n        /* \"#utility.yul\":55:132   */\n      0x4e487b7100000000000000000000000000000000000000000000000000000000\n        /* \"#utility.yul\":52:53   */\n      0x00\n        /* \"#utility.yul\":45:133   */\n      mstore\n        /* \"#utility.yul\":152:156   */\n      0x21\n        /* \"#utility.yul\":149:150   */\n      0x04\n        /* \"#utility.yul\":142:157   */\n      mstore\n        /* \"#utility.yul\":176:180   */\n      0x24\n        /* \"#utility.yul\":173:174   */\n      0x00\n        /* \"#utility.yul\":166:181   */\n      revert\n\n    auxdata: 0xa2646970667358221220cd178fcccaab7ef95a509df13337759febd21c7c1fc6ce294e4c48ea3109ec7f64736f6c63430008070033\n}\n",
				"bytecode": {
					"linkReferences": {},
					"object": "6080604052348015600f57600080fd5b5060c38061001e6000396000f3fe6080604052348015600f57600080fd5b506004361060285760003560e01c806365aafc4b14602d575b600080fd5b60336035565b005b60036000806101000a81548160ff021916908360048111156057576056605e565b5b0217905550565b7f4e487b7100000000000000000000000000000000000000000000000000000000600052602160045260246000fdfea2646970667358221220cd178fcccaab7ef95a509df13337759febd21c7c1fc6ce294e4c48ea3109ec7f64736f6c63430008070033",
					"opcodes": "PUSH1 0x80 PUSH1 0x40 MSTORE CALLVALUE DUP1 ISZERO PUSH1 0xF JUMPI PUSH1 0x0 DUP1 REVERT JUMPDEST POP PUSH1 0xC3 DUP1 PUSH2 0x1E PUSH1 0x0 CODECOPY PUSH1 0x0 RETURN INVALID PUSH1 0x80 PUSH1 0x40 MSTORE CALLVALUE DUP1 ISZERO PUSH1 0xF JUMPI PUSH1 0x0 DUP1 REVERT JUMPDEST POP PUSH1 0x4 CALLDATASIZE LT PUSH1 0x28 JUMPI PUSH1 0x0 CALLDATALOAD PUSH1 0xE0 SHR DUP1 PUSH4 0x65AAFC4B EQ PUSH1 0x2D JUMPI JUMPDEST PUSH1 0x0 DUP1 REVERT JUMPDEST PUSH1 0x33 PUSH1 0x35 JUMP JUMPDEST STOP JUMPDEST PUSH1 0x3 PUSH1 0x0 DUP1 PUSH2 0x100 EXP DUP2 SLOAD DUP2 PUSH1 0xFF MUL NOT AND SWAP1 DUP4 PUSH1 0x4 DUP2 GT ISZERO PUSH1 0x57 JUMPI PUSH1 0x56 PUSH1 0x5E JUMP JUMPDEST JUMPDEST MUL OR SWAP1 SSTORE POP JUMP JUMPDEST PUSH32 0x4E487B7100000000000000000000000000000000000000000000000000000000 PUSH1 0x0 MSTORE PUSH1 0x21 PUSH1 0x4 MSTORE PUSH1 0x24 PUSH1 0x0 REVERT INVALID LOG2 PUSH5 0x6970667358 0x22 SLT KECCAK256 0xCD OR DUP16 0xCC 0xCA 0xAB PUSH31 0xF95A509DF13337759FEBD21C7C1FC6CE294E4C48EA3109EC7F64736F6C6343 STOP ADDMOD SMOD STOP CALLER "
				},
				"gasEstimates": {
					"creation": {
						"codeDepositCost": "39000",
						"executionCost": "93",
						"totalCost": "39093"
					},
					"external": {
						"setmoveForward()": "24409"
					}
				},
				"methodIdentifiers": {
					"setmoveForward()": "65aafc4b"
				}
			},
			"storageLayout": {
				"storage": [
					{
						"astId": 10,
						"contract": "Contract-In-Dept/Enum-Types.sol:Enum",
						"label": "walk",
						"offset": 0,
						"slot": "0",
						"type": "t_enum(MoveMe)7"
					}
				],
				"types": {
					"t_enum(MoveMe)7": {
						"encoding": "inplace",
						"label": "enum Enum.MoveMe",
						"numberOfBytes": "1"
					}
				}
			},
			"userdoc": {
				"kind": "user",
				"methods": {},
				"version": 1
			}
		}
	}
}