{
	"Contract-In-Dept/Struct-Types.sol": {
		"Funding": {
			"abi": [
				{
					"inputs": [
						{
							"internalType": "address payable",
							"name": "beneficiary",
							"type": "address"
						},
						{
							"internalType": "uint256",
							"name": "goal",
							"type": "uint256"
						}
					],
					"name": "newCampaign",
					"outputs": [
						{
							"internalType": "uint256",
							"name": "campaignID",
							"type": "uint256"
						}
					],
					"stateMutability": "nonpayable",
					"type": "function"
				}
			],
			"devdoc": {
				"kind": "dev",
				"methods": {},
				"version": 1
			},
			"evm": {
				"assembly": "    /* \"Contract-In-Dept/Struct-Types.sol\":191:898  contract Funding{\r... */\n  mstore(0x40, 0x80)\n  callvalue\n  dup1\n  iszero\n  tag_1\n  jumpi\n  0x00\n  dup1\n  revert\ntag_1:\n  pop\n  dataSize(sub_0)\n  dup1\n  dataOffset(sub_0)\n  0x00\n  codecopy\n  0x00\n  return\nstop\n\nsub_0: assembly {\n        /* \"Contract-In-Dept/Struct-Types.sol\":191:898  contract Funding{\r... */\n      mstore(0x40, 0x80)\n      callvalue\n      dup1\n      iszero\n      tag_1\n      jumpi\n      0x00\n      dup1\n      revert\n    tag_1:\n      pop\n      jumpi(tag_2, lt(calldatasize, 0x04))\n      shr(0xe0, calldataload(0x00))\n      dup1\n      0xf7572cf3\n      eq\n      tag_3\n      jumpi\n    tag_2:\n      0x00\n      dup1\n      revert\n        /* \"Contract-In-Dept/Struct-Types.sol\":573:895  function newCampaign(address payable beneficiary, uint256 goal) public returns(uint256 campaignID){\r... */\n    tag_3:\n      tag_4\n      0x04\n      dup1\n      calldatasize\n      sub\n      dup2\n      add\n      swap1\n      tag_5\n      swap2\n      swap1\n      tag_6\n      jump\t// in\n    tag_5:\n      tag_7\n      jump\t// in\n    tag_4:\n      mload(0x40)\n      tag_8\n      swap2\n      swap1\n      tag_9\n      jump\t// in\n    tag_8:\n      mload(0x40)\n      dup1\n      swap2\n      sub\n      swap1\n      return\n    tag_7:\n        /* \"Contract-In-Dept/Struct-Types.sol\":652:670  uint256 campaignID */\n      0x00\n        /* \"Contract-In-Dept/Struct-Types.sol\":695:706  numCampaign */\n      dup1\n      0x00\n        /* \"Contract-In-Dept/Struct-Types.sol\":695:708  numCampaign++ */\n      dup2\n      sload\n      dup1\n      swap3\n      swap2\n      swap1\n      tag_11\n      swap1\n      tag_12\n      jump\t// in\n    tag_11:\n      swap2\n      swap1\n      pop\n      sstore\n        /* \"Contract-In-Dept/Struct-Types.sol\":682:708  campaignID = numCampaign++ */\n      swap1\n      pop\n        /* \"Contract-In-Dept/Struct-Types.sol\":743:761  Campaign storage c */\n      0x00\n        /* \"Contract-In-Dept/Struct-Types.sol\":764:773  campaigns */\n      0x01\n        /* \"Contract-In-Dept/Struct-Types.sol\":764:785  campaigns[campaignID] */\n      0x00\n        /* \"Contract-In-Dept/Struct-Types.sol\":774:784  campaignID */\n      dup4\n        /* \"Contract-In-Dept/Struct-Types.sol\":764:785  campaigns[campaignID] */\n      dup2\n      mstore\n      0x20\n      add\n      swap1\n      dup2\n      mstore\n      0x20\n      add\n      0x00\n      keccak256\n        /* \"Contract-In-Dept/Struct-Types.sol\":743:785  Campaign storage c = campaigns[campaignID] */\n      swap1\n      pop\n        /* \"Contract-In-Dept/Struct-Types.sol\":848:859  beneficiary */\n      dup4\n        /* \"Contract-In-Dept/Struct-Types.sol\":832:833  c */\n      dup2\n        /* \"Contract-In-Dept/Struct-Types.sol\":832:845  c.beneficiary */\n      0x00\n      add\n      0x00\n        /* \"Contract-In-Dept/Struct-Types.sol\":832:859  c.beneficiary = beneficiary */\n      0x0100\n      exp\n      dup2\n      sload\n      dup2\n      0xffffffffffffffffffffffffffffffffffffffff\n      mul\n      not\n      and\n      swap1\n      dup4\n      0xffffffffffffffffffffffffffffffffffffffff\n      and\n      mul\n      or\n      swap1\n      sstore\n      pop\n        /* \"Contract-In-Dept/Struct-Types.sol\":883:887  goal */\n      dup3\n        /* \"Contract-In-Dept/Struct-Types.sol\":870:871  c */\n      dup2\n        /* \"Contract-In-Dept/Struct-Types.sol\":870:880  c.fundGoal */\n      0x01\n      add\n        /* \"Contract-In-Dept/Struct-Types.sol\":870:887  c.fundGoal = goal */\n      dup2\n      swap1\n      sstore\n      pop\n        /* \"Contract-In-Dept/Struct-Types.sol\":671:895  {\r... */\n      pop\n        /* \"Contract-In-Dept/Struct-Types.sol\":573:895  function newCampaign(address payable beneficiary, uint256 goal) public returns(uint256 campaignID){\r... */\n      swap3\n      swap2\n      pop\n      pop\n      jump\t// out\n        /* \"#utility.yul\":7:162   */\n    tag_14:\n        /* \"#utility.yul\":61:66   */\n      0x00\n        /* \"#utility.yul\":99:105   */\n      dup2\n        /* \"#utility.yul\":86:106   */\n      calldataload\n        /* \"#utility.yul\":77:106   */\n      swap1\n      pop\n        /* \"#utility.yul\":115:156   */\n      tag_16\n        /* \"#utility.yul\":150:155   */\n      dup2\n        /* \"#utility.yul\":115:156   */\n      tag_17\n      jump\t// in\n    tag_16:\n        /* \"#utility.yul\":7:162   */\n      swap3\n      swap2\n      pop\n      pop\n      jump\t// out\n        /* \"#utility.yul\":168:307   */\n    tag_18:\n        /* \"#utility.yul\":214:219   */\n      0x00\n        /* \"#utility.yul\":252:258   */\n      dup2\n        /* \"#utility.yul\":239:259   */\n      calldataload\n        /* \"#utility.yul\":230:259   */\n      swap1\n      pop\n        /* \"#utility.yul\":268:301   */\n      tag_20\n        /* \"#utility.yul\":295:300   */\n      dup2\n        /* \"#utility.yul\":268:301   */\n      tag_21\n      jump\t// in\n    tag_20:\n        /* \"#utility.yul\":168:307   */\n      swap3\n      swap2\n      pop\n      pop\n      jump\t// out\n        /* \"#utility.yul\":313:803   */\n    tag_6:\n        /* \"#utility.yul\":389:395   */\n      0x00\n        /* \"#utility.yul\":397:403   */\n      dup1\n        /* \"#utility.yul\":446:448   */\n      0x40\n        /* \"#utility.yul\":434:443   */\n      dup4\n        /* \"#utility.yul\":425:432   */\n      dup6\n        /* \"#utility.yul\":421:444   */\n      sub\n        /* \"#utility.yul\":417:449   */\n      slt\n        /* \"#utility.yul\":414:533   */\n      iszero\n      tag_23\n      jumpi\n        /* \"#utility.yul\":452:531   */\n      tag_24\n      tag_25\n      jump\t// in\n    tag_24:\n        /* \"#utility.yul\":414:533   */\n    tag_23:\n        /* \"#utility.yul\":572:573   */\n      0x00\n        /* \"#utility.yul\":597:658   */\n      tag_26\n        /* \"#utility.yul\":650:657   */\n      dup6\n        /* \"#utility.yul\":641:647   */\n      dup3\n        /* \"#utility.yul\":630:639   */\n      dup7\n        /* \"#utility.yul\":626:648   */\n      add\n        /* \"#utility.yul\":597:658   */\n      tag_14\n      jump\t// in\n    tag_26:\n        /* \"#utility.yul\":587:658   */\n      swap3\n      pop\n        /* \"#utility.yul\":543:668   */\n      pop\n        /* \"#utility.yul\":707:709   */\n      0x20\n        /* \"#utility.yul\":733:786   */\n      tag_27\n        /* \"#utility.yul\":778:785   */\n      dup6\n        /* \"#utility.yul\":769:775   */\n      dup3\n        /* \"#utility.yul\":758:767   */\n      dup7\n        /* \"#utility.yul\":754:776   */\n      add\n        /* \"#utility.yul\":733:786   */\n      tag_18\n      jump\t// in\n    tag_27:\n        /* \"#utility.yul\":723:786   */\n      swap2\n      pop\n        /* \"#utility.yul\":678:796   */\n      pop\n        /* \"#utility.yul\":313:803   */\n      swap3\n      pop\n      swap3\n      swap1\n      pop\n      jump\t// out\n        /* \"#utility.yul\":809:927   */\n    tag_28:\n        /* \"#utility.yul\":896:920   */\n      tag_30\n        /* \"#utility.yul\":914:919   */\n      dup2\n        /* \"#utility.yul\":896:920   */\n      tag_31\n      jump\t// in\n    tag_30:\n        /* \"#utility.yul\":891:894   */\n      dup3\n        /* \"#utility.yul\":884:921   */\n      mstore\n        /* \"#utility.yul\":809:927   */\n      pop\n      pop\n      jump\t// out\n        /* \"#utility.yul\":933:1155   */\n    tag_9:\n        /* \"#utility.yul\":1026:1030   */\n      0x00\n        /* \"#utility.yul\":1064:1066   */\n      0x20\n        /* \"#utility.yul\":1053:1062   */\n      dup3\n        /* \"#utility.yul\":1049:1067   */\n      add\n        /* \"#utility.yul\":1041:1067   */\n      swap1\n      pop\n        /* \"#utility.yul\":1077:1148   */\n      tag_33\n        /* \"#utility.yul\":1145:1146   */\n      0x00\n        /* \"#utility.yul\":1134:1143   */\n      dup4\n        /* \"#utility.yul\":1130:1147   */\n      add\n        /* \"#utility.yul\":1121:1127   */\n      dup5\n        /* \"#utility.yul\":1077:1148   */\n      tag_28\n      jump\t// in\n    tag_33:\n        /* \"#utility.yul\":933:1155   */\n      swap3\n      swap2\n      pop\n      pop\n      jump\t// out\n        /* \"#utility.yul\":1242:1346   */\n    tag_36:\n        /* \"#utility.yul\":1287:1294   */\n      0x00\n        /* \"#utility.yul\":1316:1340   */\n      tag_38\n        /* \"#utility.yul\":1334:1339   */\n      dup3\n        /* \"#utility.yul\":1316:1340   */\n      tag_39\n      jump\t// in\n    tag_38:\n        /* \"#utility.yul\":1305:1340   */\n      swap1\n      pop\n        /* \"#utility.yul\":1242:1346   */\n      swap2\n      swap1\n      pop\n      jump\t// out\n        /* \"#utility.yul\":1352:1478   */\n    tag_39:\n        /* \"#utility.yul\":1389:1396   */\n      0x00\n        /* \"#utility.yul\":1429:1471   */\n      0xffffffffffffffffffffffffffffffffffffffff\n        /* \"#utility.yul\":1422:1427   */\n      dup3\n        /* \"#utility.yul\":1418:1472   */\n      and\n        /* \"#utility.yul\":1407:1472   */\n      swap1\n      pop\n        /* \"#utility.yul\":1352:1478   */\n      swap2\n      swap1\n      pop\n      jump\t// out\n        /* \"#utility.yul\":1484:1561   */\n    tag_31:\n        /* \"#utility.yul\":1521:1528   */\n      0x00\n        /* \"#utility.yul\":1550:1555   */\n      dup2\n        /* \"#utility.yul\":1539:1555   */\n      swap1\n      pop\n        /* \"#utility.yul\":1484:1561   */\n      swap2\n      swap1\n      pop\n      jump\t// out\n        /* \"#utility.yul\":1567:1800   */\n    tag_12:\n        /* \"#utility.yul\":1606:1609   */\n      0x00\n        /* \"#utility.yul\":1629:1653   */\n      tag_43\n        /* \"#utility.yul\":1647:1652   */\n      dup3\n        /* \"#utility.yul\":1629:1653   */\n      tag_31\n      jump\t// in\n    tag_43:\n        /* \"#utility.yul\":1620:1653   */\n      swap2\n      pop\n        /* \"#utility.yul\":1675:1741   */\n      0xffffffffffffffffffffffffffffffffffffffffffffffffffffffffffffffff\n        /* \"#utility.yul\":1668:1673   */\n      dup3\n        /* \"#utility.yul\":1665:1742   */\n      eq\n        /* \"#utility.yul\":1662:1765   */\n      iszero\n      tag_44\n      jumpi\n        /* \"#utility.yul\":1745:1763   */\n      tag_45\n      tag_46\n      jump\t// in\n    tag_45:\n        /* \"#utility.yul\":1662:1765   */\n    tag_44:\n        /* \"#utility.yul\":1792:1793   */\n      0x01\n        /* \"#utility.yul\":1785:1790   */\n      dup3\n        /* \"#utility.yul\":1781:1794   */\n      add\n        /* \"#utility.yul\":1774:1794   */\n      swap1\n      pop\n        /* \"#utility.yul\":1567:1800   */\n      swap2\n      swap1\n      pop\n      jump\t// out\n        /* \"#utility.yul\":1806:1986   */\n    tag_46:\n        /* \"#utility.yul\":1854:1931   */\n      0x4e487b7100000000000000000000000000000000000000000000000000000000\n        /* \"#utility.yul\":1851:1852   */\n      0x00\n        /* \"#utility.yul\":1844:1932   */\n      mstore\n        /* \"#utility.yul\":1951:1955   */\n      0x11\n        /* \"#utility.yul\":1948:1949   */\n      0x04\n        /* \"#utility.yul\":1941:1956   */\n      mstore\n        /* \"#utility.yul\":1975:1979   */\n      0x24\n        /* \"#utility.yul\":1972:1973   */\n      0x00\n        /* \"#utility.yul\":1965:1980   */\n      revert\n        /* \"#utility.yul\":2115:2232   */\n    tag_25:\n        /* \"#utility.yul\":2224:2225   */\n      0x00\n        /* \"#utility.yul\":2221:2222   */\n      dup1\n        /* \"#utility.yul\":2214:2226   */\n      revert\n        /* \"#utility.yul\":2238:2376   */\n    tag_17:\n        /* \"#utility.yul\":2319:2351   */\n      tag_52\n        /* \"#utility.yul\":2345:2350   */\n      dup2\n        /* \"#utility.yul\":2319:2351   */\n      tag_36\n      jump\t// in\n    tag_52:\n        /* \"#utility.yul\":2312:2317   */\n      dup2\n        /* \"#utility.yul\":2309:2352   */\n      eq\n        /* \"#utility.yul\":2299:2370   */\n      tag_53\n      jumpi\n        /* \"#utility.yul\":2366:2367   */\n      0x00\n        /* \"#utility.yul\":2363:2364   */\n      dup1\n        /* \"#utility.yul\":2356:2368   */\n      revert\n        /* \"#utility.yul\":2299:2370   */\n    tag_53:\n        /* \"#utility.yul\":2238:2376   */\n      pop\n      jump\t// out\n        /* \"#utility.yul\":2382:2504   */\n    tag_21:\n        /* \"#utility.yul\":2455:2479   */\n      tag_55\n        /* \"#utility.yul\":2473:2478   */\n      dup2\n        /* \"#utility.yul\":2455:2479   */\n      tag_31\n      jump\t// in\n    tag_55:\n        /* \"#utility.yul\":2448:2453   */\n      dup2\n        /* \"#utility.yul\":2445:2480   */\n      eq\n        /* \"#utility.yul\":2435:2498   */\n      tag_56\n      jumpi\n        /* \"#utility.yul\":2494:2495   */\n      0x00\n        /* \"#utility.yul\":2491:2492   */\n      dup1\n        /* \"#utility.yul\":2484:2496   */\n      revert\n        /* \"#utility.yul\":2435:2498   */\n    tag_56:\n        /* \"#utility.yul\":2382:2504   */\n      pop\n      jump\t// out\n\n    auxdata: 0xa264697066735822122020ae6008173061249b1fc95cc42ba1c5ad356fb947ceb2bc73da10b15dd435d364736f6c63430008070033\n}\n",
				"bytecode": {
					"linkReferences": {},
					"object": "608060405234801561001057600080fd5b50610295806100206000396000f3fe608060405234801561001057600080fd5b506004361061002b5760003560e01c8063f7572cf314610030575b600080fd5b61004a6004803603810190610045919061010e565b610060565b604051610057919061015d565b60405180910390f35b6000806000815480929190610074906101b4565b9190505590506000600160008381526020019081526020016000209050838160000160006101000a81548173ffffffffffffffffffffffffffffffffffffffff021916908373ffffffffffffffffffffffffffffffffffffffff1602179055508281600101819055505092915050565b6000813590506100f381610231565b92915050565b60008135905061010881610248565b92915050565b600080604083850312156101255761012461022c565b5b6000610133858286016100e4565b9250506020610144858286016100f9565b9150509250929050565b610157816101aa565b82525050565b6000602082019050610172600083018461014e565b92915050565b60006101838261018a565b9050919050565b600073ffffffffffffffffffffffffffffffffffffffff82169050919050565b6000819050919050565b60006101bf826101aa565b91507fffffffffffffffffffffffffffffffffffffffffffffffffffffffffffffffff8214156101f2576101f16101fd565b5b600182019050919050565b7f4e487b7100000000000000000000000000000000000000000000000000000000600052601160045260246000fd5b600080fd5b61023a81610178565b811461024557600080fd5b50565b610251816101aa565b811461025c57600080fd5b5056fea264697066735822122020ae6008173061249b1fc95cc42ba1c5ad356fb947ceb2bc73da10b15dd435d364736f6c63430008070033",
					"opcodes": "PUSH1 0x80 PUSH1 0x40 MSTORE CALLVALUE DUP1 ISZERO PUSH2 0x10 JUMPI PUSH1 0x0 DUP1 REVERT JUMPDEST POP PUSH2 0x295 DUP1 PUSH2 0x20 PUSH1 0x0 CODECOPY PUSH1 0x0 RETURN INVALID PUSH1 0x80 PUSH1 0x40 MSTORE CALLVALUE DUP1 ISZERO PUSH2 0x10 JUMPI PUSH1 0x0 DUP1 REVERT JUMPDEST POP PUSH1 0x4 CALLDATASIZE LT PUSH2 0x2B JUMPI PUSH1 0x0 CALLDATALOAD PUSH1 0xE0 SHR DUP1 PUSH4 0xF7572CF3 EQ PUSH2 0x30 JUMPI JUMPDEST PUSH1 0x0 DUP1 REVERT JUMPDEST PUSH2 0x4A PUSH1 0x4 DUP1 CALLDATASIZE SUB DUP2 ADD SWAP1 PUSH2 0x45 SWAP2 SWAP1 PUSH2 0x10E JUMP JUMPDEST PUSH2 0x60 JUMP JUMPDEST PUSH1 0x40 MLOAD PUSH2 0x57 SWAP2 SWAP1 PUSH2 0x15D JUMP JUMPDEST PUSH1 0x40 MLOAD DUP1 SWAP2 SUB SWAP1 RETURN JUMPDEST PUSH1 0x0 DUP1 PUSH1 0x0 DUP2 SLOAD DUP1 SWAP3 SWAP2 SWAP1 PUSH2 0x74 SWAP1 PUSH2 0x1B4 JUMP JUMPDEST SWAP2 SWAP1 POP SSTORE SWAP1 POP PUSH1 0x0 PUSH1 0x1 PUSH1 0x0 DUP4 DUP2 MSTORE PUSH1 0x20 ADD SWAP1 DUP2 MSTORE PUSH1 0x20 ADD PUSH1 0x0 KECCAK256 SWAP1 POP DUP4 DUP2 PUSH1 0x0 ADD PUSH1 0x0 PUSH2 0x100 EXP DUP2 SLOAD DUP2 PUSH20 0xFFFFFFFFFFFFFFFFFFFFFFFFFFFFFFFFFFFFFFFF MUL NOT AND SWAP1 DUP4 PUSH20 0xFFFFFFFFFFFFFFFFFFFFFFFFFFFFFFFFFFFFFFFF AND MUL OR SWAP1 SSTORE POP DUP3 DUP2 PUSH1 0x1 ADD DUP2 SWAP1 SSTORE POP POP SWAP3 SWAP2 POP POP JUMP JUMPDEST PUSH1 0x0 DUP2 CALLDATALOAD SWAP1 POP PUSH2 0xF3 DUP2 PUSH2 0x231 JUMP JUMPDEST SWAP3 SWAP2 POP POP JUMP JUMPDEST PUSH1 0x0 DUP2 CALLDATALOAD SWAP1 POP PUSH2 0x108 DUP2 PUSH2 0x248 JUMP JUMPDEST SWAP3 SWAP2 POP POP JUMP JUMPDEST PUSH1 0x0 DUP1 PUSH1 0x40 DUP4 DUP6 SUB SLT ISZERO PUSH2 0x125 JUMPI PUSH2 0x124 PUSH2 0x22C JUMP JUMPDEST JUMPDEST PUSH1 0x0 PUSH2 0x133 DUP6 DUP3 DUP7 ADD PUSH2 0xE4 JUMP JUMPDEST SWAP3 POP POP PUSH1 0x20 PUSH2 0x144 DUP6 DUP3 DUP7 ADD PUSH2 0xF9 JUMP JUMPDEST SWAP2 POP POP SWAP3 POP SWAP3 SWAP1 POP JUMP JUMPDEST PUSH2 0x157 DUP2 PUSH2 0x1AA JUMP JUMPDEST DUP3 MSTORE POP POP JUMP JUMPDEST PUSH1 0x0 PUSH1 0x20 DUP3 ADD SWAP1 POP PUSH2 0x172 PUSH1 0x0 DUP4 ADD DUP5 PUSH2 0x14E JUMP JUMPDEST SWAP3 SWAP2 POP POP JUMP JUMPDEST PUSH1 0x0 PUSH2 0x183 DUP3 PUSH2 0x18A JUMP JUMPDEST SWAP1 POP SWAP2 SWAP1 POP JUMP JUMPDEST PUSH1 0x0 PUSH20 0xFFFFFFFFFFFFFFFFFFFFFFFFFFFFFFFFFFFFFFFF DUP3 AND SWAP1 POP SWAP2 SWAP1 POP JUMP JUMPDEST PUSH1 0x0 DUP2 SWAP1 POP SWAP2 SWAP1 POP JUMP JUMPDEST PUSH1 0x0 PUSH2 0x1BF DUP3 PUSH2 0x1AA JUMP JUMPDEST SWAP2 POP PUSH32 0xFFFFFFFFFFFFFFFFFFFFFFFFFFFFFFFFFFFFFFFFFFFFFFFFFFFFFFFFFFFFFFFF DUP3 EQ ISZERO PUSH2 0x1F2 JUMPI PUSH2 0x1F1 PUSH2 0x1FD JUMP JUMPDEST JUMPDEST PUSH1 0x1 DUP3 ADD SWAP1 POP SWAP2 SWAP1 POP JUMP JUMPDEST PUSH32 0x4E487B7100000000000000000000000000000000000000000000000000000000 PUSH1 0x0 MSTORE PUSH1 0x11 PUSH1 0x4 MSTORE PUSH1 0x24 PUSH1 0x0 REVERT JUMPDEST PUSH1 0x0 DUP1 REVERT JUMPDEST PUSH2 0x23A DUP2 PUSH2 0x178 JUMP JUMPDEST DUP2 EQ PUSH2 0x245 JUMPI PUSH1 0x0 DUP1 REVERT JUMPDEST POP JUMP JUMPDEST PUSH2 0x251 DUP2 PUSH2 0x1AA JUMP JUMPDEST DUP2 EQ PUSH2 0x25C JUMPI PUSH1 0x0 DUP1 REVERT JUMPDEST POP JUMP INVALID LOG2 PUSH5 0x6970667358 0x22 SLT KECCAK256 KECCAK256 0xAE PUSH1 0x8 OR ADDRESS PUSH2 0x249B 0x1F 0xC9 0x5C 0xC4 0x2B LOG1 0xC5 0xAD CALLDATALOAD PUSH16 0xB947CEB2BC73DA10B15DD435D364736F PUSH13 0x63430008070033000000000000 "
				},
				"gasEstimates": {
					"creation": {
						"codeDepositCost": "132200",
						"executionCost": "177",
						"totalCost": "132377"
					},
					"external": {
						"newCampaign(address,uint256)": "infinite"
					}
				},
				"methodIdentifiers": {
					"newCampaign(address,uint256)": "f7572cf3"
				}
			},
			"storageLayout": {
				"storage": [
					{
						"astId": 22,
						"contract": "Contract-In-Dept/Struct-Types.sol:Funding",
						"label": "numCampaign",
						"offset": 0,
						"slot": "0",
						"type": "t_uint256"
					},
					{
						"astId": 27,
						"contract": "Contract-In-Dept/Struct-Types.sol:Funding",
						"label": "campaigns",
						"offset": 0,
						"slot": "1",
						"type": "t_mapping(t_uint256,t_struct(Campaign)20_storage)"
					}
				],
				"types": {
					"t_address": {
						"encoding": "inplace",
						"label": "address",
						"numberOfBytes": "20"
					},
					"t_address_payable": {
						"encoding": "inplace",
						"label": "address payable",
						"numberOfBytes": "20"
					},
					"t_mapping(t_uint256,t_struct(Campaign)20_storage)": {
						"encoding": "mapping",
						"key": "t_uint256",
						"label": "mapping(uint256 => struct Funding.Campaign)",
						"numberOfBytes": "32",
						"value": "t_struct(Campaign)20_storage"
					},
					"t_mapping(t_uint256,t_struct(Owner)6_storage)": {
						"encoding": "mapping",
						"key": "t_uint256",
						"label": "mapping(uint256 => struct Owner)",
						"numberOfBytes": "32",
						"value": "t_struct(Owner)6_storage"
					},
					"t_struct(Campaign)20_storage": {
						"encoding": "inplace",
						"label": "struct Funding.Campaign",
						"members": [
							{
								"astId": 8,
								"contract": "Contract-In-Dept/Struct-Types.sol:Funding",
								"label": "beneficiary",
								"offset": 0,
								"slot": "0",
								"type": "t_address_payable"
							},
							{
								"astId": 10,
								"contract": "Contract-In-Dept/Struct-Types.sol:Funding",
								"label": "fundGoal",
								"offset": 0,
								"slot": "1",
								"type": "t_uint256"
							},
							{
								"astId": 12,
								"contract": "Contract-In-Dept/Struct-Types.sol:Funding",
								"label": "numFunders",
								"offset": 0,
								"slot": "2",
								"type": "t_uint256"
							},
							{
								"astId": 14,
								"contract": "Contract-In-Dept/Struct-Types.sol:Funding",
								"label": "amount",
								"offset": 0,
								"slot": "3",
								"type": "t_uint256"
							},
							{
								"astId": 19,
								"contract": "Contract-In-Dept/Struct-Types.sol:Funding",
								"label": "owners",
								"offset": 0,
								"slot": "4",
								"type": "t_mapping(t_uint256,t_struct(Owner)6_storage)"
							}
						],
						"numberOfBytes": "160"
					},
					"t_struct(Owner)6_storage": {
						"encoding": "inplace",
						"label": "struct Owner",
						"members": [
							{
								"astId": 3,
								"contract": "Contract-In-Dept/Struct-Types.sol:Funding",
								"label": "addr",
								"offset": 0,
								"slot": "0",
								"type": "t_address"
							},
							{
								"astId": 5,
								"contract": "Contract-In-Dept/Struct-Types.sol:Funding",
								"label": "amount",
								"offset": 0,
								"slot": "1",
								"type": "t_uint256"
							}
						],
						"numberOfBytes": "64"
					},
					"t_uint256": {
						"encoding": "inplace",
						"label": "uint256",
						"numberOfBytes": "32"
					}
				}
			},
			"userdoc": {
				"kind": "user",
				"methods": {},
				"version": 1
			}
		}
	}
}