{
	"Contract-In-Dept/Enum-Types.sol": {
		"Enum": {
			"abi": [
				{
					"inputs": [],
					"name": "getnumWalk",
					"outputs": [
						{
							"internalType": "uint256",
							"name": "",
							"type": "uint256"
						}
					],
					"stateMutability": "pure",
					"type": "function"
				},
				{
					"inputs": [],
					"name": "setmoveForward",
					"outputs": [],
					"stateMutability": "nonpayable",
					"type": "function"
				}
			],
			"devdoc": {
				"kind": "dev",
				"methods": {},
				"version": 1
			},
			"evm": {
				"assembly": "    /* \"Contract-In-Dept/Enum-Types.sol\":72:569  contract Enum {\r... */\n  mstore(0x40, 0x80)\n  callvalue\n  dup1\n  iszero\n  tag_1\n  jumpi\n  0x00\n  dup1\n  revert\ntag_1:\n  pop\n  dataSize(sub_0)\n  dup1\n  dataOffset(sub_0)\n  0x00\n  codecopy\n  0x00\n  return\nstop\n\nsub_0: assembly {\n        /* \"Contract-In-Dept/Enum-Types.sol\":72:569  contract Enum {\r... */\n      mstore(0x40, 0x80)\n      callvalue\n      dup1\n      iszero\n      tag_1\n      jumpi\n      0x00\n      dup1\n      revert\n    tag_1:\n      pop\n      jumpi(tag_2, lt(calldatasize, 0x04))\n      shr(0xe0, calldataload(0x00))\n      dup1\n      0x544814e9\n      eq\n      tag_3\n      jumpi\n      dup1\n      0x65aafc4b\n      eq\n      tag_4\n      jumpi\n    tag_2:\n      0x00\n      dup1\n      revert\n        /* \"Contract-In-Dept/Enum-Types.sol\":474:566  function getnumWalk() public pure returns(uint256){\r... */\n    tag_3:\n      tag_5\n      tag_6\n      jump\t// in\n    tag_5:\n      mload(0x40)\n      tag_7\n      swap2\n      swap1\n      tag_8\n      jump\t// in\n    tag_7:\n      mload(0x40)\n      dup1\n      swap2\n      sub\n      swap1\n      return\n        /* \"Contract-In-Dept/Enum-Types.sol\":392:468  function setmoveForward() public{\r... */\n    tag_4:\n      tag_9\n      tag_10\n      jump\t// in\n    tag_9:\n      stop\n        /* \"Contract-In-Dept/Enum-Types.sol\":474:566  function getnumWalk() public pure returns(uint256){\r... */\n    tag_6:\n        /* \"Contract-In-Dept/Enum-Types.sol\":516:523  uint256 */\n      0x00\n        /* \"Contract-In-Dept/Enum-Types.sol\":367:385  MoveMe.moveForward */\n      0x03\n        /* \"Contract-In-Dept/Enum-Types.sol\":542:558  uint256(numWalk) */\n      0x04\n      dup2\n      gt\n      iszero\n      tag_12\n      jumpi\n      tag_13\n      tag_14\n      jump\t// in\n    tag_13:\n    tag_12:\n        /* \"Contract-In-Dept/Enum-Types.sol\":535:558  return uint256(numWalk) */\n      swap1\n      pop\n        /* \"Contract-In-Dept/Enum-Types.sol\":474:566  function getnumWalk() public pure returns(uint256){\r... */\n      swap1\n      jump\t// out\n        /* \"Contract-In-Dept/Enum-Types.sol\":392:468  function setmoveForward() public{\r... */\n    tag_10:\n        /* \"Contract-In-Dept/Enum-Types.sol\":442:460  MoveMe.moveForward */\n      0x03\n        /* \"Contract-In-Dept/Enum-Types.sol\":435:439  walk */\n      0x00\n      dup1\n        /* \"Contract-In-Dept/Enum-Types.sol\":435:460  walk = MoveMe.moveForward */\n      0x0100\n      exp\n      dup2\n      sload\n      dup2\n      0xff\n      mul\n      not\n      and\n      swap1\n      dup4\n      0x04\n      dup2\n      gt\n      iszero\n      tag_16\n      jumpi\n      tag_17\n      tag_14\n      jump\t// in\n    tag_17:\n    tag_16:\n      mul\n      or\n      swap1\n      sstore\n      pop\n        /* \"Contract-In-Dept/Enum-Types.sol\":392:468  function setmoveForward() public{\r... */\n      jump\t// out\n        /* \"#utility.yul\":7:125   */\n    tag_19:\n        /* \"#utility.yul\":94:118   */\n      tag_21\n        /* \"#utility.yul\":112:117   */\n      dup2\n        /* \"#utility.yul\":94:118   */\n      tag_22\n      jump\t// in\n    tag_21:\n        /* \"#utility.yul\":89:92   */\n      dup3\n        /* \"#utility.yul\":82:119   */\n      mstore\n        /* \"#utility.yul\":7:125   */\n      pop\n      pop\n      jump\t// out\n        /* \"#utility.yul\":131:353   */\n    tag_8:\n        /* \"#utility.yul\":224:228   */\n      0x00\n        /* \"#utility.yul\":262:264   */\n      0x20\n        /* \"#utility.yul\":251:260   */\n      dup3\n        /* \"#utility.yul\":247:265   */\n      add\n        /* \"#utility.yul\":239:265   */\n      swap1\n      pop\n        /* \"#utility.yul\":275:346   */\n      tag_24\n        /* \"#utility.yul\":343:344   */\n      0x00\n        /* \"#utility.yul\":332:341   */\n      dup4\n        /* \"#utility.yul\":328:345   */\n      add\n        /* \"#utility.yul\":319:325   */\n      dup5\n        /* \"#utility.yul\":275:346   */\n      tag_19\n      jump\t// in\n    tag_24:\n        /* \"#utility.yul\":131:353   */\n      swap3\n      swap2\n      pop\n      pop\n      jump\t// out\n        /* \"#utility.yul\":359:436   */\n    tag_22:\n        /* \"#utility.yul\":396:403   */\n      0x00\n        /* \"#utility.yul\":425:430   */\n      dup2\n        /* \"#utility.yul\":414:430   */\n      swap1\n      pop\n        /* \"#utility.yul\":359:436   */\n      swap2\n      swap1\n      pop\n      jump\t// out\n        /* \"#utility.yul\":442:622   */\n    tag_14:\n        /* \"#utility.yul\":490:567   */\n      0x4e487b7100000000000000000000000000000000000000000000000000000000\n        /* \"#utility.yul\":487:488   */\n      0x00\n        /* \"#utility.yul\":480:568   */\n      mstore\n        /* \"#utility.yul\":587:591   */\n      0x21\n        /* \"#utility.yul\":584:585   */\n      0x04\n        /* \"#utility.yul\":577:592   */\n      mstore\n        /* \"#utility.yul\":611:615   */\n      0x24\n        /* \"#utility.yul\":608:609   */\n      0x00\n        /* \"#utility.yul\":601:616   */\n      revert\n\n    auxdata: 0xa264697066735822122040ce6e9b099705f9c86eee66c6a86f4df44f2ebd9a12166a3ff066d18ddfdb7164736f6c63430008070033\n}\n",
				"bytecode": {
					"linkReferences": {},
					"object": "608060405234801561001057600080fd5b5061012f806100206000396000f3fe6080604052348015600f57600080fd5b506004361060325760003560e01c8063544814e914603757806365aafc4b146051575b600080fd5b603d6059565b6040516048919060a7565b60405180910390f35b60576071565b005b600060036004811115606c57606b60ca565b5b905090565b60036000806101000a81548160ff02191690836004811115609357609260ca565b5b0217905550565b60a18160c0565b82525050565b600060208201905060ba6000830184609a565b92915050565b6000819050919050565b7f4e487b7100000000000000000000000000000000000000000000000000000000600052602160045260246000fdfea264697066735822122040ce6e9b099705f9c86eee66c6a86f4df44f2ebd9a12166a3ff066d18ddfdb7164736f6c63430008070033",
					"opcodes": "PUSH1 0x80 PUSH1 0x40 MSTORE CALLVALUE DUP1 ISZERO PUSH2 0x10 JUMPI PUSH1 0x0 DUP1 REVERT JUMPDEST POP PUSH2 0x12F DUP1 PUSH2 0x20 PUSH1 0x0 CODECOPY PUSH1 0x0 RETURN INVALID PUSH1 0x80 PUSH1 0x40 MSTORE CALLVALUE DUP1 ISZERO PUSH1 0xF JUMPI PUSH1 0x0 DUP1 REVERT JUMPDEST POP PUSH1 0x4 CALLDATASIZE LT PUSH1 0x32 JUMPI PUSH1 0x0 CALLDATALOAD PUSH1 0xE0 SHR DUP1 PUSH4 0x544814E9 EQ PUSH1 0x37 JUMPI DUP1 PUSH4 0x65AAFC4B EQ PUSH1 0x51 JUMPI JUMPDEST PUSH1 0x0 DUP1 REVERT JUMPDEST PUSH1 0x3D PUSH1 0x59 JUMP JUMPDEST PUSH1 0x40 MLOAD PUSH1 0x48 SWAP2 SWAP1 PUSH1 0xA7 JUMP JUMPDEST PUSH1 0x40 MLOAD DUP1 SWAP2 SUB SWAP1 RETURN JUMPDEST PUSH1 0x57 PUSH1 0x71 JUMP JUMPDEST STOP JUMPDEST PUSH1 0x0 PUSH1 0x3 PUSH1 0x4 DUP2 GT ISZERO PUSH1 0x6C JUMPI PUSH1 0x6B PUSH1 0xCA JUMP JUMPDEST JUMPDEST SWAP1 POP SWAP1 JUMP JUMPDEST PUSH1 0x3 PUSH1 0x0 DUP1 PUSH2 0x100 EXP DUP2 SLOAD DUP2 PUSH1 0xFF MUL NOT AND SWAP1 DUP4 PUSH1 0x4 DUP2 GT ISZERO PUSH1 0x93 JUMPI PUSH1 0x92 PUSH1 0xCA JUMP JUMPDEST JUMPDEST MUL OR SWAP1 SSTORE POP JUMP JUMPDEST PUSH1 0xA1 DUP2 PUSH1 0xC0 JUMP JUMPDEST DUP3 MSTORE POP POP JUMP JUMPDEST PUSH1 0x0 PUSH1 0x20 DUP3 ADD SWAP1 POP PUSH1 0xBA PUSH1 0x0 DUP4 ADD DUP5 PUSH1 0x9A JUMP JUMPDEST SWAP3 SWAP2 POP POP JUMP JUMPDEST PUSH1 0x0 DUP2 SWAP1 POP SWAP2 SWAP1 POP JUMP JUMPDEST PUSH32 0x4E487B7100000000000000000000000000000000000000000000000000000000 PUSH1 0x0 MSTORE PUSH1 0x21 PUSH1 0x4 MSTORE PUSH1 0x24 PUSH1 0x0 REVERT INVALID LOG2 PUSH5 0x6970667358 0x22 SLT KECCAK256 BLOCKHASH 0xCE PUSH15 0x9B099705F9C86EEE66C6A86F4DF44F 0x2E 0xBD SWAP11 SLT AND PUSH11 0x3FF066D18DDFDB7164736F PUSH13 0x63430008070033000000000000 "
				},
				"gasEstimates": {
					"creation": {
						"codeDepositCost": "60600",
						"executionCost": "111",
						"totalCost": "60711"
					},
					"external": {
						"getnumWalk()": "341",
						"setmoveForward()": "24431"
					}
				},
				"methodIdentifiers": {
					"getnumWalk()": "544814e9",
					"setmoveForward()": "65aafc4b"
				}
			},
			"storageLayout": {
				"storage": [
					{
						"astId": 10,
						"contract": "Contract-In-Dept/Enum-Types.sol:Enum",
						"label": "walk",
						"offset": 0,
						"slot": "0",
						"type": "t_enum(MoveMe)7"
					}
				],
				"types": {
					"t_enum(MoveMe)7": {
						"encoding": "inplace",
						"label": "enum Enum.MoveMe",
						"numberOfBytes": "1"
					}
				}
			},
			"userdoc": {
				"kind": "user",
				"methods": {},
				"version": 1
			}
		}
	}
}