{
	"Contract-In-Dept/Types.sol": {
		"Types": {
			"abi": [
				{
					"inputs": [],
					"name": "Enum",
					"outputs": [
						{
							"internalType": "enum Types.my_enum",
							"name": "",
							"type": "uint8"
						}
					],
					"stateMutability": "pure",
					"type": "function"
				},
				{
					"inputs": [],
					"name": "b",
					"outputs": [
						{
							"internalType": "bytes",
							"name": "",
							"type": "bytes"
						}
					],
					"stateMutability": "view",
					"type": "function"
				},
				{
					"inputs": [],
					"name": "boolean",
					"outputs": [
						{
							"internalType": "bool",
							"name": "",
							"type": "bool"
						}
					],
					"stateMutability": "view",
					"type": "function"
				},
				{
					"inputs": [],
					"name": "int_var",
					"outputs": [
						{
							"internalType": "int32",
							"name": "",
							"type": "int32"
						}
					],
					"stateMutability": "view",
					"type": "function"
				},
				{
					"inputs": [],
					"name": "str",
					"outputs": [
						{
							"internalType": "string",
							"name": "",
							"type": "string"
						}
					],
					"stateMutability": "view",
					"type": "function"
				}
			],
			"devdoc": {
				"kind": "dev",
				"methods": {},
				"version": 1
			},
			"evm": {
				"assembly": "    /* \"Contract-In-Dept/Types.sol\":93:648  contract Types{\r... */\n  mstore(0x40, 0x80)\n    /* \"Contract-In-Dept/Types.sol\":170:174  true */\n  0x01\n    /* \"Contract-In-Dept/Types.sol\":148:174  bool public boolean = true */\n  0x00\n  dup1\n  0x0100\n  exp\n  dup2\n  sload\n  dup2\n  0xff\n  mul\n  not\n  and\n  swap1\n  dup4\n  iszero\n  iszero\n  mul\n  or\n  swap1\n  sstore\n  pop\n    /* \"Contract-In-Dept/Types.sol\":255:261  -60432 */\n  0xffffffffffffffffffffffffffffffffffffffffffffffffffffffffffff13f0\n    /* \"Contract-In-Dept/Types.sol\":232:261  int32 public int_var = -60432 */\n  0x00\n  exp(0x0100, 0x01)\n  dup2\n  sload\n  dup2\n  0xffffffff\n  mul\n  not\n  and\n  swap1\n  dup4\n  0x03\n  signextend\n  0xffffffff\n  and\n  mul\n  or\n  swap1\n  sstore\n  pop\n    /* \"Contract-In-Dept/Types.sol\":301:331  string public str = \"Solidity\" */\n  mload(0x40)\n  dup1\n  0x40\n  add\n  0x40\n  mstore\n  dup1\n  0x08\n  dup2\n  mstore\n  0x20\n  add\n  0x536f6c6964697479000000000000000000000000000000000000000000000000\n  dup2\n  mstore\n  pop\n  0x01\n  swap1\n  dup1\n  mload\n  swap1\n  0x20\n  add\n  swap1\n  tag_1\n  swap3\n  swap2\n  swap1\n  tag_2\n  jump\t// in\ntag_1:\n  pop\n    /* \"Contract-In-Dept/Types.sol\":369:389  bytes public b = \"a\" */\n  mload(0x40)\n  dup1\n  0x40\n  add\n  0x40\n  mstore\n  dup1\n  0x01\n  dup2\n  mstore\n  0x20\n  add\n  0x6100000000000000000000000000000000000000000000000000000000000000\n  dup2\n  mstore\n  pop\n  0x02\n  swap1\n  dup1\n  mload\n  swap1\n  0x20\n  add\n  swap1\n  tag_3\n  swap3\n  swap2\n  swap1\n  tag_4\n  jump\t// in\ntag_3:\n  pop\n    /* \"Contract-In-Dept/Types.sol\":93:648  contract Types{\r... */\n  callvalue\n  dup1\n  iszero\n  tag_5\n  jumpi\n  0x00\n  dup1\n  revert\ntag_5:\n  pop\n  jump(tag_6)\ntag_2:\n  dup3\n  dup1\n  sload\n  tag_7\n  swap1\n  tag_8\n  jump\t// in\ntag_7:\n  swap1\n  0x00\n  mstore\n  keccak256(0x00, 0x20)\n  swap1\n  0x1f\n  add\n  0x20\n  swap1\n  div\n  dup2\n  add\n  swap3\n  dup3\n  tag_10\n  jumpi\n  0x00\n  dup6\n  sstore\n  jump(tag_9)\ntag_10:\n  dup3\n  0x1f\n  lt\n  tag_11\n  jumpi\n  dup1\n  mload\n  not(0xff)\n  and\n  dup4\n  dup1\n  add\n  or\n  dup6\n  sstore\n  jump(tag_9)\ntag_11:\n  dup3\n  dup1\n  add\n  0x01\n  add\n  dup6\n  sstore\n  dup3\n  iszero\n  tag_9\n  jumpi\n  swap2\n  dup3\n  add\ntag_12:\n  dup3\n  dup2\n  gt\n  iszero\n  tag_13\n  jumpi\n  dup3\n  mload\n  dup3\n  sstore\n  swap2\n  0x20\n  add\n  swap2\n  swap1\n  0x01\n  add\n  swap1\n  jump(tag_12)\ntag_13:\ntag_9:\n  pop\n  swap1\n  pop\n  tag_14\n  swap2\n  swap1\n  tag_15\n  jump\t// in\ntag_14:\n  pop\n  swap1\n  jump\t// out\ntag_4:\n  dup3\n  dup1\n  sload\n  tag_16\n  swap1\n  tag_8\n  jump\t// in\ntag_16:\n  swap1\n  0x00\n  mstore\n  keccak256(0x00, 0x20)\n  swap1\n  0x1f\n  add\n  0x20\n  swap1\n  div\n  dup2\n  add\n  swap3\n  dup3\n  tag_18\n  jumpi\n  0x00\n  dup6\n  sstore\n  jump(tag_17)\ntag_18:\n  dup3\n  0x1f\n  lt\n  tag_19\n  jumpi\n  dup1\n  mload\n  not(0xff)\n  and\n  dup4\n  dup1\n  add\n  or\n  dup6\n  sstore\n  jump(tag_17)\ntag_19:\n  dup3\n  dup1\n  add\n  0x01\n  add\n  dup6\n  sstore\n  dup3\n  iszero\n  tag_17\n  jumpi\n  swap2\n  dup3\n  add\ntag_20:\n  dup3\n  dup2\n  gt\n  iszero\n  tag_21\n  jumpi\n  dup3\n  mload\n  dup3\n  sstore\n  swap2\n  0x20\n  add\n  swap2\n  swap1\n  0x01\n  add\n  swap1\n  jump(tag_20)\ntag_21:\ntag_17:\n  pop\n  swap1\n  pop\n  tag_22\n  swap2\n  swap1\n  tag_15\n  jump\t// in\ntag_22:\n  pop\n  swap1\n  jump\t// out\ntag_15:\ntag_23:\n  dup1\n  dup3\n  gt\n  iszero\n  tag_24\n  jumpi\n  0x00\n  dup2\n  0x00\n  swap1\n  sstore\n  pop\n  0x01\n  add\n  jump(tag_23)\ntag_24:\n  pop\n  swap1\n  jump\t// out\n    /* \"#utility.yul\":7:327   */\ntag_8:\n    /* \"#utility.yul\":51:57   */\n  0x00\n    /* \"#utility.yul\":88:89   */\n  0x02\n    /* \"#utility.yul\":82:86   */\n  dup3\n    /* \"#utility.yul\":78:90   */\n  div\n    /* \"#utility.yul\":68:90   */\n  swap1\n  pop\n    /* \"#utility.yul\":135:136   */\n  0x01\n    /* \"#utility.yul\":129:133   */\n  dup3\n    /* \"#utility.yul\":125:137   */\n  and\n    /* \"#utility.yul\":156:174   */\n  dup1\n    /* \"#utility.yul\":146:227   */\n  tag_27\n  jumpi\n    /* \"#utility.yul\":212:216   */\n  0x7f\n    /* \"#utility.yul\":204:210   */\n  dup3\n    /* \"#utility.yul\":200:217   */\n  and\n    /* \"#utility.yul\":190:217   */\n  swap2\n  pop\n    /* \"#utility.yul\":146:227   */\ntag_27:\n    /* \"#utility.yul\":274:276   */\n  0x20\n    /* \"#utility.yul\":266:272   */\n  dup3\n    /* \"#utility.yul\":263:277   */\n  lt\n    /* \"#utility.yul\":243:261   */\n  dup2\n    /* \"#utility.yul\":240:278   */\n  eq\n    /* \"#utility.yul\":237:321   */\n  iszero\n  tag_28\n  jumpi\n    /* \"#utility.yul\":293:311   */\n  tag_29\n  tag_30\n  jump\t// in\ntag_29:\n    /* \"#utility.yul\":237:321   */\ntag_28:\n    /* \"#utility.yul\":58:327   */\n  pop\n    /* \"#utility.yul\":7:327   */\n  swap2\n  swap1\n  pop\n  jump\t// out\n    /* \"#utility.yul\":333:513   */\ntag_30:\n    /* \"#utility.yul\":381:458   */\n  0x4e487b7100000000000000000000000000000000000000000000000000000000\n    /* \"#utility.yul\":378:379   */\n  0x00\n    /* \"#utility.yul\":371:459   */\n  mstore\n    /* \"#utility.yul\":478:482   */\n  0x22\n    /* \"#utility.yul\":475:476   */\n  0x04\n    /* \"#utility.yul\":468:483   */\n  mstore\n    /* \"#utility.yul\":502:506   */\n  0x24\n    /* \"#utility.yul\":499:500   */\n  0x00\n    /* \"#utility.yul\":492:507   */\n  revert\n    /* \"Contract-In-Dept/Types.sol\":93:648  contract Types{\r... */\ntag_6:\n  dataSize(sub_0)\n  dup1\n  dataOffset(sub_0)\n  0x00\n  codecopy\n  0x00\n  return\nstop\n\nsub_0: assembly {\n        /* \"Contract-In-Dept/Types.sol\":93:648  contract Types{\r... */\n      mstore(0x40, 0x80)\n      callvalue\n      dup1\n      iszero\n      tag_1\n      jumpi\n      0x00\n      dup1\n      revert\n    tag_1:\n      pop\n      jumpi(tag_2, lt(calldatasize, 0x04))\n      shr(0xe0, calldataload(0x00))\n      dup1\n      0x2a3db8b2\n      eq\n      tag_3\n      jumpi\n      dup1\n      0x4df7e3d0\n      eq\n      tag_4\n      jumpi\n      dup1\n      0xc15bae84\n      eq\n      tag_5\n      jumpi\n      dup1\n      0xc5b57bdb\n      eq\n      tag_6\n      jumpi\n      dup1\n      0xd2d47667\n      eq\n      tag_7\n      jumpi\n    tag_2:\n      0x00\n      dup1\n      revert\n        /* \"Contract-In-Dept/Types.sol\":232:261  int32 public int_var = -60432 */\n    tag_3:\n      tag_8\n      tag_9\n      jump\t// in\n    tag_8:\n      mload(0x40)\n      tag_10\n      swap2\n      swap1\n      tag_11\n      jump\t// in\n    tag_10:\n      mload(0x40)\n      dup1\n      swap2\n      sub\n      swap1\n      return\n        /* \"Contract-In-Dept/Types.sol\":369:389  bytes public b = \"a\" */\n    tag_4:\n      tag_12\n      tag_13\n      jump\t// in\n    tag_12:\n      mload(0x40)\n      tag_14\n      swap2\n      swap1\n      tag_15\n      jump\t// in\n    tag_14:\n      mload(0x40)\n      dup1\n      swap2\n      sub\n      swap1\n      return\n        /* \"Contract-In-Dept/Types.sol\":301:331  string public str = \"Solidity\" */\n    tag_5:\n      tag_16\n      tag_17\n      jump\t// in\n    tag_16:\n      mload(0x40)\n      tag_18\n      swap2\n      swap1\n      tag_19\n      jump\t// in\n    tag_18:\n      mload(0x40)\n      dup1\n      swap2\n      sub\n      swap1\n      return\n        /* \"Contract-In-Dept/Types.sol\":148:174  bool public boolean = true */\n    tag_6:\n      tag_20\n      tag_21\n      jump\t// in\n    tag_20:\n      mload(0x40)\n      tag_22\n      swap2\n      swap1\n      tag_23\n      jump\t// in\n    tag_22:\n      mload(0x40)\n      dup1\n      swap2\n      sub\n      swap1\n      return\n        /* \"Contract-In-Dept/Types.sol\":563:645  function Enum() public pure returns(my_enum){\r... */\n    tag_7:\n      tag_24\n      tag_25\n      jump\t// in\n    tag_24:\n      mload(0x40)\n      tag_26\n      swap2\n      swap1\n      tag_27\n      jump\t// in\n    tag_26:\n      mload(0x40)\n      dup1\n      swap2\n      sub\n      swap1\n      return\n        /* \"Contract-In-Dept/Types.sol\":232:261  int32 public int_var = -60432 */\n    tag_9:\n      0x00\n      0x01\n      swap1\n      sload\n      swap1\n      0x0100\n      exp\n      swap1\n      div\n      0x03\n      signextend\n      dup2\n      jump\t// out\n        /* \"Contract-In-Dept/Types.sol\":369:389  bytes public b = \"a\" */\n    tag_13:\n      0x02\n      dup1\n      sload\n      tag_28\n      swap1\n      tag_29\n      jump\t// in\n    tag_28:\n      dup1\n      0x1f\n      add\n      0x20\n      dup1\n      swap2\n      div\n      mul\n      0x20\n      add\n      mload(0x40)\n      swap1\n      dup2\n      add\n      0x40\n      mstore\n      dup1\n      swap3\n      swap2\n      swap1\n      dup2\n      dup2\n      mstore\n      0x20\n      add\n      dup3\n      dup1\n      sload\n      tag_30\n      swap1\n      tag_29\n      jump\t// in\n    tag_30:\n      dup1\n      iszero\n      tag_31\n      jumpi\n      dup1\n      0x1f\n      lt\n      tag_32\n      jumpi\n      0x0100\n      dup1\n      dup4\n      sload\n      div\n      mul\n      dup4\n      mstore\n      swap2\n      0x20\n      add\n      swap2\n      jump(tag_31)\n    tag_32:\n      dup3\n      add\n      swap2\n      swap1\n      0x00\n      mstore\n      keccak256(0x00, 0x20)\n      swap1\n    tag_33:\n      dup2\n      sload\n      dup2\n      mstore\n      swap1\n      0x01\n      add\n      swap1\n      0x20\n      add\n      dup1\n      dup4\n      gt\n      tag_33\n      jumpi\n      dup3\n      swap1\n      sub\n      0x1f\n      and\n      dup3\n      add\n      swap2\n    tag_31:\n      pop\n      pop\n      pop\n      pop\n      pop\n      dup2\n      jump\t// out\n        /* \"Contract-In-Dept/Types.sol\":301:331  string public str = \"Solidity\" */\n    tag_17:\n      0x01\n      dup1\n      sload\n      tag_34\n      swap1\n      tag_29\n      jump\t// in\n    tag_34:\n      dup1\n      0x1f\n      add\n      0x20\n      dup1\n      swap2\n      div\n      mul\n      0x20\n      add\n      mload(0x40)\n      swap1\n      dup2\n      add\n      0x40\n      mstore\n      dup1\n      swap3\n      swap2\n      swap1\n      dup2\n      dup2\n      mstore\n      0x20\n      add\n      dup3\n      dup1\n      sload\n      tag_35\n      swap1\n      tag_29\n      jump\t// in\n    tag_35:\n      dup1\n      iszero\n      tag_36\n      jumpi\n      dup1\n      0x1f\n      lt\n      tag_37\n      jumpi\n      0x0100\n      dup1\n      dup4\n      sload\n      div\n      mul\n      dup4\n      mstore\n      swap2\n      0x20\n      add\n      swap2\n      jump(tag_36)\n    tag_37:\n      dup3\n      add\n      swap2\n      swap1\n      0x00\n      mstore\n      keccak256(0x00, 0x20)\n      swap1\n    tag_38:\n      dup2\n      sload\n      dup2\n      mstore\n      swap1\n      0x01\n      add\n      swap1\n      0x20\n      add\n      dup1\n      dup4\n      gt\n      tag_38\n      jumpi\n      dup3\n      swap1\n      sub\n      0x1f\n      and\n      dup3\n      add\n      swap2\n    tag_36:\n      pop\n      pop\n      pop\n      pop\n      pop\n      dup2\n      jump\t// out\n        /* \"Contract-In-Dept/Types.sol\":148:174  bool public boolean = true */\n    tag_21:\n      0x00\n      dup1\n      sload\n      swap1\n      0x0100\n      exp\n      swap1\n      div\n      0xff\n      and\n      dup2\n      jump\t// out\n        /* \"Contract-In-Dept/Types.sol\":563:645  function Enum() public pure returns(my_enum){\r... */\n    tag_25:\n        /* \"Contract-In-Dept/Types.sol\":599:606  my_enum */\n      0x00\n        /* \"Contract-In-Dept/Types.sol\":563:645  function Enum() public pure returns(my_enum){\r... */\n      swap1\n      jump\t// out\n        /* \"#utility.yul\":7:116   */\n    tag_41:\n        /* \"#utility.yul\":88:109   */\n      tag_43\n        /* \"#utility.yul\":103:108   */\n      dup2\n        /* \"#utility.yul\":88:109   */\n      tag_44\n      jump\t// in\n    tag_43:\n        /* \"#utility.yul\":83:86   */\n      dup3\n        /* \"#utility.yul\":76:110   */\n      mstore\n        /* \"#utility.yul\":7:116   */\n      pop\n      pop\n      jump\t// out\n        /* \"#utility.yul\":122:482   */\n    tag_45:\n        /* \"#utility.yul\":208:211   */\n      0x00\n        /* \"#utility.yul\":236:274   */\n      tag_47\n        /* \"#utility.yul\":268:273   */\n      dup3\n        /* \"#utility.yul\":236:274   */\n      tag_48\n      jump\t// in\n    tag_47:\n        /* \"#utility.yul\":290:360   */\n      tag_49\n        /* \"#utility.yul\":353:359   */\n      dup2\n        /* \"#utility.yul\":348:351   */\n      dup6\n        /* \"#utility.yul\":290:360   */\n      tag_50\n      jump\t// in\n    tag_49:\n        /* \"#utility.yul\":283:360   */\n      swap4\n      pop\n        /* \"#utility.yul\":369:421   */\n      tag_51\n        /* \"#utility.yul\":414:420   */\n      dup2\n        /* \"#utility.yul\":409:412   */\n      dup6\n        /* \"#utility.yul\":402:406   */\n      0x20\n        /* \"#utility.yul\":395:400   */\n      dup7\n        /* \"#utility.yul\":391:407   */\n      add\n        /* \"#utility.yul\":369:421   */\n      tag_52\n      jump\t// in\n    tag_51:\n        /* \"#utility.yul\":446:475   */\n      tag_53\n        /* \"#utility.yul\":468:474   */\n      dup2\n        /* \"#utility.yul\":446:475   */\n      tag_54\n      jump\t// in\n    tag_53:\n        /* \"#utility.yul\":441:444   */\n      dup5\n        /* \"#utility.yul\":437:476   */\n      add\n        /* \"#utility.yul\":430:476   */\n      swap2\n      pop\n        /* \"#utility.yul\":212:482   */\n      pop\n        /* \"#utility.yul\":122:482   */\n      swap3\n      swap2\n      pop\n      pop\n      jump\t// out\n        /* \"#utility.yul\":488:635   */\n    tag_55:\n        /* \"#utility.yul\":583:628   */\n      tag_57\n        /* \"#utility.yul\":622:627   */\n      dup2\n        /* \"#utility.yul\":583:628   */\n      tag_58\n      jump\t// in\n    tag_57:\n        /* \"#utility.yul\":578:581   */\n      dup3\n        /* \"#utility.yul\":571:629   */\n      mstore\n        /* \"#utility.yul\":488:635   */\n      pop\n      pop\n      jump\t// out\n        /* \"#utility.yul\":641:753   */\n    tag_59:\n        /* \"#utility.yul\":724:746   */\n      tag_61\n        /* \"#utility.yul\":740:745   */\n      dup2\n        /* \"#utility.yul\":724:746   */\n      tag_62\n      jump\t// in\n    tag_61:\n        /* \"#utility.yul\":719:722   */\n      dup3\n        /* \"#utility.yul\":712:747   */\n      mstore\n        /* \"#utility.yul\":641:753   */\n      pop\n      pop\n      jump\t// out\n        /* \"#utility.yul\":759:1123   */\n    tag_63:\n        /* \"#utility.yul\":847:850   */\n      0x00\n        /* \"#utility.yul\":875:914   */\n      tag_65\n        /* \"#utility.yul\":908:913   */\n      dup3\n        /* \"#utility.yul\":875:914   */\n      tag_66\n      jump\t// in\n    tag_65:\n        /* \"#utility.yul\":930:1001   */\n      tag_67\n        /* \"#utility.yul\":994:1000   */\n      dup2\n        /* \"#utility.yul\":989:992   */\n      dup6\n        /* \"#utility.yul\":930:1001   */\n      tag_68\n      jump\t// in\n    tag_67:\n        /* \"#utility.yul\":923:1001   */\n      swap4\n      pop\n        /* \"#utility.yul\":1010:1062   */\n      tag_69\n        /* \"#utility.yul\":1055:1061   */\n      dup2\n        /* \"#utility.yul\":1050:1053   */\n      dup6\n        /* \"#utility.yul\":1043:1047   */\n      0x20\n        /* \"#utility.yul\":1036:1041   */\n      dup7\n        /* \"#utility.yul\":1032:1048   */\n      add\n        /* \"#utility.yul\":1010:1062   */\n      tag_52\n      jump\t// in\n    tag_69:\n        /* \"#utility.yul\":1087:1116   */\n      tag_70\n        /* \"#utility.yul\":1109:1115   */\n      dup2\n        /* \"#utility.yul\":1087:1116   */\n      tag_54\n      jump\t// in\n    tag_70:\n        /* \"#utility.yul\":1082:1085   */\n      dup5\n        /* \"#utility.yul\":1078:1117   */\n      add\n        /* \"#utility.yul\":1071:1117   */\n      swap2\n      pop\n        /* \"#utility.yul\":851:1123   */\n      pop\n        /* \"#utility.yul\":759:1123   */\n      swap3\n      swap2\n      pop\n      pop\n      jump\t// out\n        /* \"#utility.yul\":1129:1339   */\n    tag_23:\n        /* \"#utility.yul\":1216:1220   */\n      0x00\n        /* \"#utility.yul\":1254:1256   */\n      0x20\n        /* \"#utility.yul\":1243:1252   */\n      dup3\n        /* \"#utility.yul\":1239:1257   */\n      add\n        /* \"#utility.yul\":1231:1257   */\n      swap1\n      pop\n        /* \"#utility.yul\":1267:1332   */\n      tag_72\n        /* \"#utility.yul\":1329:1330   */\n      0x00\n        /* \"#utility.yul\":1318:1327   */\n      dup4\n        /* \"#utility.yul\":1314:1331   */\n      add\n        /* \"#utility.yul\":1305:1311   */\n      dup5\n        /* \"#utility.yul\":1267:1332   */\n      tag_41\n      jump\t// in\n    tag_72:\n        /* \"#utility.yul\":1129:1339   */\n      swap3\n      swap2\n      pop\n      pop\n      jump\t// out\n        /* \"#utility.yul\":1345:1654   */\n    tag_15:\n        /* \"#utility.yul\":1456:1460   */\n      0x00\n        /* \"#utility.yul\":1494:1496   */\n      0x20\n        /* \"#utility.yul\":1483:1492   */\n      dup3\n        /* \"#utility.yul\":1479:1497   */\n      add\n        /* \"#utility.yul\":1471:1497   */\n      swap1\n      pop\n        /* \"#utility.yul\":1543:1552   */\n      dup2\n        /* \"#utility.yul\":1537:1541   */\n      dup2\n        /* \"#utility.yul\":1533:1553   */\n      sub\n        /* \"#utility.yul\":1529:1530   */\n      0x00\n        /* \"#utility.yul\":1518:1527   */\n      dup4\n        /* \"#utility.yul\":1514:1531   */\n      add\n        /* \"#utility.yul\":1507:1554   */\n      mstore\n        /* \"#utility.yul\":1571:1647   */\n      tag_74\n        /* \"#utility.yul\":1642:1646   */\n      dup2\n        /* \"#utility.yul\":1633:1639   */\n      dup5\n        /* \"#utility.yul\":1571:1647   */\n      tag_45\n      jump\t// in\n    tag_74:\n        /* \"#utility.yul\":1563:1647   */\n      swap1\n      pop\n        /* \"#utility.yul\":1345:1654   */\n      swap3\n      swap2\n      pop\n      pop\n      jump\t// out\n        /* \"#utility.yul\":1660:1898   */\n    tag_27:\n        /* \"#utility.yul\":1761:1765   */\n      0x00\n        /* \"#utility.yul\":1799:1801   */\n      0x20\n        /* \"#utility.yul\":1788:1797   */\n      dup3\n        /* \"#utility.yul\":1784:1802   */\n      add\n        /* \"#utility.yul\":1776:1802   */\n      swap1\n      pop\n        /* \"#utility.yul\":1812:1891   */\n      tag_76\n        /* \"#utility.yul\":1888:1889   */\n      0x00\n        /* \"#utility.yul\":1877:1886   */\n      dup4\n        /* \"#utility.yul\":1873:1890   */\n      add\n        /* \"#utility.yul\":1864:1870   */\n      dup5\n        /* \"#utility.yul\":1812:1891   */\n      tag_55\n      jump\t// in\n    tag_76:\n        /* \"#utility.yul\":1660:1898   */\n      swap3\n      swap2\n      pop\n      pop\n      jump\t// out\n        /* \"#utility.yul\":1904:2118   */\n    tag_11:\n        /* \"#utility.yul\":1993:1997   */\n      0x00\n        /* \"#utility.yul\":2031:2033   */\n      0x20\n        /* \"#utility.yul\":2020:2029   */\n      dup3\n        /* \"#utility.yul\":2016:2034   */\n      add\n        /* \"#utility.yul\":2008:2034   */\n      swap1\n      pop\n        /* \"#utility.yul\":2044:2111   */\n      tag_78\n        /* \"#utility.yul\":2108:2109   */\n      0x00\n        /* \"#utility.yul\":2097:2106   */\n      dup4\n        /* \"#utility.yul\":2093:2110   */\n      add\n        /* \"#utility.yul\":2084:2090   */\n      dup5\n        /* \"#utility.yul\":2044:2111   */\n      tag_59\n      jump\t// in\n    tag_78:\n        /* \"#utility.yul\":1904:2118   */\n      swap3\n      swap2\n      pop\n      pop\n      jump\t// out\n        /* \"#utility.yul\":2124:2437   */\n    tag_19:\n        /* \"#utility.yul\":2237:2241   */\n      0x00\n        /* \"#utility.yul\":2275:2277   */\n      0x20\n        /* \"#utility.yul\":2264:2273   */\n      dup3\n        /* \"#utility.yul\":2260:2278   */\n      add\n        /* \"#utility.yul\":2252:2278   */\n      swap1\n      pop\n        /* \"#utility.yul\":2324:2333   */\n      dup2\n        /* \"#utility.yul\":2318:2322   */\n      dup2\n        /* \"#utility.yul\":2314:2334   */\n      sub\n        /* \"#utility.yul\":2310:2311   */\n      0x00\n        /* \"#utility.yul\":2299:2308   */\n      dup4\n        /* \"#utility.yul\":2295:2312   */\n      add\n        /* \"#utility.yul\":2288:2335   */\n      mstore\n        /* \"#utility.yul\":2352:2430   */\n      tag_80\n        /* \"#utility.yul\":2425:2429   */\n      dup2\n        /* \"#utility.yul\":2416:2422   */\n      dup5\n        /* \"#utility.yul\":2352:2430   */\n      tag_63\n      jump\t// in\n    tag_80:\n        /* \"#utility.yul\":2344:2430   */\n      swap1\n      pop\n        /* \"#utility.yul\":2124:2437   */\n      swap3\n      swap2\n      pop\n      pop\n      jump\t// out\n        /* \"#utility.yul\":2443:2541   */\n    tag_48:\n        /* \"#utility.yul\":2494:2500   */\n      0x00\n        /* \"#utility.yul\":2528:2533   */\n      dup2\n        /* \"#utility.yul\":2522:2534   */\n      mload\n        /* \"#utility.yul\":2512:2534   */\n      swap1\n      pop\n        /* \"#utility.yul\":2443:2541   */\n      swap2\n      swap1\n      pop\n      jump\t// out\n        /* \"#utility.yul\":2547:2646   */\n    tag_66:\n        /* \"#utility.yul\":2599:2605   */\n      0x00\n        /* \"#utility.yul\":2633:2638   */\n      dup2\n        /* \"#utility.yul\":2627:2639   */\n      mload\n        /* \"#utility.yul\":2617:2639   */\n      swap1\n      pop\n        /* \"#utility.yul\":2547:2646   */\n      swap2\n      swap1\n      pop\n      jump\t// out\n        /* \"#utility.yul\":2652:2820   */\n    tag_50:\n        /* \"#utility.yul\":2735:2746   */\n      0x00\n        /* \"#utility.yul\":2769:2775   */\n      dup3\n        /* \"#utility.yul\":2764:2767   */\n      dup3\n        /* \"#utility.yul\":2757:2776   */\n      mstore\n        /* \"#utility.yul\":2809:2813   */\n      0x20\n        /* \"#utility.yul\":2804:2807   */\n      dup3\n        /* \"#utility.yul\":2800:2814   */\n      add\n        /* \"#utility.yul\":2785:2814   */\n      swap1\n      pop\n        /* \"#utility.yul\":2652:2820   */\n      swap3\n      swap2\n      pop\n      pop\n      jump\t// out\n        /* \"#utility.yul\":2826:2995   */\n    tag_68:\n        /* \"#utility.yul\":2910:2921   */\n      0x00\n        /* \"#utility.yul\":2944:2950   */\n      dup3\n        /* \"#utility.yul\":2939:2942   */\n      dup3\n        /* \"#utility.yul\":2932:2951   */\n      mstore\n        /* \"#utility.yul\":2984:2988   */\n      0x20\n        /* \"#utility.yul\":2979:2982   */\n      dup3\n        /* \"#utility.yul\":2975:2989   */\n      add\n        /* \"#utility.yul\":2960:2989   */\n      swap1\n      pop\n        /* \"#utility.yul\":2826:2995   */\n      swap3\n      swap2\n      pop\n      pop\n      jump\t// out\n        /* \"#utility.yul\":3001:3091   */\n    tag_44:\n        /* \"#utility.yul\":3035:3042   */\n      0x00\n        /* \"#utility.yul\":3078:3083   */\n      dup2\n        /* \"#utility.yul\":3071:3084   */\n      iszero\n        /* \"#utility.yul\":3064:3085   */\n      iszero\n        /* \"#utility.yul\":3053:3085   */\n      swap1\n      pop\n        /* \"#utility.yul\":3001:3091   */\n      swap2\n      swap1\n      pop\n      jump\t// out\n        /* \"#utility.yul\":3097:3228   */\n    tag_86:\n        /* \"#utility.yul\":3144:3151   */\n      0x00\n        /* \"#utility.yul\":3173:3178   */\n      dup2\n        /* \"#utility.yul\":3162:3178   */\n      swap1\n      pop\n        /* \"#utility.yul\":3179:3222   */\n      tag_88\n        /* \"#utility.yul\":3216:3221   */\n      dup3\n        /* \"#utility.yul\":3179:3222   */\n      tag_89\n      jump\t// in\n    tag_88:\n        /* \"#utility.yul\":3097:3228   */\n      swap2\n      swap1\n      pop\n      jump\t// out\n        /* \"#utility.yul\":3234:3324   */\n    tag_62:\n        /* \"#utility.yul\":3269:3276   */\n      0x00\n        /* \"#utility.yul\":3312:3317   */\n      dup2\n        /* \"#utility.yul\":3309:3310   */\n      0x03\n        /* \"#utility.yul\":3298:3318   */\n      signextend\n        /* \"#utility.yul\":3287:3318   */\n      swap1\n      pop\n        /* \"#utility.yul\":3234:3324   */\n      swap2\n      swap1\n      pop\n      jump\t// out\n        /* \"#utility.yul\":3330:3461   */\n    tag_58:\n        /* \"#utility.yul\":3388:3397   */\n      0x00\n        /* \"#utility.yul\":3421:3455   */\n      tag_92\n        /* \"#utility.yul\":3449:3454   */\n      dup3\n        /* \"#utility.yul\":3421:3455   */\n      tag_86\n      jump\t// in\n    tag_92:\n        /* \"#utility.yul\":3408:3455   */\n      swap1\n      pop\n        /* \"#utility.yul\":3330:3461   */\n      swap2\n      swap1\n      pop\n      jump\t// out\n        /* \"#utility.yul\":3467:3774   */\n    tag_52:\n        /* \"#utility.yul\":3535:3536   */\n      0x00\n        /* \"#utility.yul\":3545:3658   */\n    tag_94:\n        /* \"#utility.yul\":3559:3565   */\n      dup4\n        /* \"#utility.yul\":3556:3557   */\n      dup2\n        /* \"#utility.yul\":3553:3566   */\n      lt\n        /* \"#utility.yul\":3545:3658   */\n      iszero\n      tag_96\n      jumpi\n        /* \"#utility.yul\":3644:3645   */\n      dup1\n        /* \"#utility.yul\":3639:3642   */\n      dup3\n        /* \"#utility.yul\":3635:3646   */\n      add\n        /* \"#utility.yul\":3629:3647   */\n      mload\n        /* \"#utility.yul\":3625:3626   */\n      dup2\n        /* \"#utility.yul\":3620:3623   */\n      dup5\n        /* \"#utility.yul\":3616:3627   */\n      add\n        /* \"#utility.yul\":3609:3648   */\n      mstore\n        /* \"#utility.yul\":3581:3583   */\n      0x20\n        /* \"#utility.yul\":3578:3579   */\n      dup2\n        /* \"#utility.yul\":3574:3584   */\n      add\n        /* \"#utility.yul\":3569:3584   */\n      swap1\n      pop\n        /* \"#utility.yul\":3545:3658   */\n      jump(tag_94)\n    tag_96:\n        /* \"#utility.yul\":3676:3682   */\n      dup4\n        /* \"#utility.yul\":3673:3674   */\n      dup2\n        /* \"#utility.yul\":3670:3683   */\n      gt\n        /* \"#utility.yul\":3667:3768   */\n      iszero\n      tag_97\n      jumpi\n        /* \"#utility.yul\":3756:3757   */\n      0x00\n        /* \"#utility.yul\":3747:3753   */\n      dup5\n        /* \"#utility.yul\":3742:3745   */\n      dup5\n        /* \"#utility.yul\":3738:3754   */\n      add\n        /* \"#utility.yul\":3731:3758   */\n      mstore\n        /* \"#utility.yul\":3667:3768   */\n    tag_97:\n        /* \"#utility.yul\":3516:3774   */\n      pop\n        /* \"#utility.yul\":3467:3774   */\n      pop\n      pop\n      pop\n      jump\t// out\n        /* \"#utility.yul\":3780:4100   */\n    tag_29:\n        /* \"#utility.yul\":3824:3830   */\n      0x00\n        /* \"#utility.yul\":3861:3862   */\n      0x02\n        /* \"#utility.yul\":3855:3859   */\n      dup3\n        /* \"#utility.yul\":3851:3863   */\n      div\n        /* \"#utility.yul\":3841:3863   */\n      swap1\n      pop\n        /* \"#utility.yul\":3908:3909   */\n      0x01\n        /* \"#utility.yul\":3902:3906   */\n      dup3\n        /* \"#utility.yul\":3898:3910   */\n      and\n        /* \"#utility.yul\":3929:3947   */\n      dup1\n        /* \"#utility.yul\":3919:4000   */\n      tag_99\n      jumpi\n        /* \"#utility.yul\":3985:3989   */\n      0x7f\n        /* \"#utility.yul\":3977:3983   */\n      dup3\n        /* \"#utility.yul\":3973:3990   */\n      and\n        /* \"#utility.yul\":3963:3990   */\n      swap2\n      pop\n        /* \"#utility.yul\":3919:4000   */\n    tag_99:\n        /* \"#utility.yul\":4047:4049   */\n      0x20\n        /* \"#utility.yul\":4039:4045   */\n      dup3\n        /* \"#utility.yul\":4036:4050   */\n      lt\n        /* \"#utility.yul\":4016:4034   */\n      dup2\n        /* \"#utility.yul\":4013:4051   */\n      eq\n        /* \"#utility.yul\":4010:4094   */\n      iszero\n      tag_100\n      jumpi\n        /* \"#utility.yul\":4066:4084   */\n      tag_101\n      tag_102\n      jump\t// in\n    tag_101:\n        /* \"#utility.yul\":4010:4094   */\n    tag_100:\n        /* \"#utility.yul\":3831:4100   */\n      pop\n        /* \"#utility.yul\":3780:4100   */\n      swap2\n      swap1\n      pop\n      jump\t// out\n        /* \"#utility.yul\":4106:4286   */\n    tag_103:\n        /* \"#utility.yul\":4154:4231   */\n      0x4e487b7100000000000000000000000000000000000000000000000000000000\n        /* \"#utility.yul\":4151:4152   */\n      0x00\n        /* \"#utility.yul\":4144:4232   */\n      mstore\n        /* \"#utility.yul\":4251:4255   */\n      0x21\n        /* \"#utility.yul\":4248:4249   */\n      0x04\n        /* \"#utility.yul\":4241:4256   */\n      mstore\n        /* \"#utility.yul\":4275:4279   */\n      0x24\n        /* \"#utility.yul\":4272:4273   */\n      0x00\n        /* \"#utility.yul\":4265:4280   */\n      revert\n        /* \"#utility.yul\":4292:4472   */\n    tag_102:\n        /* \"#utility.yul\":4340:4417   */\n      0x4e487b7100000000000000000000000000000000000000000000000000000000\n        /* \"#utility.yul\":4337:4338   */\n      0x00\n        /* \"#utility.yul\":4330:4418   */\n      mstore\n        /* \"#utility.yul\":4437:4441   */\n      0x22\n        /* \"#utility.yul\":4434:4435   */\n      0x04\n        /* \"#utility.yul\":4427:4442   */\n      mstore\n        /* \"#utility.yul\":4461:4465   */\n      0x24\n        /* \"#utility.yul\":4458:4459   */\n      0x00\n        /* \"#utility.yul\":4451:4466   */\n      revert\n        /* \"#utility.yul\":4478:4580   */\n    tag_54:\n        /* \"#utility.yul\":4519:4525   */\n      0x00\n        /* \"#utility.yul\":4570:4572   */\n      0x1f\n        /* \"#utility.yul\":4566:4573   */\n      not\n        /* \"#utility.yul\":4561:4563   */\n      0x1f\n        /* \"#utility.yul\":4554:4559   */\n      dup4\n        /* \"#utility.yul\":4550:4564   */\n      add\n        /* \"#utility.yul\":4546:4574   */\n      and\n        /* \"#utility.yul\":4536:4574   */\n      swap1\n      pop\n        /* \"#utility.yul\":4478:4580   */\n      swap2\n      swap1\n      pop\n      jump\t// out\n        /* \"#utility.yul\":4586:4701   */\n    tag_89:\n        /* \"#utility.yul\":4669:4670   */\n      0x03\n        /* \"#utility.yul\":4662:4667   */\n      dup2\n        /* \"#utility.yul\":4659:4671   */\n      lt\n        /* \"#utility.yul\":4649:4695   */\n      tag_108\n      jumpi\n        /* \"#utility.yul\":4675:4693   */\n      tag_109\n      tag_103\n      jump\t// in\n    tag_109:\n        /* \"#utility.yul\":4649:4695   */\n    tag_108:\n        /* \"#utility.yul\":4586:4701   */\n      pop\n      jump\t// out\n\n    auxdata: 0xa26469706673582212208bc0c7e0a1763864a854a4a37e2553541000726e3ce56d3c249c26e5fde910aa64736f6c63430008070033\n}\n",
				"bytecode": {
					"linkReferences": {},
					"object": "608060405260016000806101000a81548160ff0219169083151502179055507fffffffffffffffffffffffffffffffffffffffffffffffffffffffffffff13f0600060016101000a81548163ffffffff021916908360030b63ffffffff1602179055506040518060400160405280600881526020017f536f6c6964697479000000000000000000000000000000000000000000000000815250600190805190602001906100ad92919061010c565b506040518060400160405280600181526020017f6100000000000000000000000000000000000000000000000000000000000000815250600290805190602001906100f9929190610192565b5034801561010657600080fd5b50610296565b82805461011890610235565b90600052602060002090601f01602090048101928261013a5760008555610181565b82601f1061015357805160ff1916838001178555610181565b82800160010185558215610181579182015b82811115610180578251825591602001919060010190610165565b5b50905061018e9190610218565b5090565b82805461019e90610235565b90600052602060002090601f0160209004810192826101c05760008555610207565b82601f106101d957805160ff1916838001178555610207565b82800160010185558215610207579182015b828111156102065782518255916020019190600101906101eb565b5b5090506102149190610218565b5090565b5b80821115610231576000816000905550600101610219565b5090565b6000600282049050600182168061024d57607f821691505b6020821081141561026157610260610267565b5b50919050565b7f4e487b7100000000000000000000000000000000000000000000000000000000600052602260045260246000fd5b6104ff806102a56000396000f3fe608060405234801561001057600080fd5b50600436106100575760003560e01c80632a3db8b21461005c5780634df7e3d01461007a578063c15bae8414610098578063c5b57bdb146100b6578063d2d47667146100d4575b600080fd5b6100646100f2565b604051610071919061032e565b60405180910390f35b610082610105565b60405161008f91906102f1565b60405180910390f35b6100a0610193565b6040516100ad9190610349565b60405180910390f35b6100be610221565b6040516100cb91906102d6565b60405180910390f35b6100dc610232565b6040516100e99190610313565b60405180910390f35b600060019054906101000a900460030b81565b6002805461011290610414565b80601f016020809104026020016040519081016040528092919081815260200182805461013e90610414565b801561018b5780601f106101605761010080835404028352916020019161018b565b820191906000526020600020905b81548152906001019060200180831161016e57829003601f168201915b505050505081565b600180546101a090610414565b80601f01602080910402602001604051908101604052809291908181526020018280546101cc90610414565b80156102195780601f106101ee57610100808354040283529160200191610219565b820191906000526020600020905b8154815290600101906020018083116101fc57829003601f168201915b505050505081565b60008054906101000a900460ff1681565b600090565b610240816103a3565b82525050565b60006102518261036b565b61025b8185610381565b935061026b8185602086016103e1565b610274816104a4565b840191505092915050565b610288816103cf565b82525050565b610297816103c2565b82525050565b60006102a882610376565b6102b28185610392565b93506102c28185602086016103e1565b6102cb816104a4565b840191505092915050565b60006020820190506102eb6000830184610237565b92915050565b6000602082019050818103600083015261030b8184610246565b905092915050565b6000602082019050610328600083018461027f565b92915050565b6000602082019050610343600083018461028e565b92915050565b60006020820190508181036000830152610363818461029d565b905092915050565b600081519050919050565b600081519050919050565b600082825260208201905092915050565b600082825260208201905092915050565b60008115159050919050565b60008190506103bd826104b5565b919050565b60008160030b9050919050565b60006103da826103af565b9050919050565b60005b838110156103ff5780820151818401526020810190506103e4565b8381111561040e576000848401525b50505050565b6000600282049050600182168061042c57607f821691505b602082108114156104405761043f610475565b5b50919050565b7f4e487b7100000000000000000000000000000000000000000000000000000000600052602160045260246000fd5b7f4e487b7100000000000000000000000000000000000000000000000000000000600052602260045260246000fd5b6000601f19601f8301169050919050565b600381106104c6576104c5610446565b5b5056fea26469706673582212208bc0c7e0a1763864a854a4a37e2553541000726e3ce56d3c249c26e5fde910aa64736f6c63430008070033",
					"opcodes": "PUSH1 0x80 PUSH1 0x40 MSTORE PUSH1 0x1 PUSH1 0x0 DUP1 PUSH2 0x100 EXP DUP2 SLOAD DUP2 PUSH1 0xFF MUL NOT AND SWAP1 DUP4 ISZERO ISZERO MUL OR SWAP1 SSTORE POP PUSH32 0xFFFFFFFFFFFFFFFFFFFFFFFFFFFFFFFFFFFFFFFFFFFFFFFFFFFFFFFFFFFF13F0 PUSH1 0x0 PUSH1 0x1 PUSH2 0x100 EXP DUP2 SLOAD DUP2 PUSH4 0xFFFFFFFF MUL NOT AND SWAP1 DUP4 PUSH1 0x3 SIGNEXTEND PUSH4 0xFFFFFFFF AND MUL OR SWAP1 SSTORE POP PUSH1 0x40 MLOAD DUP1 PUSH1 0x40 ADD PUSH1 0x40 MSTORE DUP1 PUSH1 0x8 DUP2 MSTORE PUSH1 0x20 ADD PUSH32 0x536F6C6964697479000000000000000000000000000000000000000000000000 DUP2 MSTORE POP PUSH1 0x1 SWAP1 DUP1 MLOAD SWAP1 PUSH1 0x20 ADD SWAP1 PUSH2 0xAD SWAP3 SWAP2 SWAP1 PUSH2 0x10C JUMP JUMPDEST POP PUSH1 0x40 MLOAD DUP1 PUSH1 0x40 ADD PUSH1 0x40 MSTORE DUP1 PUSH1 0x1 DUP2 MSTORE PUSH1 0x20 ADD PUSH32 0x6100000000000000000000000000000000000000000000000000000000000000 DUP2 MSTORE POP PUSH1 0x2 SWAP1 DUP1 MLOAD SWAP1 PUSH1 0x20 ADD SWAP1 PUSH2 0xF9 SWAP3 SWAP2 SWAP1 PUSH2 0x192 JUMP JUMPDEST POP CALLVALUE DUP1 ISZERO PUSH2 0x106 JUMPI PUSH1 0x0 DUP1 REVERT JUMPDEST POP PUSH2 0x296 JUMP JUMPDEST DUP3 DUP1 SLOAD PUSH2 0x118 SWAP1 PUSH2 0x235 JUMP JUMPDEST SWAP1 PUSH1 0x0 MSTORE PUSH1 0x20 PUSH1 0x0 KECCAK256 SWAP1 PUSH1 0x1F ADD PUSH1 0x20 SWAP1 DIV DUP2 ADD SWAP3 DUP3 PUSH2 0x13A JUMPI PUSH1 0x0 DUP6 SSTORE PUSH2 0x181 JUMP JUMPDEST DUP3 PUSH1 0x1F LT PUSH2 0x153 JUMPI DUP1 MLOAD PUSH1 0xFF NOT AND DUP4 DUP1 ADD OR DUP6 SSTORE PUSH2 0x181 JUMP JUMPDEST DUP3 DUP1 ADD PUSH1 0x1 ADD DUP6 SSTORE DUP3 ISZERO PUSH2 0x181 JUMPI SWAP2 DUP3 ADD JUMPDEST DUP3 DUP2 GT ISZERO PUSH2 0x180 JUMPI DUP3 MLOAD DUP3 SSTORE SWAP2 PUSH1 0x20 ADD SWAP2 SWAP1 PUSH1 0x1 ADD SWAP1 PUSH2 0x165 JUMP JUMPDEST JUMPDEST POP SWAP1 POP PUSH2 0x18E SWAP2 SWAP1 PUSH2 0x218 JUMP JUMPDEST POP SWAP1 JUMP JUMPDEST DUP3 DUP1 SLOAD PUSH2 0x19E SWAP1 PUSH2 0x235 JUMP JUMPDEST SWAP1 PUSH1 0x0 MSTORE PUSH1 0x20 PUSH1 0x0 KECCAK256 SWAP1 PUSH1 0x1F ADD PUSH1 0x20 SWAP1 DIV DUP2 ADD SWAP3 DUP3 PUSH2 0x1C0 JUMPI PUSH1 0x0 DUP6 SSTORE PUSH2 0x207 JUMP JUMPDEST DUP3 PUSH1 0x1F LT PUSH2 0x1D9 JUMPI DUP1 MLOAD PUSH1 0xFF NOT AND DUP4 DUP1 ADD OR DUP6 SSTORE PUSH2 0x207 JUMP JUMPDEST DUP3 DUP1 ADD PUSH1 0x1 ADD DUP6 SSTORE DUP3 ISZERO PUSH2 0x207 JUMPI SWAP2 DUP3 ADD JUMPDEST DUP3 DUP2 GT ISZERO PUSH2 0x206 JUMPI DUP3 MLOAD DUP3 SSTORE SWAP2 PUSH1 0x20 ADD SWAP2 SWAP1 PUSH1 0x1 ADD SWAP1 PUSH2 0x1EB JUMP JUMPDEST JUMPDEST POP SWAP1 POP PUSH2 0x214 SWAP2 SWAP1 PUSH2 0x218 JUMP JUMPDEST POP SWAP1 JUMP JUMPDEST JUMPDEST DUP1 DUP3 GT ISZERO PUSH2 0x231 JUMPI PUSH1 0x0 DUP2 PUSH1 0x0 SWAP1 SSTORE POP PUSH1 0x1 ADD PUSH2 0x219 JUMP JUMPDEST POP SWAP1 JUMP JUMPDEST PUSH1 0x0 PUSH1 0x2 DUP3 DIV SWAP1 POP PUSH1 0x1 DUP3 AND DUP1 PUSH2 0x24D JUMPI PUSH1 0x7F DUP3 AND SWAP2 POP JUMPDEST PUSH1 0x20 DUP3 LT DUP2 EQ ISZERO PUSH2 0x261 JUMPI PUSH2 0x260 PUSH2 0x267 JUMP JUMPDEST JUMPDEST POP SWAP2 SWAP1 POP JUMP JUMPDEST PUSH32 0x4E487B7100000000000000000000000000000000000000000000000000000000 PUSH1 0x0 MSTORE PUSH1 0x22 PUSH1 0x4 MSTORE PUSH1 0x24 PUSH1 0x0 REVERT JUMPDEST PUSH2 0x4FF DUP1 PUSH2 0x2A5 PUSH1 0x0 CODECOPY PUSH1 0x0 RETURN INVALID PUSH1 0x80 PUSH1 0x40 MSTORE CALLVALUE DUP1 ISZERO PUSH2 0x10 JUMPI PUSH1 0x0 DUP1 REVERT JUMPDEST POP PUSH1 0x4 CALLDATASIZE LT PUSH2 0x57 JUMPI PUSH1 0x0 CALLDATALOAD PUSH1 0xE0 SHR DUP1 PUSH4 0x2A3DB8B2 EQ PUSH2 0x5C JUMPI DUP1 PUSH4 0x4DF7E3D0 EQ PUSH2 0x7A JUMPI DUP1 PUSH4 0xC15BAE84 EQ PUSH2 0x98 JUMPI DUP1 PUSH4 0xC5B57BDB EQ PUSH2 0xB6 JUMPI DUP1 PUSH4 0xD2D47667 EQ PUSH2 0xD4 JUMPI JUMPDEST PUSH1 0x0 DUP1 REVERT JUMPDEST PUSH2 0x64 PUSH2 0xF2 JUMP JUMPDEST PUSH1 0x40 MLOAD PUSH2 0x71 SWAP2 SWAP1 PUSH2 0x32E JUMP JUMPDEST PUSH1 0x40 MLOAD DUP1 SWAP2 SUB SWAP1 RETURN JUMPDEST PUSH2 0x82 PUSH2 0x105 JUMP JUMPDEST PUSH1 0x40 MLOAD PUSH2 0x8F SWAP2 SWAP1 PUSH2 0x2F1 JUMP JUMPDEST PUSH1 0x40 MLOAD DUP1 SWAP2 SUB SWAP1 RETURN JUMPDEST PUSH2 0xA0 PUSH2 0x193 JUMP JUMPDEST PUSH1 0x40 MLOAD PUSH2 0xAD SWAP2 SWAP1 PUSH2 0x349 JUMP JUMPDEST PUSH1 0x40 MLOAD DUP1 SWAP2 SUB SWAP1 RETURN JUMPDEST PUSH2 0xBE PUSH2 0x221 JUMP JUMPDEST PUSH1 0x40 MLOAD PUSH2 0xCB SWAP2 SWAP1 PUSH2 0x2D6 JUMP JUMPDEST PUSH1 0x40 MLOAD DUP1 SWAP2 SUB SWAP1 RETURN JUMPDEST PUSH2 0xDC PUSH2 0x232 JUMP JUMPDEST PUSH1 0x40 MLOAD PUSH2 0xE9 SWAP2 SWAP1 PUSH2 0x313 JUMP JUMPDEST PUSH1 0x40 MLOAD DUP1 SWAP2 SUB SWAP1 RETURN JUMPDEST PUSH1 0x0 PUSH1 0x1 SWAP1 SLOAD SWAP1 PUSH2 0x100 EXP SWAP1 DIV PUSH1 0x3 SIGNEXTEND DUP2 JUMP JUMPDEST PUSH1 0x2 DUP1 SLOAD PUSH2 0x112 SWAP1 PUSH2 0x414 JUMP JUMPDEST DUP1 PUSH1 0x1F ADD PUSH1 0x20 DUP1 SWAP2 DIV MUL PUSH1 0x20 ADD PUSH1 0x40 MLOAD SWAP1 DUP2 ADD PUSH1 0x40 MSTORE DUP1 SWAP3 SWAP2 SWAP1 DUP2 DUP2 MSTORE PUSH1 0x20 ADD DUP3 DUP1 SLOAD PUSH2 0x13E SWAP1 PUSH2 0x414 JUMP JUMPDEST DUP1 ISZERO PUSH2 0x18B JUMPI DUP1 PUSH1 0x1F LT PUSH2 0x160 JUMPI PUSH2 0x100 DUP1 DUP4 SLOAD DIV MUL DUP4 MSTORE SWAP2 PUSH1 0x20 ADD SWAP2 PUSH2 0x18B JUMP JUMPDEST DUP3 ADD SWAP2 SWAP1 PUSH1 0x0 MSTORE PUSH1 0x20 PUSH1 0x0 KECCAK256 SWAP1 JUMPDEST DUP2 SLOAD DUP2 MSTORE SWAP1 PUSH1 0x1 ADD SWAP1 PUSH1 0x20 ADD DUP1 DUP4 GT PUSH2 0x16E JUMPI DUP3 SWAP1 SUB PUSH1 0x1F AND DUP3 ADD SWAP2 JUMPDEST POP POP POP POP POP DUP2 JUMP JUMPDEST PUSH1 0x1 DUP1 SLOAD PUSH2 0x1A0 SWAP1 PUSH2 0x414 JUMP JUMPDEST DUP1 PUSH1 0x1F ADD PUSH1 0x20 DUP1 SWAP2 DIV MUL PUSH1 0x20 ADD PUSH1 0x40 MLOAD SWAP1 DUP2 ADD PUSH1 0x40 MSTORE DUP1 SWAP3 SWAP2 SWAP1 DUP2 DUP2 MSTORE PUSH1 0x20 ADD DUP3 DUP1 SLOAD PUSH2 0x1CC SWAP1 PUSH2 0x414 JUMP JUMPDEST DUP1 ISZERO PUSH2 0x219 JUMPI DUP1 PUSH1 0x1F LT PUSH2 0x1EE JUMPI PUSH2 0x100 DUP1 DUP4 SLOAD DIV MUL DUP4 MSTORE SWAP2 PUSH1 0x20 ADD SWAP2 PUSH2 0x219 JUMP JUMPDEST DUP3 ADD SWAP2 SWAP1 PUSH1 0x0 MSTORE PUSH1 0x20 PUSH1 0x0 KECCAK256 SWAP1 JUMPDEST DUP2 SLOAD DUP2 MSTORE SWAP1 PUSH1 0x1 ADD SWAP1 PUSH1 0x20 ADD DUP1 DUP4 GT PUSH2 0x1FC JUMPI DUP3 SWAP1 SUB PUSH1 0x1F AND DUP3 ADD SWAP2 JUMPDEST POP POP POP POP POP DUP2 JUMP JUMPDEST PUSH1 0x0 DUP1 SLOAD SWAP1 PUSH2 0x100 EXP SWAP1 DIV PUSH1 0xFF AND DUP2 JUMP JUMPDEST PUSH1 0x0 SWAP1 JUMP JUMPDEST PUSH2 0x240 DUP2 PUSH2 0x3A3 JUMP JUMPDEST DUP3 MSTORE POP POP JUMP JUMPDEST PUSH1 0x0 PUSH2 0x251 DUP3 PUSH2 0x36B JUMP JUMPDEST PUSH2 0x25B DUP2 DUP6 PUSH2 0x381 JUMP JUMPDEST SWAP4 POP PUSH2 0x26B DUP2 DUP6 PUSH1 0x20 DUP7 ADD PUSH2 0x3E1 JUMP JUMPDEST PUSH2 0x274 DUP2 PUSH2 0x4A4 JUMP JUMPDEST DUP5 ADD SWAP2 POP POP SWAP3 SWAP2 POP POP JUMP JUMPDEST PUSH2 0x288 DUP2 PUSH2 0x3CF JUMP JUMPDEST DUP3 MSTORE POP POP JUMP JUMPDEST PUSH2 0x297 DUP2 PUSH2 0x3C2 JUMP JUMPDEST DUP3 MSTORE POP POP JUMP JUMPDEST PUSH1 0x0 PUSH2 0x2A8 DUP3 PUSH2 0x376 JUMP JUMPDEST PUSH2 0x2B2 DUP2 DUP6 PUSH2 0x392 JUMP JUMPDEST SWAP4 POP PUSH2 0x2C2 DUP2 DUP6 PUSH1 0x20 DUP7 ADD PUSH2 0x3E1 JUMP JUMPDEST PUSH2 0x2CB DUP2 PUSH2 0x4A4 JUMP JUMPDEST DUP5 ADD SWAP2 POP POP SWAP3 SWAP2 POP POP JUMP JUMPDEST PUSH1 0x0 PUSH1 0x20 DUP3 ADD SWAP1 POP PUSH2 0x2EB PUSH1 0x0 DUP4 ADD DUP5 PUSH2 0x237 JUMP JUMPDEST SWAP3 SWAP2 POP POP JUMP JUMPDEST PUSH1 0x0 PUSH1 0x20 DUP3 ADD SWAP1 POP DUP2 DUP2 SUB PUSH1 0x0 DUP4 ADD MSTORE PUSH2 0x30B DUP2 DUP5 PUSH2 0x246 JUMP JUMPDEST SWAP1 POP SWAP3 SWAP2 POP POP JUMP JUMPDEST PUSH1 0x0 PUSH1 0x20 DUP3 ADD SWAP1 POP PUSH2 0x328 PUSH1 0x0 DUP4 ADD DUP5 PUSH2 0x27F JUMP JUMPDEST SWAP3 SWAP2 POP POP JUMP JUMPDEST PUSH1 0x0 PUSH1 0x20 DUP3 ADD SWAP1 POP PUSH2 0x343 PUSH1 0x0 DUP4 ADD DUP5 PUSH2 0x28E JUMP JUMPDEST SWAP3 SWAP2 POP POP JUMP JUMPDEST PUSH1 0x0 PUSH1 0x20 DUP3 ADD SWAP1 POP DUP2 DUP2 SUB PUSH1 0x0 DUP4 ADD MSTORE PUSH2 0x363 DUP2 DUP5 PUSH2 0x29D JUMP JUMPDEST SWAP1 POP SWAP3 SWAP2 POP POP JUMP JUMPDEST PUSH1 0x0 DUP2 MLOAD SWAP1 POP SWAP2 SWAP1 POP JUMP JUMPDEST PUSH1 0x0 DUP2 MLOAD SWAP1 POP SWAP2 SWAP1 POP JUMP JUMPDEST PUSH1 0x0 DUP3 DUP3 MSTORE PUSH1 0x20 DUP3 ADD SWAP1 POP SWAP3 SWAP2 POP POP JUMP JUMPDEST PUSH1 0x0 DUP3 DUP3 MSTORE PUSH1 0x20 DUP3 ADD SWAP1 POP SWAP3 SWAP2 POP POP JUMP JUMPDEST PUSH1 0x0 DUP2 ISZERO ISZERO SWAP1 POP SWAP2 SWAP1 POP JUMP JUMPDEST PUSH1 0x0 DUP2 SWAP1 POP PUSH2 0x3BD DUP3 PUSH2 0x4B5 JUMP JUMPDEST SWAP2 SWAP1 POP JUMP JUMPDEST PUSH1 0x0 DUP2 PUSH1 0x3 SIGNEXTEND SWAP1 POP SWAP2 SWAP1 POP JUMP JUMPDEST PUSH1 0x0 PUSH2 0x3DA DUP3 PUSH2 0x3AF JUMP JUMPDEST SWAP1 POP SWAP2 SWAP1 POP JUMP JUMPDEST PUSH1 0x0 JUMPDEST DUP4 DUP2 LT ISZERO PUSH2 0x3FF JUMPI DUP1 DUP3 ADD MLOAD DUP2 DUP5 ADD MSTORE PUSH1 0x20 DUP2 ADD SWAP1 POP PUSH2 0x3E4 JUMP JUMPDEST DUP4 DUP2 GT ISZERO PUSH2 0x40E JUMPI PUSH1 0x0 DUP5 DUP5 ADD MSTORE JUMPDEST POP POP POP POP JUMP JUMPDEST PUSH1 0x0 PUSH1 0x2 DUP3 DIV SWAP1 POP PUSH1 0x1 DUP3 AND DUP1 PUSH2 0x42C JUMPI PUSH1 0x7F DUP3 AND SWAP2 POP JUMPDEST PUSH1 0x20 DUP3 LT DUP2 EQ ISZERO PUSH2 0x440 JUMPI PUSH2 0x43F PUSH2 0x475 JUMP JUMPDEST JUMPDEST POP SWAP2 SWAP1 POP JUMP JUMPDEST PUSH32 0x4E487B7100000000000000000000000000000000000000000000000000000000 PUSH1 0x0 MSTORE PUSH1 0x21 PUSH1 0x4 MSTORE PUSH1 0x24 PUSH1 0x0 REVERT JUMPDEST PUSH32 0x4E487B7100000000000000000000000000000000000000000000000000000000 PUSH1 0x0 MSTORE PUSH1 0x22 PUSH1 0x4 MSTORE PUSH1 0x24 PUSH1 0x0 REVERT JUMPDEST PUSH1 0x0 PUSH1 0x1F NOT PUSH1 0x1F DUP4 ADD AND SWAP1 POP SWAP2 SWAP1 POP JUMP JUMPDEST PUSH1 0x3 DUP2 LT PUSH2 0x4C6 JUMPI PUSH2 0x4C5 PUSH2 0x446 JUMP JUMPDEST JUMPDEST POP JUMP INVALID LOG2 PUSH5 0x6970667358 0x22 SLT KECCAK256 DUP12 0xC0 0xC7 0xE0 LOG1 PUSH23 0x3864A854A4A37E2553541000726E3CE56D3C249C26E5FD 0xE9 LT 0xAA PUSH5 0x736F6C6343 STOP ADDMOD SMOD STOP CALLER "
				},
				"gasEstimates": {
					"creation": {
						"codeDepositCost": "255800",
						"executionCost": "infinite",
						"totalCost": "infinite"
					},
					"external": {
						"Enum()": "490",
						"b()": "infinite",
						"boolean()": "2512",
						"int_var()": "2503",
						"str()": "infinite"
					}
				},
				"methodIdentifiers": {
					"Enum()": "d2d47667",
					"b()": "4df7e3d0",
					"boolean()": "c5b57bdb",
					"int_var()": "2a3db8b2",
					"str()": "c15bae84"
				}
			},
			"storageLayout": {
				"storage": [
					{
						"astId": 4,
						"contract": "Contract-In-Dept/Types.sol:Types",
						"label": "boolean",
						"offset": 0,
						"slot": "0",
						"type": "t_bool"
					},
					{
						"astId": 8,
						"contract": "Contract-In-Dept/Types.sol:Types",
						"label": "int_var",
						"offset": 1,
						"slot": "0",
						"type": "t_int32"
					},
					{
						"astId": 11,
						"contract": "Contract-In-Dept/Types.sol:Types",
						"label": "str",
						"offset": 0,
						"slot": "1",
						"type": "t_string_storage"
					},
					{
						"astId": 14,
						"contract": "Contract-In-Dept/Types.sol:Types",
						"label": "b",
						"offset": 0,
						"slot": "2",
						"type": "t_bytes_storage"
					}
				],
				"types": {
					"t_bool": {
						"encoding": "inplace",
						"label": "bool",
						"numberOfBytes": "1"
					},
					"t_bytes_storage": {
						"encoding": "bytes",
						"label": "bytes",
						"numberOfBytes": "32"
					},
					"t_int32": {
						"encoding": "inplace",
						"label": "int32",
						"numberOfBytes": "4"
					},
					"t_string_storage": {
						"encoding": "bytes",
						"label": "string",
						"numberOfBytes": "32"
					}
				}
			},
			"userdoc": {
				"kind": "user",
				"methods": {},
				"version": 1
			}
		}
	}
}