{
	"Contract-In-Dept/Functions.sol": {
		"Consumer": {
			"abi": [
				{
					"inputs": [],
					"name": "callFeed",
					"outputs": [],
					"stateMutability": "nonpayable",
					"type": "function"
				},
				{
					"inputs": [
						{
							"internalType": "contract Function",
							"name": "addr",
							"type": "address"
						}
					],
					"name": "setFeed",
					"outputs": [],
					"stateMutability": "nonpayable",
					"type": "function"
				}
			],
			"devdoc": {
				"kind": "dev",
				"methods": {},
				"version": 1
			},
			"evm": {
				"assembly": "    /* \"Contract-In-Dept/Functions.sol\":429:703  contract Consumer{\r... */\n  mstore(0x40, 0x80)\n  callvalue\n  dup1\n  iszero\n  tag_1\n  jumpi\n  0x00\n  dup1\n  revert\ntag_1:\n  pop\n  dataSize(sub_0)\n  dup1\n  dataOffset(sub_0)\n  0x00\n  codecopy\n  0x00\n  return\nstop\n\nsub_0: assembly {\n        /* \"Contract-In-Dept/Functions.sol\":429:703  contract Consumer{\r... */\n      mstore(0x40, 0x80)\n      callvalue\n      dup1\n      iszero\n      tag_1\n      jumpi\n      0x00\n      dup1\n      revert\n    tag_1:\n      pop\n      jumpi(tag_2, lt(calldatasize, 0x04))\n      shr(0xe0, calldataload(0x00))\n      dup1\n      0x55b775ea\n      eq\n      tag_3\n      jumpi\n      dup1\n      0xf198f5df\n      eq\n      tag_4\n      jumpi\n    tag_2:\n      0x00\n      dup1\n      revert\n        /* \"Contract-In-Dept/Functions.sol\":578:632  function setFeed(Function addr) public{ _feed = addr;} */\n    tag_3:\n      tag_5\n      0x04\n      dup1\n      calldatasize\n      sub\n      dup2\n      add\n      swap1\n      tag_6\n      swap2\n      swap1\n      tag_7\n      jump\t// in\n    tag_6:\n      tag_8\n      jump\t// in\n    tag_5:\n      stop\n        /* \"Contract-In-Dept/Functions.sol\":638:700  function callFeed() public {_feed.feed{value: 10, gas:800}();} */\n    tag_4:\n      tag_9\n      tag_10\n      jump\t// in\n    tag_9:\n      stop\n        /* \"Contract-In-Dept/Functions.sol\":578:632  function setFeed(Function addr) public{ _feed = addr;} */\n    tag_8:\n        /* \"Contract-In-Dept/Functions.sol\":626:630  addr */\n      dup1\n        /* \"Contract-In-Dept/Functions.sol\":618:623  _feed */\n      0x00\n      dup1\n        /* \"Contract-In-Dept/Functions.sol\":618:630  _feed = addr */\n      0x0100\n      exp\n      dup2\n      sload\n      dup2\n      0xffffffffffffffffffffffffffffffffffffffff\n      mul\n      not\n      and\n      swap1\n      dup4\n      0xffffffffffffffffffffffffffffffffffffffff\n      and\n      mul\n      or\n      swap1\n      sstore\n      pop\n        /* \"Contract-In-Dept/Functions.sol\":578:632  function setFeed(Function addr) public{ _feed = addr;} */\n      pop\n      jump\t// out\n        /* \"Contract-In-Dept/Functions.sol\":638:700  function callFeed() public {_feed.feed{value: 10, gas:800}();} */\n    tag_10:\n        /* \"Contract-In-Dept/Functions.sol\":666:671  _feed */\n      0x00\n      dup1\n      sload\n      swap1\n      0x0100\n      exp\n      swap1\n      div\n      0xffffffffffffffffffffffffffffffffffffffff\n      and\n        /* \"Contract-In-Dept/Functions.sol\":666:676  _feed.feed */\n      0xffffffffffffffffffffffffffffffffffffffff\n      and\n      0x37a7b7d8\n        /* \"Contract-In-Dept/Functions.sol\":684:686  10 */\n      0x0a\n        /* \"Contract-In-Dept/Functions.sol\":692:695  800 */\n      0x0320\n        /* \"Contract-In-Dept/Functions.sol\":666:698  _feed.feed{value: 10, gas:800}() */\n      swap1\n      mload(0x40)\n      dup4\n      0xffffffff\n      and\n      0xe0\n      shl\n      dup2\n      mstore\n      0x04\n      add\n      0x20\n      mload(0x40)\n      dup1\n      dup4\n      sub\n      dup2\n      dup6\n      dup10\n      dup1\n      extcodesize\n      iszero\n      dup1\n      iszero\n      tag_13\n      jumpi\n      0x00\n      dup1\n      revert\n    tag_13:\n      pop\n      dup9\n      call\n      iszero\n      dup1\n      iszero\n      tag_15\n      jumpi\n      returndatasize\n      0x00\n      dup1\n      returndatacopy\n      revert(0x00, returndatasize)\n    tag_15:\n      pop\n      pop\n      pop\n      pop\n      pop\n      pop\n      mload(0x40)\n      returndatasize\n      not(0x1f)\n      0x1f\n      dup3\n      add\n      and\n      dup3\n      add\n      dup1\n      0x40\n      mstore\n      pop\n      dup2\n      add\n      swap1\n      tag_16\n      swap2\n      swap1\n      tag_17\n      jump\t// in\n    tag_16:\n      pop\n        /* \"Contract-In-Dept/Functions.sol\":638:700  function callFeed() public {_feed.feed{value: 10, gas:800}();} */\n      jump\t// out\n        /* \"#utility.yul\":7:176   */\n    tag_19:\n        /* \"#utility.yul\":68:73   */\n      0x00\n        /* \"#utility.yul\":106:112   */\n      dup2\n        /* \"#utility.yul\":93:113   */\n      calldataload\n        /* \"#utility.yul\":84:113   */\n      swap1\n      pop\n        /* \"#utility.yul\":122:170   */\n      tag_21\n        /* \"#utility.yul\":164:169   */\n      dup2\n        /* \"#utility.yul\":122:170   */\n      tag_22\n      jump\t// in\n    tag_21:\n        /* \"#utility.yul\":7:176   */\n      swap3\n      swap2\n      pop\n      pop\n      jump\t// out\n        /* \"#utility.yul\":182:325   */\n    tag_23:\n        /* \"#utility.yul\":239:244   */\n      0x00\n        /* \"#utility.yul\":270:276   */\n      dup2\n        /* \"#utility.yul\":264:277   */\n      mload\n        /* \"#utility.yul\":255:277   */\n      swap1\n      pop\n        /* \"#utility.yul\":286:319   */\n      tag_25\n        /* \"#utility.yul\":313:318   */\n      dup2\n        /* \"#utility.yul\":286:319   */\n      tag_26\n      jump\t// in\n    tag_25:\n        /* \"#utility.yul\":182:325   */\n      swap3\n      swap2\n      pop\n      pop\n      jump\t// out\n        /* \"#utility.yul\":331:690   */\n    tag_7:\n        /* \"#utility.yul\":405:411   */\n      0x00\n        /* \"#utility.yul\":454:456   */\n      0x20\n        /* \"#utility.yul\":442:451   */\n      dup3\n        /* \"#utility.yul\":433:440   */\n      dup5\n        /* \"#utility.yul\":429:452   */\n      sub\n        /* \"#utility.yul\":425:457   */\n      slt\n        /* \"#utility.yul\":422:541   */\n      iszero\n      tag_28\n      jumpi\n        /* \"#utility.yul\":460:539   */\n      tag_29\n      tag_30\n      jump\t// in\n    tag_29:\n        /* \"#utility.yul\":422:541   */\n    tag_28:\n        /* \"#utility.yul\":580:581   */\n      0x00\n        /* \"#utility.yul\":605:673   */\n      tag_31\n        /* \"#utility.yul\":665:672   */\n      dup5\n        /* \"#utility.yul\":656:662   */\n      dup3\n        /* \"#utility.yul\":645:654   */\n      dup6\n        /* \"#utility.yul\":641:663   */\n      add\n        /* \"#utility.yul\":605:673   */\n      tag_19\n      jump\t// in\n    tag_31:\n        /* \"#utility.yul\":595:673   */\n      swap2\n      pop\n        /* \"#utility.yul\":551:683   */\n      pop\n        /* \"#utility.yul\":331:690   */\n      swap3\n      swap2\n      pop\n      pop\n      jump\t// out\n        /* \"#utility.yul\":696:1047   */\n    tag_17:\n        /* \"#utility.yul\":766:772   */\n      0x00\n        /* \"#utility.yul\":815:817   */\n      0x20\n        /* \"#utility.yul\":803:812   */\n      dup3\n        /* \"#utility.yul\":794:801   */\n      dup5\n        /* \"#utility.yul\":790:813   */\n      sub\n        /* \"#utility.yul\":786:818   */\n      slt\n        /* \"#utility.yul\":783:902   */\n      iszero\n      tag_33\n      jumpi\n        /* \"#utility.yul\":821:900   */\n      tag_34\n      tag_30\n      jump\t// in\n    tag_34:\n        /* \"#utility.yul\":783:902   */\n    tag_33:\n        /* \"#utility.yul\":941:942   */\n      0x00\n        /* \"#utility.yul\":966:1030   */\n      tag_35\n        /* \"#utility.yul\":1022:1029   */\n      dup5\n        /* \"#utility.yul\":1013:1019   */\n      dup3\n        /* \"#utility.yul\":1002:1011   */\n      dup6\n        /* \"#utility.yul\":998:1020   */\n      add\n        /* \"#utility.yul\":966:1030   */\n      tag_23\n      jump\t// in\n    tag_35:\n        /* \"#utility.yul\":956:1030   */\n      swap2\n      pop\n        /* \"#utility.yul\":912:1040   */\n      pop\n        /* \"#utility.yul\":696:1047   */\n      swap3\n      swap2\n      pop\n      pop\n      jump\t// out\n        /* \"#utility.yul\":1134:1230   */\n    tag_38:\n        /* \"#utility.yul\":1171:1178   */\n      0x00\n        /* \"#utility.yul\":1200:1224   */\n      tag_40\n        /* \"#utility.yul\":1218:1223   */\n      dup3\n        /* \"#utility.yul\":1200:1224   */\n      tag_41\n      jump\t// in\n    tag_40:\n        /* \"#utility.yul\":1189:1224   */\n      swap1\n      pop\n        /* \"#utility.yul\":1134:1230   */\n      swap2\n      swap1\n      pop\n      jump\t// out\n        /* \"#utility.yul\":1236:1347   */\n    tag_42:\n        /* \"#utility.yul\":1288:1295   */\n      0x00\n        /* \"#utility.yul\":1317:1341   */\n      tag_44\n        /* \"#utility.yul\":1335:1340   */\n      dup3\n        /* \"#utility.yul\":1317:1341   */\n      tag_38\n      jump\t// in\n    tag_44:\n        /* \"#utility.yul\":1306:1341   */\n      swap1\n      pop\n        /* \"#utility.yul\":1236:1347   */\n      swap2\n      swap1\n      pop\n      jump\t// out\n        /* \"#utility.yul\":1353:1479   */\n    tag_41:\n        /* \"#utility.yul\":1390:1397   */\n      0x00\n        /* \"#utility.yul\":1430:1472   */\n      0xffffffffffffffffffffffffffffffffffffffff\n        /* \"#utility.yul\":1423:1428   */\n      dup3\n        /* \"#utility.yul\":1419:1473   */\n      and\n        /* \"#utility.yul\":1408:1473   */\n      swap1\n      pop\n        /* \"#utility.yul\":1353:1479   */\n      swap2\n      swap1\n      pop\n      jump\t// out\n        /* \"#utility.yul\":1485:1562   */\n    tag_46:\n        /* \"#utility.yul\":1522:1529   */\n      0x00\n        /* \"#utility.yul\":1551:1556   */\n      dup2\n        /* \"#utility.yul\":1540:1556   */\n      swap1\n      pop\n        /* \"#utility.yul\":1485:1562   */\n      swap2\n      swap1\n      pop\n      jump\t// out\n        /* \"#utility.yul\":1691:1808   */\n    tag_30:\n        /* \"#utility.yul\":1800:1801   */\n      0x00\n        /* \"#utility.yul\":1797:1798   */\n      dup1\n        /* \"#utility.yul\":1790:1802   */\n      revert\n        /* \"#utility.yul\":1814:1966   */\n    tag_22:\n        /* \"#utility.yul\":1902:1941   */\n      tag_52\n        /* \"#utility.yul\":1935:1940   */\n      dup2\n        /* \"#utility.yul\":1902:1941   */\n      tag_42\n      jump\t// in\n    tag_52:\n        /* \"#utility.yul\":1895:1900   */\n      dup2\n        /* \"#utility.yul\":1892:1942   */\n      eq\n        /* \"#utility.yul\":1882:1960   */\n      tag_53\n      jumpi\n        /* \"#utility.yul\":1956:1957   */\n      0x00\n        /* \"#utility.yul\":1953:1954   */\n      dup1\n        /* \"#utility.yul\":1946:1958   */\n      revert\n        /* \"#utility.yul\":1882:1960   */\n    tag_53:\n        /* \"#utility.yul\":1814:1966   */\n      pop\n      jump\t// out\n        /* \"#utility.yul\":1972:2094   */\n    tag_26:\n        /* \"#utility.yul\":2045:2069   */\n      tag_55\n        /* \"#utility.yul\":2063:2068   */\n      dup2\n        /* \"#utility.yul\":2045:2069   */\n      tag_46\n      jump\t// in\n    tag_55:\n        /* \"#utility.yul\":2038:2043   */\n      dup2\n        /* \"#utility.yul\":2035:2070   */\n      eq\n        /* \"#utility.yul\":2025:2088   */\n      tag_56\n      jumpi\n        /* \"#utility.yul\":2084:2085   */\n      0x00\n        /* \"#utility.yul\":2081:2082   */\n      dup1\n        /* \"#utility.yul\":2074:2086   */\n      revert\n        /* \"#utility.yul\":2025:2088   */\n    tag_56:\n        /* \"#utility.yul\":1972:2094   */\n      pop\n      jump\t// out\n\n    auxdata: 0xa26469706673582212203cc31877afb49b9378871c116645e82ffca37a0fa74e72f9d90102731d315feb64736f6c63430008070033\n}\n",
				"bytecode": {
					"linkReferences": {},
					"object": "608060405234801561001057600080fd5b50610289806100206000396000f3fe608060405234801561001057600080fd5b50600436106100365760003560e01c806355b775ea1461003b578063f198f5df14610057575b600080fd5b61005560048036038101906100509190610178565b610061565b005b61005f6100a4565b005b806000806101000a81548173ffffffffffffffffffffffffffffffffffffffff021916908373ffffffffffffffffffffffffffffffffffffffff16021790555050565b60008054906101000a900473ffffffffffffffffffffffffffffffffffffffff1673ffffffffffffffffffffffffffffffffffffffff166337a7b7d8600a610320906040518363ffffffff1660e01b81526004016020604051808303818589803b15801561011157600080fd5b5088f1158015610125573d6000803e3d6000fd5b5050505050506040513d601f19601f8201168201806040525081019061014b91906101a5565b50565b60008135905061015d81610225565b92915050565b6000815190506101728161023c565b92915050565b60006020828403121561018e5761018d610220565b5b600061019c8482850161014e565b91505092915050565b6000602082840312156101bb576101ba610220565b5b60006101c984828501610163565b91505092915050565b60006101dd826101f6565b9050919050565b60006101ef826101d2565b9050919050565b600073ffffffffffffffffffffffffffffffffffffffff82169050919050565b6000819050919050565b600080fd5b61022e816101e4565b811461023957600080fd5b50565b61024581610216565b811461025057600080fd5b5056fea26469706673582212203cc31877afb49b9378871c116645e82ffca37a0fa74e72f9d90102731d315feb64736f6c63430008070033",
					"opcodes": "PUSH1 0x80 PUSH1 0x40 MSTORE CALLVALUE DUP1 ISZERO PUSH2 0x10 JUMPI PUSH1 0x0 DUP1 REVERT JUMPDEST POP PUSH2 0x289 DUP1 PUSH2 0x20 PUSH1 0x0 CODECOPY PUSH1 0x0 RETURN INVALID PUSH1 0x80 PUSH1 0x40 MSTORE CALLVALUE DUP1 ISZERO PUSH2 0x10 JUMPI PUSH1 0x0 DUP1 REVERT JUMPDEST POP PUSH1 0x4 CALLDATASIZE LT PUSH2 0x36 JUMPI PUSH1 0x0 CALLDATALOAD PUSH1 0xE0 SHR DUP1 PUSH4 0x55B775EA EQ PUSH2 0x3B JUMPI DUP1 PUSH4 0xF198F5DF EQ PUSH2 0x57 JUMPI JUMPDEST PUSH1 0x0 DUP1 REVERT JUMPDEST PUSH2 0x55 PUSH1 0x4 DUP1 CALLDATASIZE SUB DUP2 ADD SWAP1 PUSH2 0x50 SWAP2 SWAP1 PUSH2 0x178 JUMP JUMPDEST PUSH2 0x61 JUMP JUMPDEST STOP JUMPDEST PUSH2 0x5F PUSH2 0xA4 JUMP JUMPDEST STOP JUMPDEST DUP1 PUSH1 0x0 DUP1 PUSH2 0x100 EXP DUP2 SLOAD DUP2 PUSH20 0xFFFFFFFFFFFFFFFFFFFFFFFFFFFFFFFFFFFFFFFF MUL NOT AND SWAP1 DUP4 PUSH20 0xFFFFFFFFFFFFFFFFFFFFFFFFFFFFFFFFFFFFFFFF AND MUL OR SWAP1 SSTORE POP POP JUMP JUMPDEST PUSH1 0x0 DUP1 SLOAD SWAP1 PUSH2 0x100 EXP SWAP1 DIV PUSH20 0xFFFFFFFFFFFFFFFFFFFFFFFFFFFFFFFFFFFFFFFF AND PUSH20 0xFFFFFFFFFFFFFFFFFFFFFFFFFFFFFFFFFFFFFFFF AND PUSH4 0x37A7B7D8 PUSH1 0xA PUSH2 0x320 SWAP1 PUSH1 0x40 MLOAD DUP4 PUSH4 0xFFFFFFFF AND PUSH1 0xE0 SHL DUP2 MSTORE PUSH1 0x4 ADD PUSH1 0x20 PUSH1 0x40 MLOAD DUP1 DUP4 SUB DUP2 DUP6 DUP10 DUP1 EXTCODESIZE ISZERO DUP1 ISZERO PUSH2 0x111 JUMPI PUSH1 0x0 DUP1 REVERT JUMPDEST POP DUP9 CALL ISZERO DUP1 ISZERO PUSH2 0x125 JUMPI RETURNDATASIZE PUSH1 0x0 DUP1 RETURNDATACOPY RETURNDATASIZE PUSH1 0x0 REVERT JUMPDEST POP POP POP POP POP POP PUSH1 0x40 MLOAD RETURNDATASIZE PUSH1 0x1F NOT PUSH1 0x1F DUP3 ADD AND DUP3 ADD DUP1 PUSH1 0x40 MSTORE POP DUP2 ADD SWAP1 PUSH2 0x14B SWAP2 SWAP1 PUSH2 0x1A5 JUMP JUMPDEST POP JUMP JUMPDEST PUSH1 0x0 DUP2 CALLDATALOAD SWAP1 POP PUSH2 0x15D DUP2 PUSH2 0x225 JUMP JUMPDEST SWAP3 SWAP2 POP POP JUMP JUMPDEST PUSH1 0x0 DUP2 MLOAD SWAP1 POP PUSH2 0x172 DUP2 PUSH2 0x23C JUMP JUMPDEST SWAP3 SWAP2 POP POP JUMP JUMPDEST PUSH1 0x0 PUSH1 0x20 DUP3 DUP5 SUB SLT ISZERO PUSH2 0x18E JUMPI PUSH2 0x18D PUSH2 0x220 JUMP JUMPDEST JUMPDEST PUSH1 0x0 PUSH2 0x19C DUP5 DUP3 DUP6 ADD PUSH2 0x14E JUMP JUMPDEST SWAP2 POP POP SWAP3 SWAP2 POP POP JUMP JUMPDEST PUSH1 0x0 PUSH1 0x20 DUP3 DUP5 SUB SLT ISZERO PUSH2 0x1BB JUMPI PUSH2 0x1BA PUSH2 0x220 JUMP JUMPDEST JUMPDEST PUSH1 0x0 PUSH2 0x1C9 DUP5 DUP3 DUP6 ADD PUSH2 0x163 JUMP JUMPDEST SWAP2 POP POP SWAP3 SWAP2 POP POP JUMP JUMPDEST PUSH1 0x0 PUSH2 0x1DD DUP3 PUSH2 0x1F6 JUMP JUMPDEST SWAP1 POP SWAP2 SWAP1 POP JUMP JUMPDEST PUSH1 0x0 PUSH2 0x1EF DUP3 PUSH2 0x1D2 JUMP JUMPDEST SWAP1 POP SWAP2 SWAP1 POP JUMP JUMPDEST PUSH1 0x0 PUSH20 0xFFFFFFFFFFFFFFFFFFFFFFFFFFFFFFFFFFFFFFFF DUP3 AND SWAP1 POP SWAP2 SWAP1 POP JUMP JUMPDEST PUSH1 0x0 DUP2 SWAP1 POP SWAP2 SWAP1 POP JUMP JUMPDEST PUSH1 0x0 DUP1 REVERT JUMPDEST PUSH2 0x22E DUP2 PUSH2 0x1E4 JUMP JUMPDEST DUP2 EQ PUSH2 0x239 JUMPI PUSH1 0x0 DUP1 REVERT JUMPDEST POP JUMP JUMPDEST PUSH2 0x245 DUP2 PUSH2 0x216 JUMP JUMPDEST DUP2 EQ PUSH2 0x250 JUMPI PUSH1 0x0 DUP1 REVERT JUMPDEST POP JUMP INVALID LOG2 PUSH5 0x6970667358 0x22 SLT KECCAK256 EXTCODECOPY 0xC3 XOR PUSH24 0xAFB49B9378871C116645E82FFCA37A0FA74E72F9D9010273 SAR BALANCE 0x5F 0xEB PUSH5 0x736F6C6343 STOP ADDMOD SMOD STOP CALLER "
				},
				"gasEstimates": {
					"creation": {
						"codeDepositCost": "129800",
						"executionCost": "177",
						"totalCost": "129977"
					},
					"external": {
						"callFeed()": "infinite",
						"setFeed(address)": "24743"
					}
				},
				"methodIdentifiers": {
					"callFeed()": "f198f5df",
					"setFeed(address)": "55b775ea"
				}
			},
			"storageLayout": {
				"storage": [
					{
						"astId": 39,
						"contract": "Contract-In-Dept/Functions.sol:Consumer",
						"label": "_feed",
						"offset": 0,
						"slot": "0",
						"type": "t_contract(Function)36"
					}
				],
				"types": {
					"t_contract(Function)36": {
						"encoding": "inplace",
						"label": "contract Function",
						"numberOfBytes": "20"
					}
				}
			},
			"userdoc": {
				"kind": "user",
				"methods": {},
				"version": 1
			}
		}
	}
}