{
	"Contract-In-Dept/FunctionsModifiers.sol": {
		"Mutex": {
			"abi": [
				{
					"inputs": [],
					"name": "f",
					"outputs": [
						{
							"internalType": "uint256",
							"name": "",
							"type": "uint256"
						}
					],
					"stateMutability": "nonpayable",
					"type": "function"
				}
			],
			"devdoc": {
				"kind": "dev",
				"methods": {},
				"version": 1
			},
			"evm": {
				"assembly": "    /* \"Contract-In-Dept/FunctionsModifiers.sol\":2059:2716  contract Mutex{\r... */\n  mstore(0x40, 0x80)\n  callvalue\n  dup1\n  iszero\n  tag_1\n  jumpi\n  0x00\n  dup1\n  revert\ntag_1:\n  pop\n  dataSize(sub_0)\n  dup1\n  dataOffset(sub_0)\n  0x00\n  codecopy\n  0x00\n  return\nstop\n\nsub_0: assembly {\n        /* \"Contract-In-Dept/FunctionsModifiers.sol\":2059:2716  contract Mutex{\r... */\n      mstore(0x40, 0x80)\n      callvalue\n      dup1\n      iszero\n      tag_1\n      jumpi\n      0x00\n      dup1\n      revert\n    tag_1:\n      pop\n      jumpi(tag_2, lt(calldatasize, 0x04))\n      shr(0xe0, calldataload(0x00))\n      dup1\n      0x26121ff0\n      eq\n      tag_3\n      jumpi\n    tag_2:\n      0x00\n      dup1\n      revert\n        /* \"Contract-In-Dept/FunctionsModifiers.sol\":2562:2713  function f() public noReentrancy returns(uint256){\r... */\n    tag_3:\n      tag_4\n      tag_5\n      jump\t// in\n    tag_4:\n      mload(0x40)\n      tag_6\n      swap2\n      swap1\n      tag_7\n      jump\t// in\n    tag_6:\n      mload(0x40)\n      dup1\n      swap2\n      sub\n      swap1\n      return\n    tag_5:\n        /* \"Contract-In-Dept/FunctionsModifiers.sol\":2603:2610  uint256 */\n      0x00\n        /* \"Contract-In-Dept/FunctionsModifiers.sol\":2155:2161  locked */\n      dup1\n      0x00\n      swap1\n      sload\n      swap1\n      0x0100\n      exp\n      swap1\n      div\n      0xff\n      and\n        /* \"Contract-In-Dept/FunctionsModifiers.sol\":2154:2161  !locked */\n      iszero\n        /* \"Contract-In-Dept/FunctionsModifiers.sol\":2132:2203  require(\r... */\n      tag_9\n      jumpi\n      mload(0x40)\n      0x08c379a000000000000000000000000000000000000000000000000000000000\n      dup2\n      mstore\n      0x04\n      add\n      tag_10\n      swap1\n      tag_11\n      jump\t// in\n    tag_10:\n      mload(0x40)\n      dup1\n      swap2\n      sub\n      swap1\n      revert\n    tag_9:\n        /* \"Contract-In-Dept/FunctionsModifiers.sol\":2223:2227  true */\n      0x01\n        /* \"Contract-In-Dept/FunctionsModifiers.sol\":2214:2220  locked */\n      0x00\n      dup1\n        /* \"Contract-In-Dept/FunctionsModifiers.sol\":2214:2227  locked = true */\n      0x0100\n      exp\n      dup2\n      sload\n      dup2\n      0xff\n      mul\n      not\n      and\n      swap1\n      dup4\n      iszero\n      iszero\n      mul\n      or\n      swap1\n      sstore\n      pop\n        /* \"Contract-In-Dept/FunctionsModifiers.sol\":2623:2635  bool success */\n      0x00\n        /* \"Contract-In-Dept/FunctionsModifiers.sol\":2640:2650  msg.sender */\n      caller\n        /* \"Contract-In-Dept/FunctionsModifiers.sol\":2640:2655  msg.sender.call */\n      0xffffffffffffffffffffffffffffffffffffffff\n      and\n        /* \"Contract-In-Dept/FunctionsModifiers.sol\":2640:2659  msg.sender.call(\"\") */\n      mload(0x40)\n      tag_13\n      swap1\n      tag_14\n      jump\t// in\n    tag_13:\n      0x00\n      mload(0x40)\n      dup1\n      dup4\n      sub\n      dup2\n      0x00\n      dup7\n      gas\n      call\n      swap2\n      pop\n      pop\n      returndatasize\n      dup1\n      0x00\n      dup2\n      eq\n      tag_17\n      jumpi\n      mload(0x40)\n      swap2\n      pop\n      and(add(returndatasize, 0x3f), not(0x1f))\n      dup3\n      add\n      0x40\n      mstore\n      returndatasize\n      dup3\n      mstore\n      returndatasize\n      0x00\n      0x20\n      dup5\n      add\n      returndatacopy\n      jump(tag_16)\n    tag_17:\n      0x60\n      swap2\n      pop\n    tag_16:\n      pop\n        /* \"Contract-In-Dept/FunctionsModifiers.sol\":2622:2659  (bool success,) = msg.sender.call(\"\") */\n      pop\n      swap1\n      pop\n        /* \"Contract-In-Dept/FunctionsModifiers.sol\":2678:2685  success */\n      dup1\n        /* \"Contract-In-Dept/FunctionsModifiers.sol\":2670:2686  require(success) */\n      tag_18\n      jumpi\n      0x00\n      dup1\n      revert\n    tag_18:\n        /* \"Contract-In-Dept/FunctionsModifiers.sol\":2704:2705  7 */\n      0x07\n        /* \"Contract-In-Dept/FunctionsModifiers.sol\":2697:2705  return 7 */\n      swap2\n      pop\n      pop\n        /* \"Contract-In-Dept/FunctionsModifiers.sol\":2260:2265  false */\n      0x00\n        /* \"Contract-In-Dept/FunctionsModifiers.sol\":2251:2257  locked */\n      dup1\n      0x00\n        /* \"Contract-In-Dept/FunctionsModifiers.sol\":2251:2265  locked = false */\n      0x0100\n      exp\n      dup2\n      sload\n      dup2\n      0xff\n      mul\n      not\n      and\n      swap1\n      dup4\n      iszero\n      iszero\n      mul\n      or\n      swap1\n      sstore\n      pop\n        /* \"Contract-In-Dept/FunctionsModifiers.sol\":2562:2713  function f() public noReentrancy returns(uint256){\r... */\n      swap1\n      jump\t// out\n        /* \"#utility.yul\":7:373   */\n    tag_20:\n        /* \"#utility.yul\":149:152   */\n      0x00\n        /* \"#utility.yul\":170:237   */\n      tag_22\n        /* \"#utility.yul\":234:236   */\n      0x0e\n        /* \"#utility.yul\":229:232   */\n      dup4\n        /* \"#utility.yul\":170:237   */\n      tag_23\n      jump\t// in\n    tag_22:\n        /* \"#utility.yul\":163:237   */\n      swap2\n      pop\n        /* \"#utility.yul\":246:339   */\n      tag_24\n        /* \"#utility.yul\":335:338   */\n      dup3\n        /* \"#utility.yul\":246:339   */\n      tag_25\n      jump\t// in\n    tag_24:\n        /* \"#utility.yul\":364:366   */\n      0x20\n        /* \"#utility.yul\":359:362   */\n      dup3\n        /* \"#utility.yul\":355:367   */\n      add\n        /* \"#utility.yul\":348:367   */\n      swap1\n      pop\n        /* \"#utility.yul\":7:373   */\n      swap2\n      swap1\n      pop\n      jump\t// out\n        /* \"#utility.yul\":379:777   */\n    tag_26:\n        /* \"#utility.yul\":538:541   */\n      0x00\n        /* \"#utility.yul\":559:642   */\n      tag_28\n        /* \"#utility.yul\":640:641   */\n      0x00\n        /* \"#utility.yul\":635:638   */\n      dup4\n        /* \"#utility.yul\":559:642   */\n      tag_29\n      jump\t// in\n    tag_28:\n        /* \"#utility.yul\":552:642   */\n      swap2\n      pop\n        /* \"#utility.yul\":651:744   */\n      tag_30\n        /* \"#utility.yul\":740:743   */\n      dup3\n        /* \"#utility.yul\":651:744   */\n      tag_31\n      jump\t// in\n    tag_30:\n        /* \"#utility.yul\":769:770   */\n      0x00\n        /* \"#utility.yul\":764:767   */\n      dup3\n        /* \"#utility.yul\":760:771   */\n      add\n        /* \"#utility.yul\":753:771   */\n      swap1\n      pop\n        /* \"#utility.yul\":379:777   */\n      swap2\n      swap1\n      pop\n      jump\t// out\n        /* \"#utility.yul\":783:901   */\n    tag_32:\n        /* \"#utility.yul\":870:894   */\n      tag_34\n        /* \"#utility.yul\":888:893   */\n      dup2\n        /* \"#utility.yul\":870:894   */\n      tag_35\n      jump\t// in\n    tag_34:\n        /* \"#utility.yul\":865:868   */\n      dup3\n        /* \"#utility.yul\":858:895   */\n      mstore\n        /* \"#utility.yul\":783:901   */\n      pop\n      pop\n      jump\t// out\n        /* \"#utility.yul\":907:1286   */\n    tag_14:\n        /* \"#utility.yul\":1091:1094   */\n      0x00\n        /* \"#utility.yul\":1113:1260   */\n      tag_37\n        /* \"#utility.yul\":1256:1259   */\n      dup3\n        /* \"#utility.yul\":1113:1260   */\n      tag_26\n      jump\t// in\n    tag_37:\n        /* \"#utility.yul\":1106:1260   */\n      swap2\n      pop\n        /* \"#utility.yul\":1277:1280   */\n      dup2\n        /* \"#utility.yul\":1270:1280   */\n      swap1\n      pop\n        /* \"#utility.yul\":907:1286   */\n      swap2\n      swap1\n      pop\n      jump\t// out\n        /* \"#utility.yul\":1292:1711   */\n    tag_11:\n        /* \"#utility.yul\":1458:1462   */\n      0x00\n        /* \"#utility.yul\":1496:1498   */\n      0x20\n        /* \"#utility.yul\":1485:1494   */\n      dup3\n        /* \"#utility.yul\":1481:1499   */\n      add\n        /* \"#utility.yul\":1473:1499   */\n      swap1\n      pop\n        /* \"#utility.yul\":1545:1554   */\n      dup2\n        /* \"#utility.yul\":1539:1543   */\n      dup2\n        /* \"#utility.yul\":1535:1555   */\n      sub\n        /* \"#utility.yul\":1531:1532   */\n      0x00\n        /* \"#utility.yul\":1520:1529   */\n      dup4\n        /* \"#utility.yul\":1516:1533   */\n      add\n        /* \"#utility.yul\":1509:1556   */\n      mstore\n        /* \"#utility.yul\":1573:1704   */\n      tag_39\n        /* \"#utility.yul\":1699:1703   */\n      dup2\n        /* \"#utility.yul\":1573:1704   */\n      tag_20\n      jump\t// in\n    tag_39:\n        /* \"#utility.yul\":1565:1704   */\n      swap1\n      pop\n        /* \"#utility.yul\":1292:1711   */\n      swap2\n      swap1\n      pop\n      jump\t// out\n        /* \"#utility.yul\":1717:1939   */\n    tag_7:\n        /* \"#utility.yul\":1810:1814   */\n      0x00\n        /* \"#utility.yul\":1848:1850   */\n      0x20\n        /* \"#utility.yul\":1837:1846   */\n      dup3\n        /* \"#utility.yul\":1833:1851   */\n      add\n        /* \"#utility.yul\":1825:1851   */\n      swap1\n      pop\n        /* \"#utility.yul\":1861:1932   */\n      tag_41\n        /* \"#utility.yul\":1929:1930   */\n      0x00\n        /* \"#utility.yul\":1918:1927   */\n      dup4\n        /* \"#utility.yul\":1914:1931   */\n      add\n        /* \"#utility.yul\":1905:1911   */\n      dup5\n        /* \"#utility.yul\":1861:1932   */\n      tag_32\n      jump\t// in\n    tag_41:\n        /* \"#utility.yul\":1717:1939   */\n      swap3\n      swap2\n      pop\n      pop\n      jump\t// out\n        /* \"#utility.yul\":1945:2092   */\n    tag_29:\n        /* \"#utility.yul\":2046:2057   */\n      0x00\n        /* \"#utility.yul\":2083:2086   */\n      dup2\n        /* \"#utility.yul\":2068:2086   */\n      swap1\n      pop\n        /* \"#utility.yul\":1945:2092   */\n      swap3\n      swap2\n      pop\n      pop\n      jump\t// out\n        /* \"#utility.yul\":2098:2267   */\n    tag_23:\n        /* \"#utility.yul\":2182:2193   */\n      0x00\n        /* \"#utility.yul\":2216:2222   */\n      dup3\n        /* \"#utility.yul\":2211:2214   */\n      dup3\n        /* \"#utility.yul\":2204:2223   */\n      mstore\n        /* \"#utility.yul\":2256:2260   */\n      0x20\n        /* \"#utility.yul\":2251:2254   */\n      dup3\n        /* \"#utility.yul\":2247:2261   */\n      add\n        /* \"#utility.yul\":2232:2261   */\n      swap1\n      pop\n        /* \"#utility.yul\":2098:2267   */\n      swap3\n      swap2\n      pop\n      pop\n      jump\t// out\n        /* \"#utility.yul\":2273:2350   */\n    tag_35:\n        /* \"#utility.yul\":2310:2317   */\n      0x00\n        /* \"#utility.yul\":2339:2344   */\n      dup2\n        /* \"#utility.yul\":2328:2344   */\n      swap1\n      pop\n        /* \"#utility.yul\":2273:2350   */\n      swap2\n      swap1\n      pop\n      jump\t// out\n        /* \"#utility.yul\":2356:2520   */\n    tag_25:\n        /* \"#utility.yul\":2496:2512   */\n      0x5265656e7472616e742063616c6c000000000000000000000000000000000000\n        /* \"#utility.yul\":2492:2493   */\n      0x00\n        /* \"#utility.yul\":2484:2490   */\n      dup3\n        /* \"#utility.yul\":2480:2494   */\n      add\n        /* \"#utility.yul\":2473:2513   */\n      mstore\n        /* \"#utility.yul\":2356:2520   */\n      pop\n      jump\t// out\n        /* \"#utility.yul\":2526:2640   */\n    tag_31:\n      pop\n      jump\t// out\n\n    auxdata: 0xa2646970667358221220b334095b766f2ed0c98e92356ac282cfb35518622d719bbfb15a5b8441fe522064736f6c63430008070033\n}\n",
				"bytecode": {
					"linkReferences": {},
					"object": "608060405234801561001057600080fd5b5061027d806100206000396000f3fe608060405234801561001057600080fd5b506004361061002b5760003560e01c806326121ff014610030575b600080fd5b61003861004e565b60405161004591906101da565b60405180910390f35b60008060009054906101000a900460ff161561009f576040517f08c379a0000000000000000000000000000000000000000000000000000000008152600401610096906101ba565b60405180910390fd5b60016000806101000a81548160ff02191690831515021790555060003373ffffffffffffffffffffffffffffffffffffffff166040516100de906101a5565b6000604051808303816000865af19150503d806000811461011b576040519150601f19603f3d011682016040523d82523d6000602084013e610120565b606091505b505090508061012e57600080fd5b600791505060008060006101000a81548160ff02191690831515021790555090565b600061015d600e83610200565b91506101688261021b565b602082019050919050565b60006101806000836101f5565b915061018b82610244565b600082019050919050565b61019f81610211565b82525050565b60006101b082610173565b9150819050919050565b600060208201905081810360008301526101d381610150565b9050919050565b60006020820190506101ef6000830184610196565b92915050565b600081905092915050565b600082825260208201905092915050565b6000819050919050565b7f5265656e7472616e742063616c6c000000000000000000000000000000000000600082015250565b5056fea2646970667358221220b334095b766f2ed0c98e92356ac282cfb35518622d719bbfb15a5b8441fe522064736f6c63430008070033",
					"opcodes": "PUSH1 0x80 PUSH1 0x40 MSTORE CALLVALUE DUP1 ISZERO PUSH2 0x10 JUMPI PUSH1 0x0 DUP1 REVERT JUMPDEST POP PUSH2 0x27D DUP1 PUSH2 0x20 PUSH1 0x0 CODECOPY PUSH1 0x0 RETURN INVALID PUSH1 0x80 PUSH1 0x40 MSTORE CALLVALUE DUP1 ISZERO PUSH2 0x10 JUMPI PUSH1 0x0 DUP1 REVERT JUMPDEST POP PUSH1 0x4 CALLDATASIZE LT PUSH2 0x2B JUMPI PUSH1 0x0 CALLDATALOAD PUSH1 0xE0 SHR DUP1 PUSH4 0x26121FF0 EQ PUSH2 0x30 JUMPI JUMPDEST PUSH1 0x0 DUP1 REVERT JUMPDEST PUSH2 0x38 PUSH2 0x4E JUMP JUMPDEST PUSH1 0x40 MLOAD PUSH2 0x45 SWAP2 SWAP1 PUSH2 0x1DA JUMP JUMPDEST PUSH1 0x40 MLOAD DUP1 SWAP2 SUB SWAP1 RETURN JUMPDEST PUSH1 0x0 DUP1 PUSH1 0x0 SWAP1 SLOAD SWAP1 PUSH2 0x100 EXP SWAP1 DIV PUSH1 0xFF AND ISZERO PUSH2 0x9F JUMPI PUSH1 0x40 MLOAD PUSH32 0x8C379A000000000000000000000000000000000000000000000000000000000 DUP2 MSTORE PUSH1 0x4 ADD PUSH2 0x96 SWAP1 PUSH2 0x1BA JUMP JUMPDEST PUSH1 0x40 MLOAD DUP1 SWAP2 SUB SWAP1 REVERT JUMPDEST PUSH1 0x1 PUSH1 0x0 DUP1 PUSH2 0x100 EXP DUP2 SLOAD DUP2 PUSH1 0xFF MUL NOT AND SWAP1 DUP4 ISZERO ISZERO MUL OR SWAP1 SSTORE POP PUSH1 0x0 CALLER PUSH20 0xFFFFFFFFFFFFFFFFFFFFFFFFFFFFFFFFFFFFFFFF AND PUSH1 0x40 MLOAD PUSH2 0xDE SWAP1 PUSH2 0x1A5 JUMP JUMPDEST PUSH1 0x0 PUSH1 0x40 MLOAD DUP1 DUP4 SUB DUP2 PUSH1 0x0 DUP7 GAS CALL SWAP2 POP POP RETURNDATASIZE DUP1 PUSH1 0x0 DUP2 EQ PUSH2 0x11B JUMPI PUSH1 0x40 MLOAD SWAP2 POP PUSH1 0x1F NOT PUSH1 0x3F RETURNDATASIZE ADD AND DUP3 ADD PUSH1 0x40 MSTORE RETURNDATASIZE DUP3 MSTORE RETURNDATASIZE PUSH1 0x0 PUSH1 0x20 DUP5 ADD RETURNDATACOPY PUSH2 0x120 JUMP JUMPDEST PUSH1 0x60 SWAP2 POP JUMPDEST POP POP SWAP1 POP DUP1 PUSH2 0x12E JUMPI PUSH1 0x0 DUP1 REVERT JUMPDEST PUSH1 0x7 SWAP2 POP POP PUSH1 0x0 DUP1 PUSH1 0x0 PUSH2 0x100 EXP DUP2 SLOAD DUP2 PUSH1 0xFF MUL NOT AND SWAP1 DUP4 ISZERO ISZERO MUL OR SWAP1 SSTORE POP SWAP1 JUMP JUMPDEST PUSH1 0x0 PUSH2 0x15D PUSH1 0xE DUP4 PUSH2 0x200 JUMP JUMPDEST SWAP2 POP PUSH2 0x168 DUP3 PUSH2 0x21B JUMP JUMPDEST PUSH1 0x20 DUP3 ADD SWAP1 POP SWAP2 SWAP1 POP JUMP JUMPDEST PUSH1 0x0 PUSH2 0x180 PUSH1 0x0 DUP4 PUSH2 0x1F5 JUMP JUMPDEST SWAP2 POP PUSH2 0x18B DUP3 PUSH2 0x244 JUMP JUMPDEST PUSH1 0x0 DUP3 ADD SWAP1 POP SWAP2 SWAP1 POP JUMP JUMPDEST PUSH2 0x19F DUP2 PUSH2 0x211 JUMP JUMPDEST DUP3 MSTORE POP POP JUMP JUMPDEST PUSH1 0x0 PUSH2 0x1B0 DUP3 PUSH2 0x173 JUMP JUMPDEST SWAP2 POP DUP2 SWAP1 POP SWAP2 SWAP1 POP JUMP JUMPDEST PUSH1 0x0 PUSH1 0x20 DUP3 ADD SWAP1 POP DUP2 DUP2 SUB PUSH1 0x0 DUP4 ADD MSTORE PUSH2 0x1D3 DUP2 PUSH2 0x150 JUMP JUMPDEST SWAP1 POP SWAP2 SWAP1 POP JUMP JUMPDEST PUSH1 0x0 PUSH1 0x20 DUP3 ADD SWAP1 POP PUSH2 0x1EF PUSH1 0x0 DUP4 ADD DUP5 PUSH2 0x196 JUMP JUMPDEST SWAP3 SWAP2 POP POP JUMP JUMPDEST PUSH1 0x0 DUP2 SWAP1 POP SWAP3 SWAP2 POP POP JUMP JUMPDEST PUSH1 0x0 DUP3 DUP3 MSTORE PUSH1 0x20 DUP3 ADD SWAP1 POP SWAP3 SWAP2 POP POP JUMP JUMPDEST PUSH1 0x0 DUP2 SWAP1 POP SWAP2 SWAP1 POP JUMP JUMPDEST PUSH32 0x5265656E7472616E742063616C6C000000000000000000000000000000000000 PUSH1 0x0 DUP3 ADD MSTORE POP JUMP JUMPDEST POP JUMP INVALID LOG2 PUSH5 0x6970667358 0x22 SLT KECCAK256 0xB3 CALLVALUE MULMOD JUMPDEST PUSH23 0x6F2ED0C98E92356AC282CFB35518622D719BBFB15A5B84 COINBASE INVALID MSTORE KECCAK256 PUSH5 0x736F6C6343 STOP ADDMOD SMOD STOP CALLER "
				},
				"gasEstimates": {
					"creation": {
						"codeDepositCost": "127400",
						"executionCost": "171",
						"totalCost": "127571"
					},
					"external": {
						"f()": "infinite"
					}
				},
				"methodIdentifiers": {
					"f()": "26121ff0"
				}
			},
			"storageLayout": {
				"storage": [
					{
						"astId": 103,
						"contract": "Contract-In-Dept/FunctionsModifiers.sol:Mutex",
						"label": "locked",
						"offset": 0,
						"slot": "0",
						"type": "t_bool"
					}
				],
				"types": {
					"t_bool": {
						"encoding": "inplace",
						"label": "bool",
						"numberOfBytes": "1"
					}
				}
			},
			"userdoc": {
				"kind": "user",
				"methods": {
					"f()": {
						"notice": "This function is protected by a mutex, which means that reentrant calls from within `msg.sender.call` cannot call `f` again. The `return 7` statement assigns 7 to the return value but still executes the statement `locked = false` in the modifier."
					}
				},
				"version": 1
			}
		}
	}
}