{
	"Contract-In-Dept/Enum-Types.sol": {
		"Enum": {
			"abi": [
				{
					"inputs": [],
					"name": "getnumWalk",
					"outputs": [
						{
							"internalType": "uint256",
							"name": "",
							"type": "uint256"
						}
					],
					"stateMutability": "pure",
					"type": "function"
				},
				{
					"inputs": [],
					"name": "getwalk",
					"outputs": [
						{
							"internalType": "enum Enum.MoveMe",
							"name": "",
							"type": "uint8"
						}
					],
					"stateMutability": "view",
					"type": "function"
				},
				{
					"inputs": [],
					"name": "setmoveForward",
					"outputs": [],
					"stateMutability": "nonpayable",
					"type": "function"
				}
			],
			"devdoc": {
				"kind": "dev",
				"methods": {},
				"version": 1
			},
			"evm": {
				"assembly": "    /* \"Contract-In-Dept/Enum-Types.sol\":72:652  contract Enum {\r... */\n  mstore(0x40, 0x80)\n  callvalue\n  dup1\n  iszero\n  tag_1\n  jumpi\n  0x00\n  dup1\n  revert\ntag_1:\n  pop\n  dataSize(sub_0)\n  dup1\n  dataOffset(sub_0)\n  0x00\n  codecopy\n  0x00\n  return\nstop\n\nsub_0: assembly {\n        /* \"Contract-In-Dept/Enum-Types.sol\":72:652  contract Enum {\r... */\n      mstore(0x40, 0x80)\n      callvalue\n      dup1\n      iszero\n      tag_1\n      jumpi\n      0x00\n      dup1\n      revert\n    tag_1:\n      pop\n      jumpi(tag_2, lt(calldatasize, 0x04))\n      shr(0xe0, calldataload(0x00))\n      dup1\n      0x544814e9\n      eq\n      tag_3\n      jumpi\n      dup1\n      0x65aafc4b\n      eq\n      tag_4\n      jumpi\n      dup1\n      0xae1a5064\n      eq\n      tag_5\n      jumpi\n    tag_2:\n      0x00\n      dup1\n      revert\n        /* \"Contract-In-Dept/Enum-Types.sol\":557:649  function getnumWalk() public pure returns(uint256){\r... */\n    tag_3:\n      tag_6\n      tag_7\n      jump\t// in\n    tag_6:\n      mload(0x40)\n      tag_8\n      swap2\n      swap1\n      tag_9\n      jump\t// in\n    tag_8:\n      mload(0x40)\n      dup1\n      swap2\n      sub\n      swap1\n      return\n        /* \"Contract-In-Dept/Enum-Types.sol\":392:469  function setmoveForward() public {\r... */\n    tag_4:\n      tag_10\n      tag_11\n      jump\t// in\n    tag_10:\n      stop\n        /* \"Contract-In-Dept/Enum-Types.sol\":475:551  function getwalk() public view returns(MoveMe){\r... */\n    tag_5:\n      tag_12\n      tag_13\n      jump\t// in\n    tag_12:\n      mload(0x40)\n      tag_14\n      swap2\n      swap1\n      tag_15\n      jump\t// in\n    tag_14:\n      mload(0x40)\n      dup1\n      swap2\n      sub\n      swap1\n      return\n        /* \"Contract-In-Dept/Enum-Types.sol\":557:649  function getnumWalk() public pure returns(uint256){\r... */\n    tag_7:\n        /* \"Contract-In-Dept/Enum-Types.sol\":599:606  uint256 */\n      0x00\n        /* \"Contract-In-Dept/Enum-Types.sol\":367:385  MoveMe.moveForward */\n      0x03\n        /* \"Contract-In-Dept/Enum-Types.sol\":625:641  uint256(numWalk) */\n      0x04\n      dup2\n      gt\n      iszero\n      tag_17\n      jumpi\n      tag_18\n      tag_19\n      jump\t// in\n    tag_18:\n    tag_17:\n        /* \"Contract-In-Dept/Enum-Types.sol\":618:641  return uint256(numWalk) */\n      swap1\n      pop\n        /* \"Contract-In-Dept/Enum-Types.sol\":557:649  function getnumWalk() public pure returns(uint256){\r... */\n      swap1\n      jump\t// out\n        /* \"Contract-In-Dept/Enum-Types.sol\":392:469  function setmoveForward() public {\r... */\n    tag_11:\n        /* \"Contract-In-Dept/Enum-Types.sol\":443:461  MoveMe.moveForward */\n      0x03\n        /* \"Contract-In-Dept/Enum-Types.sol\":436:440  walk */\n      0x00\n      dup1\n        /* \"Contract-In-Dept/Enum-Types.sol\":436:461  walk = MoveMe.moveForward */\n      0x0100\n      exp\n      dup2\n      sload\n      dup2\n      0xff\n      mul\n      not\n      and\n      swap1\n      dup4\n      0x04\n      dup2\n      gt\n      iszero\n      tag_21\n      jumpi\n      tag_22\n      tag_19\n      jump\t// in\n    tag_22:\n    tag_21:\n      mul\n      or\n      swap1\n      sstore\n      pop\n        /* \"Contract-In-Dept/Enum-Types.sol\":392:469  function setmoveForward() public {\r... */\n      jump\t// out\n        /* \"Contract-In-Dept/Enum-Types.sol\":475:551  function getwalk() public view returns(MoveMe){\r... */\n    tag_13:\n        /* \"Contract-In-Dept/Enum-Types.sol\":514:520  MoveMe */\n      0x00\n        /* \"Contract-In-Dept/Enum-Types.sol\":539:543  walk */\n      dup1\n      0x00\n      swap1\n      sload\n      swap1\n      0x0100\n      exp\n      swap1\n      div\n      0xff\n      and\n        /* \"Contract-In-Dept/Enum-Types.sol\":532:543  return walk */\n      swap1\n      pop\n        /* \"Contract-In-Dept/Enum-Types.sol\":475:551  function getwalk() public view returns(MoveMe){\r... */\n      swap1\n      jump\t// out\n        /* \"#utility.yul\":7:150   */\n    tag_25:\n        /* \"#utility.yul\":100:143   */\n      tag_27\n        /* \"#utility.yul\":137:142   */\n      dup2\n        /* \"#utility.yul\":100:143   */\n      tag_28\n      jump\t// in\n    tag_27:\n        /* \"#utility.yul\":95:98   */\n      dup3\n        /* \"#utility.yul\":88:144   */\n      mstore\n        /* \"#utility.yul\":7:150   */\n      pop\n      pop\n      jump\t// out\n        /* \"#utility.yul\":156:274   */\n    tag_29:\n        /* \"#utility.yul\":243:267   */\n      tag_31\n        /* \"#utility.yul\":261:266   */\n      dup2\n        /* \"#utility.yul\":243:267   */\n      tag_32\n      jump\t// in\n    tag_31:\n        /* \"#utility.yul\":238:241   */\n      dup3\n        /* \"#utility.yul\":231:268   */\n      mstore\n        /* \"#utility.yul\":156:274   */\n      pop\n      pop\n      jump\t// out\n        /* \"#utility.yul\":280:514   */\n    tag_15:\n        /* \"#utility.yul\":379:383   */\n      0x00\n        /* \"#utility.yul\":417:419   */\n      0x20\n        /* \"#utility.yul\":406:415   */\n      dup3\n        /* \"#utility.yul\":402:420   */\n      add\n        /* \"#utility.yul\":394:420   */\n      swap1\n      pop\n        /* \"#utility.yul\":430:507   */\n      tag_34\n        /* \"#utility.yul\":504:505   */\n      0x00\n        /* \"#utility.yul\":493:502   */\n      dup4\n        /* \"#utility.yul\":489:506   */\n      add\n        /* \"#utility.yul\":480:486   */\n      dup5\n        /* \"#utility.yul\":430:507   */\n      tag_25\n      jump\t// in\n    tag_34:\n        /* \"#utility.yul\":280:514   */\n      swap3\n      swap2\n      pop\n      pop\n      jump\t// out\n        /* \"#utility.yul\":520:742   */\n    tag_9:\n        /* \"#utility.yul\":613:617   */\n      0x00\n        /* \"#utility.yul\":651:653   */\n      0x20\n        /* \"#utility.yul\":640:649   */\n      dup3\n        /* \"#utility.yul\":636:654   */\n      add\n        /* \"#utility.yul\":628:654   */\n      swap1\n      pop\n        /* \"#utility.yul\":664:735   */\n      tag_36\n        /* \"#utility.yul\":732:733   */\n      0x00\n        /* \"#utility.yul\":721:730   */\n      dup4\n        /* \"#utility.yul\":717:734   */\n      add\n        /* \"#utility.yul\":708:714   */\n      dup5\n        /* \"#utility.yul\":664:735   */\n      tag_29\n      jump\t// in\n    tag_36:\n        /* \"#utility.yul\":520:742   */\n      swap3\n      swap2\n      pop\n      pop\n      jump\t// out\n        /* \"#utility.yul\":748:875   */\n    tag_37:\n        /* \"#utility.yul\":793:800   */\n      0x00\n        /* \"#utility.yul\":822:827   */\n      dup2\n        /* \"#utility.yul\":811:827   */\n      swap1\n      pop\n        /* \"#utility.yul\":828:869   */\n      tag_39\n        /* \"#utility.yul\":863:868   */\n      dup3\n        /* \"#utility.yul\":828:869   */\n      tag_40\n      jump\t// in\n    tag_39:\n        /* \"#utility.yul\":748:875   */\n      swap2\n      swap1\n      pop\n      jump\t// out\n        /* \"#utility.yul\":881:958   */\n    tag_32:\n        /* \"#utility.yul\":918:925   */\n      0x00\n        /* \"#utility.yul\":947:952   */\n      dup2\n        /* \"#utility.yul\":936:952   */\n      swap1\n      pop\n        /* \"#utility.yul\":881:958   */\n      swap2\n      swap1\n      pop\n      jump\t// out\n        /* \"#utility.yul\":964:1091   */\n    tag_28:\n        /* \"#utility.yul\":1020:1029   */\n      0x00\n        /* \"#utility.yul\":1053:1085   */\n      tag_43\n        /* \"#utility.yul\":1079:1084   */\n      dup3\n        /* \"#utility.yul\":1053:1085   */\n      tag_37\n      jump\t// in\n    tag_43:\n        /* \"#utility.yul\":1040:1085   */\n      swap1\n      pop\n        /* \"#utility.yul\":964:1091   */\n      swap2\n      swap1\n      pop\n      jump\t// out\n        /* \"#utility.yul\":1097:1277   */\n    tag_19:\n        /* \"#utility.yul\":1145:1222   */\n      0x4e487b7100000000000000000000000000000000000000000000000000000000\n        /* \"#utility.yul\":1142:1143   */\n      0x00\n        /* \"#utility.yul\":1135:1223   */\n      mstore\n        /* \"#utility.yul\":1242:1246   */\n      0x21\n        /* \"#utility.yul\":1239:1240   */\n      0x04\n        /* \"#utility.yul\":1232:1247   */\n      mstore\n        /* \"#utility.yul\":1266:1270   */\n      0x24\n        /* \"#utility.yul\":1263:1264   */\n      0x00\n        /* \"#utility.yul\":1256:1271   */\n      revert\n        /* \"#utility.yul\":1283:1396   */\n    tag_40:\n        /* \"#utility.yul\":1364:1365   */\n      0x05\n        /* \"#utility.yul\":1357:1362   */\n      dup2\n        /* \"#utility.yul\":1354:1366   */\n      lt\n        /* \"#utility.yul\":1344:1390   */\n      tag_46\n      jumpi\n        /* \"#utility.yul\":1370:1388   */\n      tag_47\n      tag_19\n      jump\t// in\n    tag_47:\n        /* \"#utility.yul\":1344:1390   */\n    tag_46:\n        /* \"#utility.yul\":1283:1396   */\n      pop\n      jump\t// out\n\n    auxdata: 0xa2646970667358221220ff7d6e7b14aa821c5f9728ede9773f0c3ff265b9cadaf55215c1641655dcc2ba64736f6c63430008070033\n}\n",
				"bytecode": {
					"linkReferences": {},
					"object": "608060405234801561001057600080fd5b506101e5806100206000396000f3fe608060405234801561001057600080fd5b50600436106100415760003560e01c8063544814e91461004657806365aafc4b14610064578063ae1a50641461006e575b600080fd5b61004e61008c565b60405161005b9190610122565b60405180910390f35b61006c6100a7565b005b6100766100d3565b6040516100839190610107565b60405180910390f35b6000600360048111156100a2576100a161016c565b5b905090565b60036000806101000a81548160ff021916908360048111156100cc576100cb61016c565b5b0217905550565b60008060009054906101000a900460ff16905090565b6100f28161015a565b82525050565b61010181610150565b82525050565b600060208201905061011c60008301846100e9565b92915050565b600060208201905061013760008301846100f8565b92915050565b600081905061014b8261019b565b919050565b6000819050919050565b60006101658261013d565b9050919050565b7f4e487b7100000000000000000000000000000000000000000000000000000000600052602160045260246000fd5b600581106101ac576101ab61016c565b5b5056fea2646970667358221220ff7d6e7b14aa821c5f9728ede9773f0c3ff265b9cadaf55215c1641655dcc2ba64736f6c63430008070033",
					"opcodes": "PUSH1 0x80 PUSH1 0x40 MSTORE CALLVALUE DUP1 ISZERO PUSH2 0x10 JUMPI PUSH1 0x0 DUP1 REVERT JUMPDEST POP PUSH2 0x1E5 DUP1 PUSH2 0x20 PUSH1 0x0 CODECOPY PUSH1 0x0 RETURN INVALID PUSH1 0x80 PUSH1 0x40 MSTORE CALLVALUE DUP1 ISZERO PUSH2 0x10 JUMPI PUSH1 0x0 DUP1 REVERT JUMPDEST POP PUSH1 0x4 CALLDATASIZE LT PUSH2 0x41 JUMPI PUSH1 0x0 CALLDATALOAD PUSH1 0xE0 SHR DUP1 PUSH4 0x544814E9 EQ PUSH2 0x46 JUMPI DUP1 PUSH4 0x65AAFC4B EQ PUSH2 0x64 JUMPI DUP1 PUSH4 0xAE1A5064 EQ PUSH2 0x6E JUMPI JUMPDEST PUSH1 0x0 DUP1 REVERT JUMPDEST PUSH2 0x4E PUSH2 0x8C JUMP JUMPDEST PUSH1 0x40 MLOAD PUSH2 0x5B SWAP2 SWAP1 PUSH2 0x122 JUMP JUMPDEST PUSH1 0x40 MLOAD DUP1 SWAP2 SUB SWAP1 RETURN JUMPDEST PUSH2 0x6C PUSH2 0xA7 JUMP JUMPDEST STOP JUMPDEST PUSH2 0x76 PUSH2 0xD3 JUMP JUMPDEST PUSH1 0x40 MLOAD PUSH2 0x83 SWAP2 SWAP1 PUSH2 0x107 JUMP JUMPDEST PUSH1 0x40 MLOAD DUP1 SWAP2 SUB SWAP1 RETURN JUMPDEST PUSH1 0x0 PUSH1 0x3 PUSH1 0x4 DUP2 GT ISZERO PUSH2 0xA2 JUMPI PUSH2 0xA1 PUSH2 0x16C JUMP JUMPDEST JUMPDEST SWAP1 POP SWAP1 JUMP JUMPDEST PUSH1 0x3 PUSH1 0x0 DUP1 PUSH2 0x100 EXP DUP2 SLOAD DUP2 PUSH1 0xFF MUL NOT AND SWAP1 DUP4 PUSH1 0x4 DUP2 GT ISZERO PUSH2 0xCC JUMPI PUSH2 0xCB PUSH2 0x16C JUMP JUMPDEST JUMPDEST MUL OR SWAP1 SSTORE POP JUMP JUMPDEST PUSH1 0x0 DUP1 PUSH1 0x0 SWAP1 SLOAD SWAP1 PUSH2 0x100 EXP SWAP1 DIV PUSH1 0xFF AND SWAP1 POP SWAP1 JUMP JUMPDEST PUSH2 0xF2 DUP2 PUSH2 0x15A JUMP JUMPDEST DUP3 MSTORE POP POP JUMP JUMPDEST PUSH2 0x101 DUP2 PUSH2 0x150 JUMP JUMPDEST DUP3 MSTORE POP POP JUMP JUMPDEST PUSH1 0x0 PUSH1 0x20 DUP3 ADD SWAP1 POP PUSH2 0x11C PUSH1 0x0 DUP4 ADD DUP5 PUSH2 0xE9 JUMP JUMPDEST SWAP3 SWAP2 POP POP JUMP JUMPDEST PUSH1 0x0 PUSH1 0x20 DUP3 ADD SWAP1 POP PUSH2 0x137 PUSH1 0x0 DUP4 ADD DUP5 PUSH2 0xF8 JUMP JUMPDEST SWAP3 SWAP2 POP POP JUMP JUMPDEST PUSH1 0x0 DUP2 SWAP1 POP PUSH2 0x14B DUP3 PUSH2 0x19B JUMP JUMPDEST SWAP2 SWAP1 POP JUMP JUMPDEST PUSH1 0x0 DUP2 SWAP1 POP SWAP2 SWAP1 POP JUMP JUMPDEST PUSH1 0x0 PUSH2 0x165 DUP3 PUSH2 0x13D JUMP JUMPDEST SWAP1 POP SWAP2 SWAP1 POP JUMP JUMPDEST PUSH32 0x4E487B7100000000000000000000000000000000000000000000000000000000 PUSH1 0x0 MSTORE PUSH1 0x21 PUSH1 0x4 MSTORE PUSH1 0x24 PUSH1 0x0 REVERT JUMPDEST PUSH1 0x5 DUP2 LT PUSH2 0x1AC JUMPI PUSH2 0x1AB PUSH2 0x16C JUMP JUMPDEST JUMPDEST POP JUMP INVALID LOG2 PUSH5 0x6970667358 0x22 SLT KECCAK256 SELFDESTRUCT PUSH30 0x6E7B14AA821C5F9728EDE9773F0C3FF265B9CADAF55215C1641655DCC2BA PUSH5 0x736F6C6343 STOP ADDMOD SMOD STOP CALLER "
				},
				"gasEstimates": {
					"creation": {
						"codeDepositCost": "97000",
						"executionCost": "147",
						"totalCost": "97147"
					},
					"external": {
						"getnumWalk()": "341",
						"getwalk()": "2590",
						"setmoveForward()": "24431"
					}
				},
				"methodIdentifiers": {
					"getnumWalk()": "544814e9",
					"getwalk()": "ae1a5064",
					"setmoveForward()": "65aafc4b"
				}
			},
			"storageLayout": {
				"storage": [
					{
						"astId": 10,
						"contract": "Contract-In-Dept/Enum-Types.sol:Enum",
						"label": "walk",
						"offset": 0,
						"slot": "0",
						"type": "t_enum(MoveMe)7"
					}
				],
				"types": {
					"t_enum(MoveMe)7": {
						"encoding": "inplace",
						"label": "enum Enum.MoveMe",
						"numberOfBytes": "1"
					}
				}
			},
			"userdoc": {
				"kind": "user",
				"methods": {},
				"version": 1
			}
		}
	}
}